:020000040000FA
:1000000000400020719E0100AD9E0100AF9E0100E6
:1000100000000000000000000000000000000000E0
:10002000000000000000000000000000B19E010080
:100030000000000000000000B39E0100B59E01001A
:10004000B79E01003D5D010045970100B79E01008C
:10005000B79E010000000000A9980100B79E0100B2
:1000600011E00000E99A0100B9950100B79E010076
:10007000B79E0100B79E0100B79E0100B79E010028
:10008000B79E0100B79E0100B79E0100B79E010018
:10009000B79E0100658F01007D8E01004DE10000DB
:1000A0005DE10000B79E01000000000000000000BC
:1000B0000000000000000000000000000000000040
:1000C00010B5064C2378002B07D1054B002B02D02E
:1000D000044800E000BF0123237010BD2001002070
:1000E000000000000CA50300044B10B5002B03D04A
:1000F0000349044800E000BF10BDC04600000000F6
:10010000240100200CA50300164B002B00D1144B3A
:100110009D46402292029A1A924600218B460F4633
:100120001348144A121A29F07AFE0F4B002B00D004
:1001300098470E4B002B00D0984700200021040068
:100140000D000D48002802D00C4800E000BF20F050
:10015000C5FD2000290029F0A8FB20F00BFDC046BA
:100160000000080000400020000000000000000027
:1001700018010020E02F0020000000000000000017
:10018000F0B50F00496885B005001600002901D0C0
:10019000002A05D13900280021F060FC05B0F0BD2F
:1001A0000F321309C918009321F0C9FB0F22A86868
:1001B000B9687C68324000D11032009B1E19234B75
:1001C000F3185B00C018214B0290E3185B00CB18BA
:1001D000019010209C4621000023801A002921D183
:1001E000C3401A48029A84466400141B2380009B73
:1001F0005B00E41A009B023463445A00200029F09B
:100200000EFE002E04D07300023BE35A002B1BD0DD
:1002100001216E603B78DB07DA0F2B788B431343A9
:100220002B70BBE762461288013913431A00C240A3
:100230000393019B1A80019A039B023A01920222C6
:1002400052421B049444C9E7013EDAE7FFFFFF7FF7
:10025000F0B54B681500526889B006000C00934257
:1002600001D22C000D000121227863680A4201D1DD
:100270002A781140C918300021F061FBB368227858
:100280000193A36817000293636829789C46AB68C2
:100290004F400393012318001F408B43069363468E
:1002A000904302006046591E019B04936B681B1A21
:1002B00007934B1C18D163465900019B5918002F16
:1002C00002D001230B800231019821F0BBFA0121F9
:1002D000706022782B7853403278DB078A43DB0F3B
:1002E0001343337009B0F0BD029B13481B881B18E1
:1002F0009B180593079B5B188B421AD8039B039AA4
:100300001B8802321B180392069A01399B18059A22
:100310005A4092B21B0CD7190693049A059B17807A
:100320001A0C049B3F0C02330493029B023302938A
:10033000BFE7014BE8E7C046FFFF0000F0B506004D
:1003400095B0069353680D00591C0492009321F058
:10035000F6FA049B00215B68B0685A1C52000093B7
:1003600029F05DFD00237360049B28005B68591C25
:10037000009321F0E4FA0499280021F06FFBAB68A8
:100380006F680193069B9B680393069B5B680293CF
:10039000B3680793029BBB422DD82ED3039A390032
:1003A000019821F00FFB002823D10123079A6860F0
:1003B00013807360049B1A78069B1B785A400123B4
:1003C0001A4214D03278134333706B68002B0ED06E
:1003D000012111A8494221F060FB11AA310030002F
:1003E00021F062FD069A2900280021F05DFD15B07C
:1003F000F0BD002801DA0023DBE7824A029B9B184C
:100400005B009C460022039B634405931B8800927B
:100410001AB2002A63DA0022019B7C001A537B1C6B
:10042000102709936B60019BA01C00991B1808936F
:10043000791A019B0A9108998B4256D3059B009A21
:100440001B8893400893029B012B0AD91022039B1F
:1004500000996344023B1B88521AD340089A1A43FE
:100460000892019B029A1C19099B9B1A654A7360AA
:100470009B18079A5B00D3180A93634602330E93C6
:100480006B680B930B9A029B934239D313005D4A1E
:10049000102194460024019A63445B00D318009A0B
:1004A000891A019A9A4200D89EE07368002B07D0FF
:1004B000544A07999A185200525A002A00D19DE0D6
:1004C0006B68002B00D175E74E4A01999A185200CB
:1004D000525A002A00D06DE7013B6B60F0E7009AAA
:1004E0005B0001329BB292B291E71988009F08002D
:1004F000B84002431A800A9A0233D1408AB29AE77E
:10050000A31E20880D931B8800041843089919F036
:10051000F1FD0E9B0022E31A0C931900039B05903A
:100520009C4609928C4212D823889A4234D3D31A1B
:100530005A42190C9BB222805A1E9341CA18002AB3
:100540002CD003990C9B8C4600210F0041E0099BA5
:10055000009F180C63461B88BB4018436B460990EC
:100560009F8C059B5F430B889F4203D2D81B0F9043
:1005700090420CD8D31AFF187B420B80BBB23A0CC6
:100580005F1EBB41D218022302319C44CAE70F9B75
:100590009A1A0A800022F6E79A1A22800A9B059A84
:1005A000023B5A800A930B9B0D9C013B6B6067E7F3
:1005B000380C09906046009F0088B840099F0743A7
:1005C00018884118B8B24118022019808444090CD7
:1005D00002339C42ECD823885918059B2180013BAB
:1005E000090C521A0593AAE71A88009F1000384197
:1005F0008A402043188094B2023B52E7013B73606B
:1006000053E7C046FFFFFF7F436870B55A000023E1
:1006100084680A4DA218944206D30278D20700D506
:100620005B4201200B6070BD023AAB4203D81688D2
:100630001B043343EFE70020F5E7C046FF7F0000CF
:1006400010B50AF069FC05491AF0AEFB032302005D
:1006500002209A43024B1043C01810BDE02E6542A1
:100660000000808010B50AF057FC05491AF09CFB89
:100670000323020002209A43024B1043C01810BD0E
:1006800035FA8E3C0000808010B50AF045FC011C54
:100690001AF080FE024B002800D1024B180010BD5A
:1006A0009CD6020094D6020010B50AF035FC440036
:1006B00064080849201C1AF06DFE002805D1054980
:1006C000201C19F0F1FE002801D0034810BD03489A
:1006D000FCE7C046FFFF7F7F94D602009CD6020055
:1006E00010B50AF019FC034B034002201843024BDB
:1006F000C01810BDFCFFFF7F0000808010B50AF01D
:100700000BFC440064080849201C1AF043FE002832
:1007100007D10549201C19F0BDFE002801D103486E
:1007200010BD0348FCE7C046FFFF7F7F9CD6020058
:1007300094D602001FB5002301930AF0EDFB01A936
:100740001CF070FF03220300022093430649034379
:100750005B180293019B934303435B1802A9039325
:1007600001F096FF05B000BD0000808070B50D005F
:100770000AF0D2FB041C28000AF0CEFB1AF020FE7F
:100780000100201C1CF02AFF0323020002209A43D0
:10079000014B1043C01870BD000080801FB50023BE
:1007A00001930AF0B9FB01A91CF0EEFE0323022419
:1007B0009843074B2043C0180290019826F00AF98D
:1007C00002A90390200001F063FF04B010BDC046F1
:1007D0000000808070B50D000AF09EFB041C28000C
:1007E0000AF09AFB011C201C1DF0E6F9032302000D
:1007F00002209A43014B1043C01870BD0000808056
:1008000070B50D000AF088FB041C28000AF084FB78
:10081000C00FC30760004008184303230224984315
:10082000014B2043C01870BD0000808070B50D00E2
:100830000AF072FB041C28000AF06EFB011C201C4D
:100840001DF042F90323020002209A43014B10439A
:10085000C01870BD0000808010B50AF05DFB1CF070
:10086000A9FC0323020002209A43024B1043C01844
:1008700010BDC0460000808010B50AF04DFB1DF091
:10088000D1F80323020002209A43024B1043C01800
:1008900010BDC0460000808010B50AF03DFB1DF081
:1008A0006FF80323020002209A43024B1043C01842
:1008B00010BDC0460000808010B50AF02DFB1CF072
:1008C000C5FF0323020002209A43024B1043C018C5
:1008D00010BDC0460000808010B50AF01DFB1CF062
:1008E00077FF0323020002209A43024B1043C018F3
:1008F00010BDC0460000808010B50AF00DFB1CF052
:10090000B7FD0323020002209A43024B1043C01894
:1009100010BDC0460000808010B50AF0FDFA1DF041
:10092000D7F80323020002209A43024B1043C01859
:1009300010BDC0460000808070B50D000AF0ECFAD2
:10094000041C28000AF0E8FA011C201C1DF018FA0B
:100950000323020002209A43014B1043C01870BDCC
:100960000000808010B50AF0D7FA0021041C19F0AD
:1009700087FD002802D0074805F012FE201C1DF05C
:10098000BFFB0323020002209A43034B1043C0180D
:1009900010BDC046C31203000000808070B5060081
:1009A00008680D000AF0B8FA0021041C19F072FD65
:1009B000002802D0184805F0F3FD201C1DF064F952
:1009C000041C012E06D1032302209C432043134B19
:1009D000C01870BD68680AF09FFA0021051C19F064
:1009E00059FD0028E6D1FE21281C890519F042FD99
:1009F000002803D00A490B4823F02FF8281C1DF0CB
:100A000043F9011C201C19F0F7FF03230200022008
:100A10009A431043DBE7C046C31203000000808006
:100A2000B2120300C4B30200F7B50020214A224EDF
:100A300012783368111D4900CC5A5F18598801900B
:100A4000A020C00584466405640D4C431B49A412D4
:100A50000968787807270500BD43F82D1DD00125CA
:100A6000C00885402800A1256746ED000132785175
:100A7000D2B2101D4000C55A1F186D0558886D0D63
:100A800068438012001BE4D00A4C2270019A002AAD
:100A900002D00A4A33601160FEBD6046084A5C68B5
:100AA0008450002903D001220B00002101920A008A
:100AB0000C00DEE7C62D002040010020440100208C
:100AC0000C05000010B572B600220F4B18681A60B2
:100AD00062B6904210D10D4B0D4A1B680D489342EF
:100AE00000D010001A7802705A8842805A6842601A
:100AF000002219788A4200D310BD510044185918B9
:100B0000098901322181F4E74401002040010020DD
:100B10004801002078010020044B054A1A60002398
:100B2000044A1360044A13707047C0464001002015
:100B30009CA2020044010020C62D002010B578229E
:100B4000024902200DF0B4FA10BDC046290A000087
:100B5000421E084BFF3A10B504009A4207D8FFF72F
:100B6000B1FF054B241144801860002010BD012006
:100B70004042FBE740410F0044010020044B1B684A
:100B8000002B01D1034B1B68588800017047C046F9
:100B90004401002040010020F7B53D4A04000D004B
:100BA0000B00914200D913008022D200D31A019386
:100BB000FFF788FF0122A24046680092164207D143
:100BC0002300A0210327C133FF339B00C9055F50D9
:100BD000002703789F4206DB002D01D0132B0BD991
:100BE0002C4B1860F7BD391D490042185278D208C5
:100BF000A24243D00137EDE7009A191D324342600B
:100C0000019A490055050A5A6D0DD20AD2022A43AB
:100C10000A525205E400520F4118144301334C703C
:100C20000370851C012225E0009A013BDBB296434C
:100C300003704660BB42F4DD04335B001B5A0B5269
:100C4000EFE72F00131D5B00195A2E894905490D46
:100C5000531E1C1D6400245A6405640D8C4204D983
:100C6000FC88023F7C81013BF3D205335B001E52BE
:100C70000132023503789A42E3DBB1E7002DD3D08D
:100C8000019B5A050B5A520DDB0ADB021343D6E7D0
:100C9000FF0300004401002070B500210400FFF7AD
:100CA0007BFF00210D4B18680578A94200DB70BD61
:100CB0000B1D5B00C3185A78161CD208944201D051
:100CC0000131F2E70822524232435A700123A02137
:100CD000A340034AC9058B50E9E7C0464001002004
:100CE0000C050000194BF7B530CB0F00160001289A
:100CF0001AD94B68164A934207D0990711D1154962
:100D00001C688C420DD11C001D0002280CD0BB6851
:100D1000934209D09A0704D10E4A19681C009142E7
:100D200002D0002005F000FE01A9386810F012F88A
:100D300001009620019A0023800024F03CFD2A0047
:100D40003100230005F0E4FBFEBDC046782E0020F4
:100D5000C8BE0200B0DB0200A3230021024A5B00F0
:100D60000248D1527047C046782E0020C8BE02000B
:100D7000A3230121024A5B000248D1527047C046BA
:100D8000782E0020C8BE0200A323044A5B00D35A79
:100D90000348002B00D103487047C046782E00203E
:100DA0009CD6020094D6020010B504F07DFD0148E7
:100DB00010BDC046C8BE020010B50C4C002808D1BA
:100DC000FC34236D18005A1C02D0180125F002FED5
:100DD00010BD08680AF03CF8FC34031E044803DA2E
:100DE00001235B422365F3E71B09FBE7782E002014
:100DF000C8BE020070B5137804000A3BD8B20F28B1
:100E000009D90A001048114901F024FB0025636A42
:100E10001860280070BD002552781B021A43E36A4F
:100E2000AB420AD1238C0025042BF2D10849064895
:100E300001F010FB636A1860EBE7206BA90009580A
:100E40009142E6D00135EBE798B202005814030056
:100E50006D140300F0B5040085B00D00100003A967
:100E6000A26A1E0025F002FB002809D12A000B49C6
:100E70000B4801F0EFFA636A1860002005B0F0BD7E
:100E800003980AF011F80300B343F7D0030000966B
:100E90002A000449024801F0DDFAECE714140300CB
:100EA00098B202002C140300F7B51F0013780E004F
:100EB0000A3BD9B2050021480F2904D850781B02FB
:100EC000184323F08EFB15240378009315231C4947
:100ED0001B1B0193A300CB1A190055310978009A06
:100EE00091421FD119005631427809788A4219D1AE
:100EF000573381781B788B4214D1002B0FD1019B83
:100F00009A000F4BD05CB84208D93B0032000D4923
:100F10000D4801F09FFA6B6A18600020FEBDC3788F
:100F2000002BECD0013C002CD0D132000749064800
:100F300001F090FA6B6A18602000EFE73C5803005C
:100F4000D01403008414030098B202009D1403001F
:100F5000F0B5137885B005000E00462B47D101A9E6
:100F6000100025F0B3FA019B834240D003781A00A9
:100F70000A3A0F2A0AD802000F2331002800FFF78F
:100F800093FF01248440200005B0F0BDB32B2ED187
:100F900025F097FA040025F08FFA02900378B62B1B
:100FA00025D10127A73B220031002800FFF77CFF55
:100FB0003C0003A98440029825F088FA039B029024
:100FC0009842E0D09D2102A825F08FFA029A039B57
:100FD0009A42D8D00F2331002800FFF765FF3B006D
:100FE000834002981C4325F067FA0290EEE7320036
:100FF0000349044801F02EFA6B6A00241860C2E726
:10100000B514030098B20200F0B50E0087B00400DA
:1010100004A930001F00019223F0E8FA019B0500AB
:10102000002B0FD1914B9E4205D1BF210902200018
:1010300024F0E3FB1AE0D2239B009E4200D08BE019
:101040008B49F4E7019B012B00D09EE00233FF3374
:101050009E420DD101003A682000FFF7CBFE01004F
:10106000200024F014FC002800D103E207B0F0BDFA
:101070009B239B009E4209D101003A682000FFF7A4
:10108000B9FE0100200024F05AFCECE79C239B00F1
:101090009E420AD101000F233A682000FFF704FFA7
:1010A0008E21C000C9010143C1E70378622B3BD107
:1010B000049B032B07D0052B36D1C3785F2B33D18C
:1010C00003796E2B30D101230E265B426978694883
:1010D0000293B300F31AC3181A002B3212788A4213
:1010E00009D1AA7894461A002C321278944502D17C
:1010F0002A331B780293013E002EEAD1029B013372
:101100002AD03A6829002000FFF774FE049B0200F1
:10111000052B03D12E79773E73425E41330002994D
:10112000200024F0D0FB9EE7534B9E4201D153494F
:101130007DE7A1239B009E4201D1514977E7514BA6
:101140009E4212D129003A682000FFF701FFFF23D9
:101150001B02B421184216D0019B2A004A494B4871
:1011600001F078F9636A186080E7BF239B009E4214
:10117000F2D13A6829002000FFF7EAFEFF231B02A4
:101180001842E9D1BC2109028DE7019B022B00D056
:101190000BE17B683E4A1B780A3B0F2B48D89642EE
:1011A00012D13A6801000F232000FFF77DFE7A6814
:1011B000060029000F232000FFF776FE3100020011
:1011C000200024F04DFB51E70022324B02929E4258
:1011D0001AD18026F6013A68290007232000FFF77C
:1011E00063FE7A680190290007232000FFF75CFE68
:1011F000019A03003100200024F02BFB36E7029B0C
:10120000013302930F2BA7D0029B03229E00224B97
:101210002800991928F05EFE0028F0D1EB78002B09
:10122000EDD11E4BF65C80233601DB011E43D2E775
:10123000964235D1802607233A6829002000FFF71F
:1012400033FEFF23019029007A682000FFF702FE99
:101250000100019BB6011B0231431943E7E6A026BA
:10126000E9E7C026E7E7E026E5E7C046F20200002E
:1012700030BF0000D51203008302000072B60000E8
:1012800062B60000010300008F13030098B2020051
:10129000EB02000061020000D9130300D813030021
:1012A000784B9E42DBD0784B9E42DAD0774B9E4201
:1012B000D9D0774B9E4251D001339E4250D0754BCE
:1012C0009E424FD0744B9E424ED0744B9E424DD0A6
:1012D000734B9E4200D03FE70523724A9B009B5A06
:1012E000290002933A6807232000FFF7DDFD7E689E
:1012F00003903378452B3BD1300025F022F90028AC
:1013000036D1300025F0DDF80378A62B30D105A9C1
:1013100025F0DCF80599060025F0C2F8022827D14F
:10132000300025F0C9F8072332000700290020000B
:10133000FFF7BAFD029B0600DB0421D51F233A000C
:1013400029002000FFF786FDF100039B029E80012B
:101350001E433143F826F6003040A4E60023BCE7E4
:101360000123BAE7019BB8E70323B6E70423B4E7F8
:101370002A004D494D4801F06DF8636A1860EBE6AC
:101380006B4608229B5E002B07DA3E233A002900B9
:101390002000FFF75FFD4008D6E77C233A002900D4
:1013A0002000FFF757FD8008CEE7019B032B00D0FC
:1013B000D2E63F4B9E4222D100263A6807232900FD
:1013C0002000FFF771FD7A680190072329002000B3
:1013D000FFF76AFD1F230290BA6829002000FFF77B
:1013E00039FD019F029B374381013943DE003143C0
:1013F0001DE680263601E0E780267601DDE72D4BED
:101400009E42F6D02C4B9E42F6D01F4B9E422BD1D3
:10141000C02607233A6829002000FFF745FD07236F
:1014200001907A6829002000FFF73EFDBA68760136
:10143000137802900A3B0F2B0DD8072329002000B8
:10144000FFF732FD029BD900019B194331430F0086
:1014500081013943EBE58023DB001E43290007238C
:101460002000FFF7F7FCEDE7084B9E4200D073E643
:10147000D026CEE711490D48646A21F0E2F92060D8
:10148000F4E5C0467D0200005E0200002703000074
:10149000CF020000D202000022030000230300005C
:1014A00025030000740D03006413030098B20200CA
:1014B000D9020000DA02000067020000C413030032
:1014C000F7B50E0007001100300024F0E9FF0025F9
:1014D000040004281ED97C6A1349144821F0B1F98C
:1014E000206000242000FEBD73780002184323F022
:1014F00078F80236019028F0E6FC022811D1019B11
:101500001B78722B0DD1019B5A782B0030339A42F5
:1015100007D10135A542E5D030780A38C3B20F2B88
:10152000E2D97C6A0249D8E7FF12030098B20200B0
:101530003213030010B53E2803D040282ED03C289B
:1015400013D1532924D013D84C2921D007D84829A6
:1015500050D049291CD0422907D1012348E04F2906
:1015600003D3502914D9512947D0254805F018F83C
:1015700068293FD006D864293FD0662908D062295F
:10158000F3D1EAE76C2903D0712936D06929ECD16F
:1015900001230420002A00D0136010BD512926D059
:1015A00010D849290CD006D84229D6D0482918D0BD
:1015B0000129DAD1D1E74C2902D0D6D34F29D4D38F
:1015C0000423E6E76629FBD006D86229C5D0642942
:1015D0000DD05329F4D0C8E76929F1D003D8682980
:1015E000C3D1022304E06C29EAD07129BDD10823BC
:1015F0001800CFE701230220CCE701230820C9E728
:101600002415030010B551283DD011D849282ED0FB
:1016100007D8422803D0482826D0012806D18B5C61
:1016200010E04F284BD017D84C2820D0002309E0D9
:10163000682816D00AD8642836D066282AD06228AE
:10164000F4D18B5601205B00184314E06C2803D0C2
:10165000712811D06928E9D19200505825F0BAF9C3
:1016600009E05200535EEDE75200535AEAE7920058
:10167000505825F0CAF910BDD2008A181068516878
:1016800025F099F9F7E7D2008A181068516825F01B
:10169000ADF9F0E70323920050589843030002206D
:1016A0001843084BC018E6E7D2008A181068516842
:1016B0001BF0D2FC032302009A431300EFE79200D1
:1016C0005058D8E700008080F7B51700156801AAC8
:1016D00004000E00FFF72EFF402C05D1019B043CB7
:1016E0005A1EAA185D4215405A213E3C6242624190
:1016F000B14289412B183B60D2B22B00494220F005
:10170000A9FF04000D004F2E08D0532E07D128F05A
:10171000DAFB0022010020000EF0C4FEFEBD662EA2
:1017200006D1032302249843154B2043C018F5E744
:10173000642E06D11BF090FC0323040002209C437E
:10174000F2E75A2E0FD980220023D20512196B41DD
:10175000002B04D1002A02DB25F03CF9DEE729004A
:1017600025F029F9DAE7002905D1064B984202D87D
:1017700025F04BF9D2E7290025F038F9CEE7C0462D
:1017800000008080FFFFFF3FF0B589B0160005AA7A
:1017900002931C6801900F00FFF7CCFE019B05002F
:1017A000402B06D1059B5A1EA2185C423C231440D4
:1017B0000193029A63191360019B3E3B03935A42C3
:1017C0005341DBB20293642F12D0662F0BD04F2F00
:1017D0002AD12800042D00D90420330022000299C8
:1017E00020F061FF2CE0300009F096FB0600F0E7E6
:1017F000300009F091FB1BF0DDFB029B0690079186
:1018000008AA9B00D318083B22001B6802990420F9
:1018100020F049FF039B04345A1E934108AA9B0001
:10182000D318083B1E68D4E7B3070BD1104B3268BE
:101830009A4207D123002A000299300025F097F838
:1018400009B0F0BD300009F003FB0600042DC0D93B
:1018500000215A2F02D9884200DAFF312A002000E5
:1018600028F0DDFA019B3E2BB3D12B1FE418B0E723
:1018700004C60200F7B506000F0014001D0064281E
:101880000DD0662804D04F2813D19400E35105E011
:10189000940018000F1909F03FFB3860F7BD1800DD
:1018A00009F03AFB1BF086FBE4003F1938607960D1
:1018B000F4E703232B40019311D10E4B2A689A427F
:1018C0000DD1019A01004020FFF734FE230043436D
:1018D0000200FB180199280025F049F8DEE72800EE
:1018E00009F0B6FA220003003900300020F0EEFEC5
:1018F000D4E7C04604C60200F0B58BB0079310AB26
:1019000010CB009001911B78062A12D8012A08D921
:101910003F230B700B0001330193002301990B70DF
:1019200001E0002AF9D101209042804140420BB0F1
:10193000F0BD0099002929DA019B01995F1C2D2334
:101940000B70802109068C46009B63440093019B29
:10195000FF210993009BC90518000840884222D145
:1019600020234E21079AF81C1A4013001143009AB5
:10197000540212D149225A403A704622534079709B
:10198000BB700023FB70019BC01AD0E7019F002BA6
:10199000DDD0390001370B70D9E74124634039703D
:1019A0007B70B970EDE7002C00DA06240199013A4A
:1019B0007D1A551B2022079911430291672940D1B6
:1019C000002C00D1CEE1002B79D0A64A934200D959
:1019D000D4E0A549009818F071FD431E98410023FA
:1019E0000026303003932033059004939F4B039AD5
:1019F0000099D05818F058FD002808D0049B039A8D
:101A0000F6189B4B0098D15819F0CEF90090049B22
:101A10005B100493039B04330393182BE6D1153317
:101A20000393009A8F4B93425DD38F49009818F02F
:101A300045FD002851D0002E7CD0FE239B0500934D
:101A400051E0002BC1D1029B662B38D1631CAB4205
:101A500000DBAC1E029B651C049300231E00039355
:101A60000593E343DB171C40049B652B00D0EEE09D
:101A7000651C00230693069B9D424CDD009819F0DF
:101A80009FFC7B1C0893030030333B70059A069B38
:101A9000934205D1002C03D0BB1C08932E237B70EE
:101AA00019F0AEFC011C009819F0B0FA714919F058
:101AB0007BF9069B009001330693089FDBE7631DCB
:101AC000AB4200DBAC1F029B652B00D1AFE00025D1
:101AD0000493039505952E00C3E70098654919F016
:101AE00063F901360090029B662B03D0672B39D136
:101AF000042E37DC059B3B70029B672B01D1731EC4
:101B0000E418631CAB4200DBAC1E002C15D166232D
:101B1000013703940493029B662B00D0B0E0012EA2
:101B200000DDDDE05449009818F0C8FC002800D022
:101B3000ACE0D5E02B2303937FE72E232500302252
:101B40007B70BB1C013E1F00002E76D0002D05D1FE
:101B5000039501235B42059367334DE01A70013D05
:101B60000133EFE76B1FA3426CDC029A672A66D051
:101B70001300AC1F00250493059572E7002300268F
:101B80000393203304933A4B039A0099D05818F0EA
:101B900081FC002808D0049B039AF618334B009868
:101BA000D15819F001F90090049B5B100493039B3A
:101BB00004330393182BE6D12E49009818F07EFCCD
:101BC000002805D000982D4919F0EEF80136009054
:101BD000029B662B12D1AE4214DAA3190133AB4239
:101BE00004DBAC1B023C631C00D10024002335192C
:101BF0000393013505966633049332E7029B652B08
:101C000000D0B1E06B1FA34200DCAC1F2B230025EA
:101C1000039305953A33EFE7231DAB4200DB6C1FBE
:101C2000029BA64200DBA3E0731CE41ADEE7029BE2
:101C3000002504932B2303934CE7039689E71C00AC
:101C4000029B97E70025029B059504930CE7049BF4
:101C5000672B00D00DE7251E00D00AE701252C00D8
:101C600007E7C046FFFF7F3FF8FF7F3F8CA30200DE
:101C7000A4A30200000020410000A040CDCCCC3D38
:101C80003E49009818F01AFC002824D030217B1E11
:101C90001A782E2A4FD010003038092842D9013343
:101CA0000193019B1B78302B15D1019A52782E2A73
:101CB00045D10499662942D001994B70039B0A7063
:101CC0002D2B3AD1013E002E3BD03B00019A9A4287
:101CD0003AD331231370029B672B01D1002C39D1E9
:101CE000039B002B19D02022079B0A2113401A00C6
:101CF000452313433B70039B30007B7018F084FA3C
:101D00000A2118F067FB3031B97030000A2118F051
:101D100061FB3C1D3031F970270000233B70099BAB
:101D2000F81A04E6392A02D001321A70B8E7019A8B
:101D300019709342B5D0013BAAE70136C5E70137D8
:101D4000C3E72B230393C0E75A1E117819701300C1
:101D5000BCE71F007B1E1A78302AFAD02E2ABFD18A
:101D60001F00BDE701242EE6029B672B00D153E73D
:101D700004932B2300250393FEE6C0460000A040F9
:101D8000C4600561466187614146C161494601629F
:101D900051464162594681626946C162714681601D
:101DA00000490847AD1D00000020C046024B9A685C
:101DB0000260986000207047782E0020024B9A68DD
:101DC00012689A607047C046782E00200E4A9368C9
:101DD000002B01D126F0D0F8196858609160181CCA
:101DE000C468056946698769C1698846016A894688
:101DF000416A8A46816A8B46C16A8D4681688E46F1
:101E000001207047FEE7C046782E0020054B10B534
:101E10009A6C002A04D00022986C9A64FFF7D6FFCF
:101E200010BDC046782E0020F8B5214E356869688F
:101E300001292DD9AA684B1ED05C0A2828D1002B75
:101E400001DC1C0009E0581E145C0A2CF9D00300C8
:101E5000F5E7105D202802D10134A142F9D8002B0A
:101E60000BDD601C814208D1581E002805D00138C6
:101E7000175C0A2F0CD0202FF7D05218023AE31A21
:101E800014789B083A3C624254411C19002C00D142
:101E9000F8BD084F04223900280021F002FE042179
:101EA000380013F03BF83369013C04333361EDE74C
:101EB000A8010020B89B030010B520220021024891
:101EC00027F0ADFF10BDC046D82E0020084B10B53E
:101ED000426818600020986018750138D8600800C2
:101EE0005A601A61996125F0B9FFFFF79DFF10BD97
:101EF000A8010020F8B503780400002B1ED0104D77
:101F0000286E002804D0210027F0D3FF002815D028
:101F1000200027F0D8FF471C380023F0FAFA061EED
:101F20000CD03A00210027F05EFF2A00054B5C32FE
:101F30001968043B99609342FAD12E66F8BDC046F9
:101F4000782E0020F02E0020F0B5B84C020020685A
:101F5000A568436885B00193002D00D0FDE0531EB5
:101F6000042B11D8636801998B4200D195E0012AB6
:101F700000D12AE1022A07D123696268934200D97D
:101F80004FE10122524288E0032A00D185E0042A71
:101F900000D12FE1052A00D107E1062A0ED12369DD
:101FA000019A9342AD416D42002DEADD236829007C
:101FB00098682369C01812F0B1FF1FE00B2A21D1E5
:101FC000019B2269991A21F02CFE2368019A5B6813
:101FD000934204D213002269981A12F0D5FF2268A6
:101FE000236951689068C91AC01812F097FF2368D6
:101FF00058682369C01A401B12F0B4FF23695D19A9
:102000002561BEE70E2A13D1E368002BB9DB013B43
:10201000E3606268019B991A21F003FEE368002BDC
:1020200018DB1633824A9B00D318996820680FE0AA
:10203000102A16D1E368062BA3DC5D1C7C4A1733FB
:102040009B00D318996800299BD06368E5604360C2
:1020500021F0ACFD63682269D61A22685568ED1A32
:102060000AE0152A0CD12369626861689A1A21F086
:10207000E0FD236962689E1A0127002E2FDCA4E789
:102080000D2A0DD16B4825F0E9FE206821F073FD83
:102090006368C018FFF72EFF0022100005B0F0BDE6
:1020A00001231B2A62D0082A01D07F2A20D121696E
:1020B0006268914200D864E700238668B618F75C2E
:1020C000202F13D101339F18B942F8D80426032BCF
:1020D00000DC033E891B320021F0ABFD01273000FC
:1020E00012F040FF23699E1B266178E00126F1E78C
:1020F000092A28D1636822698068D11AC0184E4A1B
:1021000003AB02F0CFF9061E00D13AE70027431CCB
:102110000BD1A06925F0A2FE63682269D11A22685A
:102120009068C01812F0FAFE4FE723692068F9188A
:10213000039B01375A1C03921A7821F060FDBE42BE
:10214000F3D1350041E71300203B5E2B00D918E79F
:10215000216921F05DFD012537E7012D08D1042318
:102160004F2A03D002235B2A00D00023A36008E794
:10217000022D20D11300303B092B03D803232275F5
:10218000A360FEE60023A360412A00D152E7422A61
:1021900000D139E7432A00D101E7442A00D1EBE618
:1021A000482A12D0462A00D0EBE60027019B22697C
:1021B0003E009D1A0EE00021032D29D17E2A24D154
:1021C000237D312B01D0372B0DD100252F00236922
:1021D00062689E1A0023A3609E4200DD7FE7002F05
:1021E00000D1E1E6F1E61A00FB25343A2A42DCD0C0
:1021F000332B0AD12169019B994206D2012221F099
:1022000018FD002501272E00E4E700252F00FAE73E
:10221000042D04D1462AC8D0482AD6D0A5E7A1600B
:10222000AFE6002501262F0059E7C046A80100208F
:10223000782E0020073F030010C4020010B50400F0
:1022400007F08AFC074B02001B690749074821F089
:102250007FFE03F033FA012C01D103F051FA044858
:1022600010BDC046782E00203115030010C40200B6
:10227000C8BE020010B508F0EBFD06F0A3F8014857
:1022800010BDC046C8BE020010B502F015FF0148DF
:1022900010BDC046C8BE020010B502F003FF0148E1
:1022A00010BDC046C8BE020010B586B0040005AB24
:1022B00004AA03A902A808F085FC059B029A0193D1
:1022C000049B064900930648039B21F041FE012C24
:1022D00001D108F0B3FC034806B010BD4615030059
:1022E00010C40200C8BE020010B5084C002805D179
:1022F000A834236801305B00184310BD086808F05B
:10230000A7FDA83420600248F7E7C046782E0020D9
:10231000C8BE0200F7B50D001100002206000092B1
:1023200028001F000B4B0FF0FFFB102023F0F1F8EB
:10233000041E08D1084B094A094C5A620023266042
:102340002000A360FEBD3900280000F0A1F9E06084
:10235000F4E7C046FFFF0000782E002000B4020022
:10236000902E002010B5013810C900F091F9E060FE
:10237000004810BDC8BE0200F8B57F2553B2040066
:102380000E0017001540002B0ADB6B1E012B07D82F
:102390000B68586822F025F90100200021F017FD94
:1023A000022D16D10F49200021F011FDF368002BFA
:1023B00002D05A68002A04D10B49200021F007FD01
:1023C000F8BD012A07D100229968200008F070FCAE
:1023D000F6E7002DEAD03A00F168200000F0FEF8A0
:1023E000EEE7C046D31603003C580300C368034819
:1023F0005A68002A00D098687047C046C8BE0200DC
:10240000136810B51400002B0AD00D4B994206D169
:102410000C4B52689A4202D10023C380236010BD46
:10242000094B994201D1C368F8E7084B02689A4208
:10243000F5D1074B9942F2D1FFF7D8FF2060EEE7C4
:102440004F020000C8BE0200630200005CB202003E
:10245000450300000EB470B5050087B0102023F0CE
:1024600058F8041E0BD11A4B1A4A1B4C9D61186276
:102470005A62200007B070BC08BC03B018470021A6
:1024800005608160012000F003F92521E06005006E
:102490000B9827F000FD061E09D10B9827F013FDBD
:1024A000320001000B980DF0FDFFA860E1E702A8E3
:1024B000102121F012FB0CAA0B9902A8019204F042
:1024C000C9FA02A90548E5680DF0B6FFEDE7C04678
:1024D000782E002000B40200902E002028DC02009C
:1024E00010B50300820708D1064A0168914204D161
:1024F000054AD9680120914203D00449180000F030
:1025000055FF10BD00B60200152300009CAE02006E
:1025100010B5040008F0B4FB034BC2689A4200D027
:1025200024690023A36010BD15230000F8B5160030
:102530001D0004000F0008F0A3FB154BC2689A426F
:1025400000D02469A068002811D10C3022F0E1FFEE
:10255000A06000280AD003236360E288A16893008A
:10256000CB180332E2801F605E609D60F8BDE38897
:10257000A18802338B42F0DB03318900012222F073
:10258000E6FF0028F2D0A388A0600333A380E4E72D
:102590001523000070B5150004000E0008F070FB54
:1025A000064BC2689A4200D02469A368002B02D16E
:1025B00033602B6070BDE2883260FAE715230000BB
:1025C000044B88600B60044B08004B600023CB6019
:1025D0007047C046D8C102007728020070B50E00CF
:1025E00010490400002521F0F2FB7368AB420AD8C1
:1025F000012B03D10C49200021F0E9FB0B492000FD
:1026000021F0E5FB70BD002D03D00949200021F029
:10261000DEFBAB00F31801229968200008F048FBAC
:102620000135E2E71783030091150300267E0300BE
:102630008E15030070B50D0001281ED0002803D0B0
:10264000022807D0002004E04B680E48002B00D180
:102650000D4870BD00260D4C6B689E4203D30120CF
:1026600064002043F5E7B300EB189968022003F0FB
:10267000FDF9401024180136EEE74B685B00184363
:10268000E7E7C0469CD6020094D6020000B40200E0
:1026900070B506000D000B48002E0DD0B41CA40030
:1026A000200022F029FF084B46600360002D03D074
:1026B0000023083CA34200D170BDE958C2189160C4
:1026C0000433F7E700B4020008B40200F0B50700D5
:1026D00085B00E0014001D2803D90025280005B080
:1026E000F0BD01238340324D1D4044D1314A134295
:1026F0001FD1F82292051342EFD0200008F0C0FA53
:102700002D4B426A9A4205D020002C4920F0B9FA9C
:10271000041E0CD023003100626808330092083197
:10272000726838000DF0C4F8254D0028D6D1254D2B
:10273000D4E7200008F0A4FA204900F037FE002872
:10274000CBD07368626829009818FFF7A1FF0700D3
:102750003100736808379A0005000831380027F007
:1027600042FB210070686368800038189A000831C5
:1027700027F039FBB2E703A9100008F0A7FB0025FA
:10278000A842ABD00398104D0028A7DD7368002144
:102790005843FFF77DFF05002B00300008330093FE
:1027A0000830039B7268042123F0B1FB96E7C04612
:1027B0008000100020000400C125000008B40200C1
:1027C0009CD6020094D6020000B4020030B504008A
:1027D00085B0042A2DD1032540680D401FD1164B2A
:1027E0000A689A421BD101AA0CF0E6FF002802D128
:1027F000124804F0C7F8019B02982900C01AFFF79D
:1028000047FF050021006B6808319A00019B0830E2
:102810009C00091927F0E7FA280005B030BD0A002E
:1028200000230100206808F0EBFB0230800005590E
:10283000F2E70025F0E7C04658D6020093150300E2
:10284000F0B50C001100002285B01E00009201239B
:1028500020000FF069F9184D002C1ED03568AB0729
:1028600003D1164B2A689A4217D0102022F044FE5A
:1028700000210400306803F061FA0025042603906B
:10288000039803F0BDFA071E0AD128002100FFF7C4
:10289000FFFE0500200022F05EFE280005B0F0BD1E
:1028A000AE4205D8F100200022F044FE040076007C
:1028B000AB001F510135E3E700B4020008B4020089
:1028C000FF230322DB05CB1810B59343042804D85B
:1028D00017F0FCFB06030F0416000021080010BDD2
:1028E0000021181C17F0C6FD0A490028F6D00A4935
:1028F000F4E7181C18F064FD012140000143EDE7E6
:10290000802109065B18022193431943034BC91820
:10291000E4E7C0469CD6020094D602000000808006
:10292000FF23DB0510B50400C818032398430023D8
:1029300086B00193063300931022613302A9FEF79B
:10294000DBFF02A9200021F042FA2E2102A827F085
:10295000A2FA00280FD1652102A827F09CFA0028CE
:1029600009D16E2102A827F096FA002803D1034965
:10297000200021F02CFA06B010BDC046519A030089
:1029800030B50C001100002285B01D00009201231B
:1029900020000FF0C9F8002C23D02868124B034008
:1029A000062B06D0032420420ED1104B02689A4217
:1029B0000AD103A90EF0CEF9002203990092130068
:1029C0000FF0D2F905B030BD03002340022BF9D03F
:1029D00008F0A2FA03000220A3431843044BC018D6
:1029E000F0E70448EEE7C046070080FF28DC02005D
:1029F0000000808002008080F0B5050087B01000E4
:102A0000019108F089FA041C0390681F182800D966
:102A1000BDE017F05BFB0D121F24333E6F81BCBC81
:102A2000BCBCBC0D121F24333E6F9FA8ADB2B700D3
:102A30000198211C17F046FE03E0211C019818F0B4
:102A4000E5FA019003230198524A9843013B03435E
:102A50009B187CE0211C019818F0A6F9F1E70021F1
:102A6000201C17F007FD002803D04B494B4820F0ED
:102A7000F4FF03A901A81FF064FFE3E70021201C75
:102A800017F0F8FC0028F0D1211C019817F0B4FFD2
:102A9000D7E70021201C17F0EDFC0028E5D1211C10
:102AA00001981BF089F80021041C019017F0E2FC4A
:102AB000002807D0039A0023002A01DA80231B068E
:102AC0000193BFE70021201C039E012717F0D8FCCB
:102AD000002800D1071C0021301C012517F0D0FC74
:102AE000002800D1051CFFB2EDB2AF42AAD0311CC4
:102AF000201C9FE7019D0021281C17F0BBFC00282B
:102B000005D00021201C17F0BBFC0028ADD1211CF2
:102B1000281C1BF035F994E70021201C17F0AAFCB3
:102B20000028A2D103A901A81FF00BFF0322022055
:102B3000019B1849934303435B180493039B9343FE
:102B400003435B1804A90593FFF7A2FD03001800D7
:102B500007B0F0BD0199201C17F0A6FC104B00280F
:102B6000F5D1104BF3E70199201C17F089FCF5E72C
:102B70000199201C17F07EFCF0E70199201C17F04A
:102B80009DFCEBE70199201C17F084FCE6E700238D
:102B9000DDE7C04600008080B2120300C4B302002B
:102BA0009CD6020094D60200F8B5124A0E00124BD1
:102BB000124990421AD0C4688C4203D0012430607C
:102BC0002000F8BD406B002812D004689C42F0D170
:102BD0000500002447680835BF00EF19BD42EFD259
:102BE000310001CDFFF7E0FF2418F7E70024E7E705
:102BF0000400E5E7D0B6020008B40200F12C0000A2
:102C0000F7B505000C00AB68002B0AD0344AE16828
:102C1000914206D0E358002B03D00422EB681A60DF
:102C2000F7BDA06B002820D06B680430D9000623C4
:102C3000002219430CF0BCFE002816D0297C426803
:102C4000EB682868002904D00100002002F09EFFF4
:102C5000E6E7002807D02249E5688D4203D02149E4
:102C60008C4200D000692100F0E72B68002B16D1C0
:102C7000646B002CD4D01C4B22681A4F9A420BD1A3
:102C800026006368194A08369B189B00F3180193C5
:102C9000019B34689E4216D3BC42B4D1C0E72A7C63
:102CA000002AE5D10E4AE1689142E1D00D4A9442F2
:102CB000DED01869EA68696802F0C2FFEB681B6839
:102CC000002BD5D0ACE7BC4201D10436E0E72100AF
:102CD0002800FFF795FFEB681B68002BF5D09FE7F6
:102CE000F12C0000D0B6020008B40200FFFFFF3F45
:102CF000F0B58FB00E0005A9019202930700FFF70F
:102D000053FF041DA400200022F0F6FB0500002163
:102D100080C023F07CF922002800103A10300021F6
:102D200027F07DF8012E05D1029B1B680393042B2D
:102D300000D186E007AC08220021200027F06FF8C0
:102D4000414A09A8002342600C2239008260C46015
:102D500003740993FFF754FF079804282ED10598B0
:102D6000029BC468019A3100A0472861280007F03F
:102D700087FFB84265D10023344A390009A8089377
:102D800007930B9309950A92FFF73AFF079B002BD5
:102D900057D00198304336D107AA010020F021FE18
:102DA00004002B4B9C424CD0200021F028FC2949E8
:102DB00002002948FFF74EFBFFF708F80028D5D09E
:102DC000019A324306D106AB0121069702F0C0FEFC
:102DD0000500CBE7019B5D00AD190135AD00280072
:102DE00022F08AFB2A1F0390029980C026F0FBFF85
:102DF000711C039B019A206802F0AAFE050003984B
:102E000022F0A9FBB2E7019B5C00A4190234A400E4
:102E1000200022F071FB22000700079B029903604B
:102E20000393089B083A4360083026F0DCFF3A0021
:102E30000199300020F0D5FD0400380022F08BFB12
:102E4000AFE728000FB0F0BD450200003D020000D2
:102E5000C8BE02001516030010B30200F0B51468D6
:102E600089B01700002C0ED1436803AD82686960F9
:102E7000596B0392AC60EF602C74002905D11149A5
:102E80002800FFF7BDFE09B0F0BD0F4B0A689A425B
:102E900010D14B6808310E000193019B9C42EED08B
:102EA000A300F1582800FFF7ABFE3B68002BEAD1E6
:102EB0000134F2E72800FFF7A3FE3B68002BE2D1C4
:102EC000DDE7C046D0B6020008B4020010B54A687B
:102ED000014921F03DF810BD0F170300F0B58BB08C
:102EE00005000E00140000210822684626F097FF16
:102EF0000021102206A826F092FF202307936B469C
:102F0000059508932968002C0FD1144B05A806934A
:102F1000FFF776FE0221009F042F12D1220031001C
:102F2000286908F01DF90BB0F0BD042C01D10C4B41
:102F3000ECE7932305A89B000693FFF761FE0321AE
:102F4000E9E7381EEFD002AB002202950396049405
:102F500002F0FEFD042CE6D00248E4E73302000054
:102F600039020000C8BE0200F0B51F4B8BB08200D2
:102F7000D35803AF0C00082200210600380001934B
:102F800026F04DFF019B05AD6B601423AB60002361
:102F9000280021680594EF602B74FFF731FE039839
:102FA000042805D12169300002F060FD0BB0F0BDAE
:102FB00000280AD0210020F00CFD022EF6D107F0E7
:102FC00073FF440001202043F0E7022E01D00020CF
:102FD000ECE7064B216828006B60FFF711FE3B68A9
:102FE000002BF4D16400EDE73CB60200350200008E
:102FF000F0B556425641032376428BB01E40294B12
:103000000C0001900021170003A80822F61826F0F2
:1030100006FF0823079303AB0893002305AD21683F
:1030200028002B7405940696FFF7EAFD039B002BFE
:1030300008D1002F06D11B4B216828006B60AF60C0
:10304000FFF7DEFD039804281AD1206907F018FE67
:10305000154BC2689A4211D1002F07D023685868D7
:1030600021F0BFFA0100019820F0B1FE80223A431E
:103070002169019807F01CFE0BB0F0BD3A00F7E79C
:10308000002805D0210020F0A4FC00220100F0E778
:10309000200021F0B4FA230002000449019820F036
:1030A00057FFE9E74A02000015230000C41503009A
:1030B00070B504000D000B4920F089FE69680022FC
:1030C000200007F0F5FD0849200020F080FEA968E7
:1030D0000022200007F0ECFD0449200020F077FEDC
:1030E00070BDC046CD1603008E1503001A170300ED
:1030F00010B5C468002C06D1426804490448FFF7A3
:10310000A9F9FEF763FEA04710BDC046D61603001E
:1031100010B30200F0B589B001AE040008220F0020
:103120003000002126F07BFE104B03A843600025F1
:10313000242321688360C66005740394FFF760FD53
:10314000019B1800AB4208D0042B08D1206907F07E
:1031500097FD3900436A2069984709B0F0BD3200F5
:103160002900280020F03DFCF7E7C0463E020000A1
:10317000F0B5154B89B016008200D5580C000C2212
:1031800000210700684626F04AFE182303A8456080
:10319000836000256B462168C36003940574FFF7C4
:1031A0002FFD009B042B06D132002169380003F06B
:1031B000FFF909B0F0BD181EFBD06A4629000120B6
:1031C000029620F00EFCF4E7B4B40200F0B517004C
:1031D0008C228DB00400920007A842600393102255
:1031E000002305AD0E0021688260C560037405935D
:1031F0006B600794FFF704FD0598002809D12000B3
:1032000021F0FDF90B4902000B48FFF723F9FEF707
:10321000DDFD039B042806D13A003100206902F04D
:1032200097FC0DB0F0BD009332003B0069681FF0C1
:10323000DCFDF6E7F915030010B30200F0B50D0050
:1032400085B001A907001600280002AA1FF033FB71
:1032500000230199029899422CD13C2022F05EF97A
:103260002A4B019A03602A4B04008360294B476074
:10327000C360294B0361294B4361294B8361294B6F
:10328000C361294B0362294B4362294BC362002A65
:1032900006D0029B1968096B0163012A18D945639E
:1032A000A66303A92000FFF77FFC012813D921485A
:1032B00003F03AFB9A008258D468002C06D1526879
:1032C0001D491E48FFF7C6F8FEF780FD0133C2E72F
:1032D0001B684363E4E7A36B0022181D18490CF038
:1032E00067FB051E0ED0032243681A400AD11968F5
:1032F000144B4968994205D1031D012112481FF062
:1033000026FC6860200005B0F0BDC04600B6020093
:10331000F12F0000F12C0000CD310000692F0000DA
:1033200071310000C12A0200DD2E000015310000BD
:10333000F72B02009F1603007616030010B302005D
:103340002E120000A602000088B5020037B50D005D
:103350001C000023110000930122033328000EF00B
:10336000E3FB012D04D0032D06D0074803F0DCFA5F
:10337000206807F085FC3EBD20680DF0B5F8A26816
:103380006168FFF75BFFF6E7F31603001FB5064B16
:103390000A0001934B6802938B68010001A8039314
:1033A00002F080FC05B000BDC4B50200F8B50E0007
:1033B00003271349134AB0421CD003003B401BD1E2
:1033C00004688C421AD1406B002814D003689342E1
:1033D000F1D1050044680C4B0835E418A4002C1901
:1033E0002868A542E5D23100FFF7E0FF002802D1AE
:1033F0000435F5E70120F8BD0020FCE71800FAE7E6
:1034000000B6020008B40200FFFFFF3FF0B585B030
:103410000500019108008B0717D10B68134A9342EE
:103420000BD10123029301AB03930024029E039F5F
:10343000A6420DD10E4805B0F0BD0E4A934204D10C
:1034400003AA02A91FF037FAEFE70B4803F06CFA62
:10345000A300F958094B994206D02800FFF7A6FFB0
:10346000002801D10134E3E70548E4E700B6020093
:1034700094D6020008B402003D160300D0B6020044
:103480009CD6020010B5830703D1054B02689A420F
:1034900002D0044803F048FAFFF7B8FF10BDC04659
:1034A00000B60200D6150300F7B5CC1CA400070037
:1034B00020000E00019222F01FF822000500054BAB
:1034C0004760866003600C3A01990C3026F08BFC53
:1034D0002800FEBD58B60200F0B50E001100002213
:1034E00085B0B71C03901C0030000D4B0092BF004C
:1034F0000EF01AFB380021F0FFFF466006000500C1
:10350000039B083F03600836E719BC4202D128003C
:1035100005B0F0BD002101CC02F010FC01C6F4E7BB
:10352000FFFF0000014B58687047C046782E00200E
:10353000014B18687047C046782E0020F0B5194E30
:1035400087B03368050000200C00019322F02DFBAA
:1035500030600090206820F035FA019B070033604E
:10356000114E022D03D0A06807F08AFB060021004F
:1035700063680831A81E0393FFF78AF8009B049044
:103580000593002203AB0321300002F0E1FA074B60
:1035900004009F4203D00100380020F024F92000ED
:1035A00007B0F0BD782E002000B60200C8BE0200B1
:1035B0001FB5694602F0C2FB0400200002F020FCA7
:1035C000002802D1044804B010BD07F07FFD002898
:1035D000F3D10248F7E7C0469CD6020094D6020019
:1035E0001FB5694602F0AAFB0400200002F008FCA7
:1035F000002802D1044804B010BD07F067FD002880
:10360000F3D00248F7E7C04694D602009CD60200E9
:1036100007B5044B019000226946022000930EF08A
:1036200019FA0EBD8612000010B507F0ADFB034B72
:10363000002800D1024B180010BDC0469CD60200E5
:1036400094D6020037B507F003FC01AB7F2806D8FB
:1036500001211870012218000CF024FF3EBD1E4904
:10366000820988420BD8402149420A431A703F22FE
:10367000024080204042104358704231EAE7174C24
:10368000010BA0420ED820246442214319708021EE
:103690005F344942224020400A43014399705A70E6
:1036A0000321D7E70E4CA04212D81024850C6442A7
:1036B0002C431C703F258024294064422A40284026
:1036C00021432243204359709A70D8700421C1E7E6
:1036D000044802F065FFC046FF070000FFFF00003E
:1036E000FFFF10001C17030010B5020002490A205A
:1036F00002F05EFF10BDC046D612000010B50200F9
:1037000002490A2002F054FF10BDC046CE1200004C
:10371000F0B589B0019204000D0000222F490198F4
:1037200002930CF045F90090002801D04368009303
:10373000012C16D0A4002B19002427000193019B13
:103740009D4224D0009B2E68002B04D0310018002D
:1037500020F03FF90600002C37D137002C680435E3
:10376000EDE7002404A9286802F0E8FA2700039096
:10377000039802F045FB051E0CD1002C07D1220056
:10378000174901980CF014F900281BD04468200058
:1037900009B0F0BD009B2E00002B04D029001800BA
:1037A00020F017F90600002C09D03A0031000298E9
:1037B00002F0FEFE0B4B984201D025003E002C008B
:1037C0003700D5E7084802F0EBFE3A0031000298D6
:1037D00002F0EEFE034B9842C1D1BEE75E16000038
:1037E000361400009CD602003D17030037B501A92E
:1037F00005000DF0AFFA1E4B04002B40062B05D040
:10380000AB072AD11B4B2A689A4226D10199200086
:1038100022F04EFA0190012822D1207843B2002BE9
:1038200004DB012023785B0018433EBD7F23013475
:1038300018403F3B034208D13F22237819009143AF
:10384000802905D023F0C6F8EFE798435B10F1E735
:103850008001134001341843EFE7019B012BE0D0B6
:10386000019A05490548FEF7F5FDFEF7AFFAC04697
:10387000070080FF28DC02005617030010B3020087
:10388000F0B5140087B00290039100222349200074
:103890000CF08EF800220500214920000CF088F879
:1038A00001230400049305931E4F002D07D0686880
:1038B0001D4B984203D004A90DF04CFA07001B4E93
:1038C000002C07D06068184B984203D005A90DF072
:1038D00041FA06000024029B154D9C420AD10023A8
:1038E000059A019300933100280004F08FFA0E48E6
:1038F00007B0F0BD002C07D00023049A0193009379
:103900003900280004F082FA0399A3000022C95864
:10391000280007F0CDF90134DDE7C0469E1800000D
:103920009E140000BB9B0300C8BE0200083F0300BA
:1039300010C4020010B5040086B06A4602A8102127
:1039400003F028F801222100684607F0B1F902A926
:1039500002480CF071FD06B010BDC04628DC020024
:1039600070B50C68E30726D4A30703D1174B226870
:103970009A4220D0012820D9486807F069FA060049
:10398000200007F0C9FA051C300017F039FD011CB2
:103990000F481AF0F5F9011C041C281C17F004FA52
:1039A00019F05EFE211C17F027F803230224984328
:1039B000084B0443E418200070BD200007F0ACFA67
:1039C00019F04EFE05F02AFD0400F4E704C60200DB
:1039D000000020410000808030B50B0085B014004D
:1039E000012802D9094802F09FFF09480121C26855
:1039F0000192019D0022A8472200039003A9012003
:103A00000BF0A0FC039805B030BDC046AA17030018
:103A100080DF020013B5040008000CF065FD6A4663
:103A20000100200002F00CF9009B0248002B00D19D
:103A3000014816BD9CD6020094D6020037B500247A
:103A4000022800D98C6848680D680CF04DFD0A4BBF
:103A50000100002C00D0094B6A4628009847009BC3
:103A6000002B07D001991C00002903D0180000F09A
:103A70002FFA040020003EBDA55C0000415C000060
:103A800070B50400080015000CF02EFD2A0001009E
:103A9000200002F02FF9014870BDC046C8BE0200E8
:103AA000F8B50326050007003540022D16D10E4B50
:103AB0000340062B12D0FF23DB05C418B443201C9F
:103AC000002116F0DDFC002806D080231B06E41838
:103AD000B443064B2C43E7183800F8BD38000EF00D
:103AE000BFFC0700F8E7C046070080FF00008080A9
:103AF0007FB50B00012803D10021186807F0F2F808
:103B0000102102A81FF0E9FF0C4902A81EF075FE63
:103B1000032804D10A481EF087FEFEF757F9039BDD
:103B20000193002B03D1042801D10648F3E702A931
:103B300005480CF081FC07B000BDC0463C580300AE
:103B40007CB00200D8AE020028DC020010B502F002
:103B50002FF9002804D103481EF066FEFEF736F95F
:103B600010BDC0465CB2020010B5022803D0054962
:103B700005481FF072FF4A680B20096802F018FD23
:103B800010BDC046901703006CB102007FB50E4D0A
:103B90000400A84214D00D4E01220100300007F0AD
:103BA00087F80B49300020F012F904238B2102938F
:103BB000084B0394DB6902AA8900074801939847E0
:103BC000280004B070BDC046C8BE020010C4020088
:103BD000083F0300F0C2020038B80200F8B50E003A
:103BE00000280FD10400284B1D680021080022F096
:103BF00063F900270600BD4232D10025AC423ED118
:103C00003000F8BD0868830714D103681F4A934247
:103C10000DD120F029F80500306807F031F81C4B71
:103C2000C26800249A42E0D134680434DDE7194ABE
:103C3000934201D007F024F8856B002DECD0164B91
:103C40002A689A42E8D00025E6E7EA68FB0099581E
:103C5000002904D0042902D030000BF013FB0137F7
:103C6000AB68BB42F1D8C8E7A268EB0099580029BD
:103C700004D0042902D030000BF004FB0135636846
:103C8000AB42F1D8BCE7C046782E0020F0C202005B
:103C9000F12C000000B60200B0DB0200F0B589B0E4
:103CA000002807D1664B6748196820F090F86648ED
:103CB00009B0F0BD0D68654B9D425BD10021080045
:103CC00022F0FAF8002405000590614B5A68019231
:103CD000944217D300255F4A05A901200BF032FB5F
:103CE00007AA06A9059822F0FEF8069B03339B0855
:103CF00001939B000393019B524EAB4210D1564956
:103D00003000D2E79B680193019AE300995800299B
:103D100004D0042902D028000BF0B4FA0134D4E70F
:103D20002F00AB000293079B029A98580CF0FCFFFF
:103D30000100300020F04BF8019BFF18069B9F42CA
:103D400012D212231C1A002C07DD013C07D2039A61
:103D5000029B944663440293E5E71234F3E73F493C
:103D6000300020F034F8F0E73D49300020F02FF823
:103D70000135C0E7280006F083FF3A4B42689A42BB
:103D800000D16D68280000F07DF8061E00D08EE797
:103D90002C4C3549200020F01AF83100280006F09C
:103DA000A1FF280020F02BFC30490200200020F069
:103DB000CFF8AB0732D12B682D4A93422BD1280084
:103DC0001FF052FF21F03FFF00250600A84200D15E
:103DD0006DE773689D4200D369E7B268EB00D318C2
:103DE0001F68002F15D05B682249200001931FF047
:103DF000EEFF0021380006F075FF1F4920001FF07C
:103E0000E6FF0021019806F06DFF154920001FF024
:103E1000DEFF0135DDE7194A934203D0280006F0A2
:103E20002FFF0500A86B002800D140E7830700D0D2
:103E30003DE7134B02689A4200D038E7C2E7C0461C
:103E40000400002010C40200C8BE02005617000083
:103E500014C20200BCDF0200D5170300BB9B0300A5
:103E6000083F03006E020000F91703000118030069
:103E7000F0C20200BA9B03001118030000B6020052
:103E8000B0DB020070B5040006F0FAFE00230C4916
:103E9000DA0052181568A54205D1516809481FF08B
:103EA00096FF012070BD0133612BF1D1064B9C427E
:103EB00003D0984201D00020F4E70449EEE7C04661
:103EC0002CBB020010C40200D8F502001618030033
:103ED00070B505000C200C0021F00EFB024B456074
:103EE0000360846070BDC04634BE0200F8B50E00A9
:103EF000050014000AF02AF8330003272B433B4245
:103F00000BD1BC4209D9A2083100280015F008F8ED
:103F10002300BB43ED18F6183C40002C04D02200CF
:103F20003100280025F089FB80220449D2008B58FB
:103F3000002BFCD009F0FAFFF8BDC04600E00140BC
:103F400010B502491FF043FF10BDC0461D3E0300DF
:103F500070B5150004001EF0E8FF2A000249200099
:103F60001EF0A1FF70BDC0460D2F020070B5437951
:103F70000D000024032B06D9836A074C9200E41A33
:103F8000C369D358E41803211EF0C0FF4470241203
:103F90000570847070BDC046FD7F0000F7B500233A
:103FA0000400617183608371E260036101330F007B
:103FB00015004361032906D80121836949429A000B
:103FC000C06925F02CFF0023A3622362AA8BEB8B30
:103FD000D218002A00D10132374E200031001EF0E5
:103FE00062FF2A8C310020001EF05DFFE368200094
:103FF000197D1EF084FFE3682000997D1EF07FFF8D
:10400000E3682000197E1EF07AFFE3682000997EA5
:104010001EF075FF042F24D1636A226A31009A1AB8
:1040200020001EF040FF3100EA8920001EF03BFF17
:104030003100AA8920001EF036FF0026AB8CB34267
:1040400014DCFF2120001EF070FF042F33D12B8BD6
:10405000E88AC018002398422DD0AA8C0021019232
:1040600024E0022120001EF03DFFDCE7AA6AF300F5
:10407000D3181A78032A03D1997820001EF055FF2F
:104080000136DBE70127AE6ACA00B21856783E4215
:104090000BD056889E4208D152680626D200324381
:1040A000666B99008A510133D5E70131019A8A4242
:1040B000E8DC024AF1E7F7BDE52E02005B020000F2
:1040C000F7B5234B0500A8331B680191022B0DD8CF
:1040D00047698F420AD2836A0269CF1B9C1A3B0050
:1040E000234304D1AB6A2B61019B6B61F7BD062FA3
:1040F00001D90F2C18D900941F2C01D91F2300932C
:10410000009B00269C4203D83E00032F00D90326C3
:10411000012128001EF0E6FE009A7301134303708C
:10412000009BBF1BE41ADAE70A4B3E009F4200D90E
:104130001E00022128001EF0D5FE70223309134014
:10414000F03A22431343037046700094E8E7C046F8
:10415000782E0020FF07000070B50D00012104003B
:104160001EF061FF0E2D14D00F2D17D010210D2D34
:1041700010D0172120001EF0D8FE0322A36A0421CC
:1041800003339343A36220001EF0C0FE044B036080
:1041900003E0112120001EF0C8FE70BD1221F9E7D6
:1041A000BCE40200F8B5174F05000C0016000F40E4
:1041B000002A1AD111001EF036FF23040FD5322138
:1041C00028001EF0B2FE322128001EF0AEFE322181
:1041D00028001EF0AAFE322128001EF0A6FE3A009A
:1041E00035212800FFF7C2FEF8BD3A004621FFF74F
:1041F000BDFE7F23210A99433143C9B228001EF036
:1042000094FEF1E7FF7FFFFF10B50400082021F0C6
:1042100073F9024B4460036010BDC04638BF020012
:10422000F7B50600194D0C0028001CF0F5FD310013
:1042300017481CF077FD17481CF0EEFD16481CF0DF
:10424000EBFDFF239B00E61821787F2901D0A642D1
:1042500006D128001CF0E0FD10481CF0DDFDF7BD84
:104260006278A37850290CD80D48475C0D48405C13
:10427000019300923B0002000B481CF053FD0434F4
:10428000E2E70A481CF04EFDF9E7C046D53E0300C0
:10429000023F03000A3F0300933E0300B13E0300C8
:1042A000E1570300905703002B3F03004E3F0300EC
:1042B000F0B51D0087B006001A4817000C001CF06E
:1042C000ABFD290018481CF02DFD18481CF0A4FD7A
:1042D00017481CF0A1FDAD006519AC4204D111488E
:1042E0001CF09AFD07B0F0BD3878A27804902068E1
:1042F00023780003400E0390E0789B0600090290AB
:1043000020883178C004400E0190E0789B0E0007B1
:10431000000F0090120907481CF004FD0434013618
:104320000137DAE7D53E0300223E03004F3E03008B
:10433000813E0300B33E0300F7B503780400002B71
:104340001FD0402B20D101230193002304221E0003
:104350001D00190094462278002A3ED1013200291E
:1043600010DC002D0EDC002E0CDC033B934209D93F
:10437000013C23785C2B05D00199002901D00A2B40
:1043800000D100221000FEBD3F491FF02EFA002888
:10439000D9D13E4920001FF028FA0028D3D13C494A
:1043A00020001FF022FA0028CDD13A4920001FF04A
:1043B0001CFA0028C7D1384920001FF016FA00283F
:1043C000C1D1364920001FF010FA0028BBD1344972
:1043D00020001FF00AFA0190B7E76778272A11D169
:1043E000002B4DD0032B09D1272F05D1A278272AE6
:1043F00004D10234243AD31A0134ACE7012BFBD8A0
:104400000122F8E7222A11D11A006046824309D11D
:10441000222F05D1A278222A02D102346246EAE78D
:10442000002B01D0022BE7D10222E4E75C2A0AD15B
:10443000272F03D0222F01D05C2F04D11A00571E42
:10444000BA41A418D8E7002BD6D15B2A12D006D8DF
:10445000282A0DD0293A57425741C91BCCE77B2A5D
:104460000AD07D2A0AD05D3A57425741ED1BC3E777
:104470000131C1E70135BFE70136BDE7013EBBE7CA
:10448000272FBDD1B2E7C046F18F03007B3F030069
:10449000813F0300853F03007876030005A50300F4
:1044A000F3150300F0B58BB0079343180390049203
:1044B00001930093009B5C1E039BA34201D90093D0
:1044C00010E020780AF02AFC002801D00094F1E7DF
:1044D00020780AF02FFC0028F8D123785F2BF5D044
:1044E0002E2BF3D07D4B1D68009C019B9C4202D279
:1044F00023782E2B21D1009BE71A019B9C4241D3AC
:104500000024260002940194AB68A34256D8019B74
:10451000002B00D084E0009B039A93422FD1704C73
:104520003A002100180025F04FFC002827D1079BF6
:10453000E41907301C60C01B22E00134D5E70136C6
:10454000AB68B3421BD9F3000293EB68F2009858B2
:104550000028F4D00428F2D009A90CF0FBFB099B39
:104560000100BB42EBD13A00009825F0B3FC0028D3
:10457000E5D1EB68029A9B185868002804D1002006
:104580000BB0F0BD0026DBE7032318420CD1036813
:10459000544A934205D11FF067FB0500631C00934A
:1045A000A2E7514A934201D006F06AFB856B002DC9
:1045B000E5D04E4B2A689A42F0D0E0E7EA68E30083
:1045C000985800281CD004281AD009A90CF0C2FB66
:1045D000099B06900593BB4212D301003A00009854
:1045E00025F078FC00280BD1029B002B12D03B0059
:1045F0009E4202D3059A9A4204D2019B0133019351
:10460000013481E7029AD15C069AD25C914205D1CD
:104610000133EDE7069B059E0293EEE71E00ECE7F3
:10462000019B012B01D0BE4254D9029B079ADB1992
:104630001360F01BA4E7029BEA68DB00985800288F
:104640003AD0042838D009A90CF084FB099B0390C8
:104650000593BB4230D301003A00009825F03AFCA4
:104660000190002828D133000F220F33DC171440AB
:10467000E41824112401A41B012C00DC1034059A39
:1046800033199B18402B0DD9039A194904981FF030
:104690005FFC099E10E0174904981FF098FB019BEE
:1046A00001330193019B9C42F5DC039904981FF0B0
:1046B0008EFB099BF6183619029B01330293AB68F7
:1046C000029A9342B7D80C4904981FF080FB01204E
:1046D000404255E7002340260293F0E7782E002061
:1046E0006F3F0300F0C2020000B60200B0DB020020
:1046F000773F0300BB9B0300083F0300F7B5456805
:104700001600A8681F00019122F0BCF80400A868F8
:1047100022F0BEF822F0B6F8030003205843073415
:104720000019800020F0E8FE074B040003606B686E
:104730003200436000238560C36001993B0008306C
:104740000DF062FC2000FEBDB8BF020070B5050090
:1047500088680C001FF0BCFC2300020002492800FE
:104760001FF0F6FB70BDC046A93F030010B502481C
:104770001EF05AF8FDF72AFB5CB2020010B50400E7
:10478000082020F0B9FE024B4460036010BDC04613
:10479000F4BF0200F7B5C56804001E00002D02D169
:1047A0001D602800FEBD03691830834205D1184BF7
:1047B000994203D0174802F0B7F819602000164F4D
:1047C00011007B680830019363687B6002F01CFA7B
:1047D000019B05007B60012807D002280CD0002334
:1047E000E36023691B683360DBE723691B68336080
:1047F000002BD6D1E360D4E7A368986822F042F892
:10480000002305308000E36024186368EBE7C046AE
:10481000C8BE0200C73F0300782E002013B501ABCD
:10482000FFF7B8FF01280ED0104C02280DD0019BD5
:10483000A34219D0002B17D001AA01210C481DF06A
:10484000EDFFFDF7C3FA019816BD019806F018FABE
:104850000749FEF7ABFD002801D10198F1E7019867
:10486000FDF7C4FDA042F8D10020EDE7C8BE02006C
:104870005CB2020010B50B00022808D14A68054955
:104880001868FFF7CBFF002803D1FFF76FFF8A6896
:10489000F5E710BDC8BE020010B500220149FFF7C0
:1048A000BDFF10BDC8BE020013B5114C01AB114ACB
:1048B0002100FFF76FFF012803D0022805D0200058
:1048C00016BD0D490D481FF0C8F8019806F0D8F93B
:1048D0000B49FEF76BFD0028F1D1019806F0D0F9E5
:1048E0000849FEF763FD0028E9D10198FDF76EFA4B
:1048F000C8BE0200C8AD0200893F030020B202001A
:1049000050AF02005CB202000139C9B2054B401839
:1049100080301970044A03781370044AD25C044B47
:104920001A707047C82D0020C92D0020BC5103000B
:10493000C72D00200131C9B2054B401880301970D5
:10494000044A03781370044AD25C044B1A7070470F
:10495000C82D0020C92D0020BC510300C72D002008
:10496000074B984206D9074B1818074B4118C9182E
:1049700008787047054B18184118054BF7E7C046F3
:10498000A4920000FD4F03005B6DFFFF1140030088
:104990000083FFFF03002022F0B57F254F265F270D
:1049A000803304001A7089B003007F3019780A0040
:1049B0002A406F2A26D90A003A4019000133813172
:1049C0000A709842F2D17F22B64B1A702300643AE3
:1049D000FF331A70E4320292531CB348DBB20493E3
:1049E0000370E31880331B78B0490B705B2B0ED13A
:1049F0009B22029B0A700133DBB20370E254012058
:104A000009B0F0BD5F2AD8D90A003240D5E72E2B75
:104A100013D10232D2B20270A21880321278A148A9
:104A20000270A348825C0120024206D1029A0B70F8
:104A30001218D2B20292A354CEE10220994A137006
:104A40009B4AD25C104000D0A1E0002A15D19648C4
:104A5000203203780A70E31880331A70029B013306
:104A6000DBB202930370782B01D8E254B4E19B23AC
:104A7000029AA354049B0B70C1E716007F2552B223
:104A8000AE430E70002A03DB8A4B8B4A1A60B7E7ED
:104A9000413B8A4ADBB28A49D25CCB5C12021343A7
:104AA0000393039B002101339BB218000393FFF78C
:104AB00057FF0306F5D5012300260127794D2B70FA
:104AC00039000398FFF74CFF7B1CDBB201932828C9
:104AD0005FD1002E00D02F702D780135EDB2290066
:104AE0000398FFF73DFF6B1CDBB2292854D17F26CA
:104AF000069306990398FFF733FF069B3040013376
:104B0000DBB23D284AD10026684B049A1870664BE8
:104B10001A70644B019A1A70049B0593059B0199C6
:104B2000E31880331B7803980793FFF719FF079B5F
:104B30009842B6D1019B0133DBB20193AB422FD136
:104B4000002E02D0584B059A1A70049D013FFFB207
:104B5000544B390003981F70FFF702FF534E0306B2
:104B600000D509E1504B7F211870514B1B5C1A0096
:104B70005BB28A433270002B18DA4B4B013DEDB229
:104B80001D70631980331B789842DFD089E74D4B45
:104B900086E70126019F93E71D00A0E70693A8E79B
:104BA000059B01260133DBB20593B7E7307020285F
:104BB0001BD0232825D02E282CD0262832D04028C0
:104BC0004ED05E2856D02B285CD03A2800D02EE15B
:104BD000202629002000FFF797FE344A137833403F
:104BE0001370B3D0304B1D78F3E729002000FFF796
:104BF0008BFE0023F356002B00DA52E72A4B1D7878
:104C0000A4E729002000FFF77FFE402233781342FB
:104C1000F4D146E729002000FFF776FE33781B0722
:104C2000ECD43EE729002000FFF76EFE1022337817
:104C300013403370E2D11C4B1B78E11880310978A6
:104C40003170482900D02CE7013B1749DBB20B70CB
:104C5000E31880331B789343432B00D021E7CDE743
:104C600029002000FFF750FE0422337813403370F0
:104C7000C4D116E729002000FFF746FE33789B06D3
:104C8000BCD40EE7084B013DEDB21D7065198035AF
:104C90002B78452BB2D010229343492B00D000E74C
:104CA000ACE7C046C92D0020C82D0020C72D00202C
:104CB000BC51030008000020FD3F030042520300E6
:104CC00028520300A59200006B1C924ADBB21370BD
:104CD000E31880331B7890490B70452B36D1A81C04
:104CE000C0B2231880331B788C4E33708C4EF6562E
:104CF000002E02DB874B1D783FE010700B70522BAB
:104D0000F8D0532BF6D0442BF4D04C2B08D10335DC
:104D1000EDB21570651980352B78592BEAD0C0E6B5
:104D2000462B00D0BDE6EB1CDBB21370E3188033DA
:104D30001B780B70552B00D0B3E60435EDB215701F
:104D4000651980352B784C2BD4D0AAE6492B00D09E
:104D5000A7E6AB1CDBB21370E31880331B780B7033
:104D60004E2B00D09DE60335EDB2157065198035E8
:104D70002B78472BBED094E6059D019B0398013309
:104D8000DBB20193019A654B11001A70FFF7E8FD41
:104D9000019B069A5F4F934220D100257F272E006A
:104DA00001990398FFF7DCFD03003B403D2B04D045
:104DB000029A0132D2B20292A354019A0132D2B2C3
:104DC000010600D4A2E0002E02D0544A01991170CD
:104DD000514A1370059B0493049AFDE5504B7F21C3
:104DE0001B5C4D4E1A005BB28A4338703270002B48
:104DF00008DA0135EDB2631980331B783D708342C8
:104E0000BBD04EE63070202816D023281ED02E2886
:104E100026D026282DD0402848D05E2851D02B28D7
:104E200058D020263A2864D0252800D14CE73D4BA5
:104E30003D4A00201A60E3E529002000FFF77AFDD3
:104E40000023F356002B00DB54E72AE6290020005C
:104E5000FFF770FD40223378134200D04AE720E686
:104E600029002000FFF766FD33781B0700D541E7D6
:104E700017E629002000FFF75DFD1022337813406C
:104E8000337000D036E73B78E11880310978317013
:104E9000482900D005E60133DBB23B70E3188033CC
:104EA0001B789343432B00D0FBE523E72900200028
:104EB000FFF740FD042233781340337000D019E728
:104EC000EFE529002000FFF735FD33789B0600D57C
:104ED00010E7E6E50135EDB23D70651980352B78B8
:104EE000452B00D106E710229343492B00D0D8E58B
:104EF00000E729002000FFF71DFD074A1378334023
:104F0000137000D139E7034B1D78F2E701920126B7
:104F100046E7C046C82D0020C72D0020C92D00201F
:104F2000BC5103000800002007400300F7B50191C1
:104F300011490400170000251EF049FF7B68AB42B1
:104F400004D80E4920001EF042FFF7BD002D03D00B
:104F50000B4920001EF03BFF019BAE009A59094906
:104F60002000BE191EF0F4FF0122B168200005F0F8
:104F70009FFE0135E2E7C04617830300267E03004B
:104F80008E1503005C520300F7B52D4FB43701971F
:104F90002B4A2C49FC32536C8B4200D8F7BD0325B9
:104FA000043B53641A68264B501CAC331E68040043
:104FB0008108715C2C4064002141831A2940013032
:104FC0000229F4D003260199120109681B018A18ED
:104FD0001B499B08002BDBD00F201468044229D109
:104FE00019480068A04225D80D00B8352D68A542A3
:104FF00020D9241A200900900800AC300068A409C8
:10500000009D0419207835406D00844628413040C9
:1050100001280FD13700AF403D0067463D43257062
:105020000D00FC356C6C094FBC4206D2201D686433
:1050300000982060013B0432CCE70C00BC34F8E758
:10504000782E0020382F00202C2F0020B82F002091
:105050000F23994370B506000D00081A412115F081
:1050600049F80F4C02002300B033186023002100E0
:10507000AC331E608301EB1AB4310B6023003000A7
:10508000B83300211D6024F0CAFE8023FC345B028B
:105090000122A36400235242E3642265636570BD6C
:1050A000782E0020A222034952008B5A01338B52E2
:1050B0007047C046782E0020A222034952008B5A26
:1050C000013B8B527047C046782E0020A223034A32
:1050D0005B00D05A431E9841C0B27047782E002022
:1050E000F7B504000325890043180193019B9C42F6
:1050F00000D1F7BD0F232168194229D1184B1A009E
:10510000B43212688A4223D81800B8300068884246
:105110001ED9891A1A000F093800AC3212688909A1
:1051200051180A7828404000944602412A40012A3A
:105130000ED12E00864030006646304308701800BD
:10514000FC30416C074EB14206D20B1D43640F6028
:10515000FFF71AFF0434C9E7BC331A60F8E7C0460A
:10516000782E0020B82F0020A22210B50848520047
:10517000835A01000133835203000022FC33BC3107
:105180000A60DA64034A27215A64FFF7A9FF10BDB9
:10519000782E0020382F0020F8B503262E4C00254D
:1051A0002200BC321368AB4213D10222190003273C
:1051B00094462200B0321268920091422AD3230012
:1051C0000022FC335A654532FF32A35A013BA352F9
:1051D000F8BD23001560214AFC335A642300B03324
:1051E0001B689B009D42D9D22200AC321268AB08EA
:1051F000D35C2A003240520013413340032B07D1C5
:105200002200FC32536C191D51641D60FFF7BCFE77
:105210000135E3E72000AC3000688A088018027886
:105220000D0016003D406D002E413E40022E09D07B
:10523000032E0BD0012E07D13B00AB409A430270E6
:10524000012301E0002BF7D10131B2E76346AB4007
:105250009A4302700023F7E7782E0020382F0020B1
:10526000334BF0B51A001900B832B431096812682E
:10527000521A1900B0331E68026003230022AC31B9
:105280000F68140011009C4642608260C260026197
:1052900042618261B60065468B08FB5C0D406D0083
:1052A0002B4165462B404568012B33D0002B2BD07A
:1052B000022B32D001318E420AD065468B08FB5C4E
:1052C0000D406D002B4165462B4001D0012BE2D1F2
:1052D000012C26D10569013505618569A54200D2F9
:1052E00084618E4201D0012BD5D1C368934200D294
:1052F000C2608E4206D143681B01436083681B0174
:105300008360F0BD0022C6E7846801320134846006
:105310001C00CFE701354560FAE7013545600134EF
:10532000C8E7022CD9D1456901354561D5E7C046AA
:10533000782E0020F7B50F300309019302D1002425
:105340002000FEBDA223474A5B00D35A002BF6D1B2
:105350004733FF33D35A5E425E41002B07D0414BA7
:10536000FC33DA6C1B6D9A4201D300F09DFA0024E5
:1053700030213F273B4A3B4BB0321268FC33944606
:10538000384A5B6DAC3210689C4505D8002ED6D1EA
:1053900000F08AFA0136EBE70325C25C2A4231D1DC
:1053A000019D0134A5422ED89B00191B4E1C5A1C8E
:1053B000012C03D12B4C9708FC346765B408001905
:1053C0000324270037407F00A446023CBC400778F6
:1053D00002313C43234F0470AC378B4234D2214915
:1053E000204DB431FC350C68E96C33018C46E4186F
:1053F000019B921B6344120100212000EB6424F006
:105400000EFD9DE700240C252A4206D1019D0134A2
:10541000A54203D89B000133C7E700240A4206D106
:10542000019D0134A54203D89B000233BDE700244F
:10543000BA4306D1019A0134A24203D89B00033338
:10544000B3E7002401339FE73C68880820186446CE
:1054500002250C406400A5402C00057801312C4346
:105460000470BAE7782E0020A22230B5164B520005
:105470009A5A002A26D1002824D01A00B432126881
:10548000801A1A00FC32546D01098009A04200D232
:105490005065AC331800032204688B08E3180C0035
:1054A000150014406400A5401C780131AC431C7009
:1054B00004688B08E35C0C00144064002341134033
:1054C000022BE9D030BDC046782E00200F22030009
:1054D0000240002070B5824228D1154C10002100F6
:1054E000B4310968994221D82000B830056810000D
:1054F0009D421BD9AC345B1A246819099B09E55CF1
:105500000800032318404000054110001D40012DF4
:105510000CD14D1C2E00AA08A25C1E407600324120
:10552000681A1A400135022AF4D0000170BDC04645
:10553000782E0020F0B585B007000D0002920028FB
:1055400007D101002800FFF7F5FE0600300005B086
:10555000F0BD002903D1FFF787FF2E00F6E70F21EA
:1055600000260140B142F1D153480E000300B4338C
:105570001B68BB42EAD80200B8321268BA42E5D9C9
:10558000FB1A1A0900920200AC3212689B090192C0
:10559000D25C0323009C23405B001A4103231A4082
:1055A000012AD3D14233FF33C35A002BCED1290075
:1055B0000F310909B0308C46016803268900039138
:1055C000210014000131039A914212D201988A08F5
:1055D000825C08003040400002413240022A02D181
:1055E00001340131EFE7002A03D10133E2186245AB
:1055F000F7D3644501D13E00A8E7644521D9009B5B
:10560000032663441900009B0800E218AC239C4663
:10561000294B9C44634605001B6884081C19330011
:1056200035406D00AB40257801309D432570904298
:10563000F0D1214B8908FC335A6D9142DBD2596578
:10564000D9E71B19634523D3032502261A49009B7A
:10565000AC31E3180191009A62449A4209D863463A
:10566000191B090120010A003818002124F0D7FB7A
:10567000C1E70199180009689A088A183100284082
:105680004000814008001178013308431070E2E7C0
:10569000029E002E00D159E700212800FFF74AFEA4
:1056A000061E00D152E72201390024F09CFB38008D
:1056B000FFF7DAFE4AE7C046782E002010B58CB01E
:1056C00005A8FFF7CDFD079B0A4C03930093059AAD
:1056D000069B094920001EF03BFC089B099A019398
:1056E0000B9B06490393009320000A9B1EF030FC9D
:1056F0000CB010BD10C402009F520300C252030040
:10570000F8B5434E434F3300B4331A68424938006A
:105710001EF01EFC00243300B0331B689B00A34224
:1057200023D93F2214422CD132002500AC3210681C
:105730000321AA08825C294049000A4103210A4248
:1057400002D10135AB42F3D12A1B7F2A12D992092B
:10575000324938001EF0FCFB2C003F239C433300F1
:10576000B0331B689B00A34204D838002C491EF0BC
:105770002EFBF8BD2B4B22011A402B4938001EF09E
:10578000E7FB3200AC321268A308D35C032222404C
:1057900052001341032213403A32022B31D03032EF
:1057A000032B2ED03F3A012B2BD13300B4331B688F
:1057B0002201D3581D4954228B4222D01C49083A59
:1057C0008B421ED01B49083A8B421AD01A490F321D
:1057D0008B4216D019498B4213D01949123A8B4289
:1057E0000FD018498B420CD0174905328B4208D094
:1057F0001649043A8B4204D0154926328B4200D117
:105800001B3A144938001EF0A3FB013483E7C0465D
:10581000782E002010C40200605203007B52030067
:10582000083F0300F0FF0F009752030008B4020086
:1058300080DF0200B0DB020028DC020084E202000C
:10584000D4C3020098C3020078B4020054C402001A
:10585000F0C20200D491030037B50400A06800F044
:10586000CFFA019000280ED06568074B9D4205D005
:1058700001AB00220121280000F06AF905F026FCA6
:105880000028EBD001983EBDC8BE0200004870471A
:105890000148E80110B505F0DBFA80F310880148F3
:1058A00010BDC046C8BE020000B58BB0FFF75CFC5F
:1058B00068461EF008F8054BD968091A8908FFF7F1
:1058C0000FFCFFF769FC0BB000BDC046782E00202E
:1058D00010B504000C201FF00FFE034B4460036062
:1058E00001235B42836010BD58C1020070B505F012
:1058F000BBF80F4C0F4B0025A3620F4BE5626363AF
:1059000023002563A83303210C481D60A56409F01A
:1059100083F90B4E0121300009F07EF93000094A6D
:10592000094920F07BF926606660E56570BDC046D8
:10593000782E00207CB0020000B40200B02E0020BF
:10594000C42E0020161200002612000070B5062496
:10595000134EC3001C437368002205002100181D6C
:105960000AF026F8021E18D1F06D002807D0043086
:1059700021000AF01DF8002801D0406870BD002207
:10598000210008480AF014F8021E06D12A00064930
:105990000648FCF75FFDFCF719FA5068EEE7C046D1
:1059A000782E002044B802000154030030B10200F8
:1059B0000A4B10B5040018685B6898420AD00621AB
:1059C000E30019430430002209F0F2FF002801D05F
:1059D000406810BD2000FFF7B9FFFAE7782E0020DD
:1059E000074B10B5D86D002801D1064810BD043012
:1059F0000022054909F0DCFF0028F6D04068F5E7F1
:105A0000782E00200CB702007E1100000A00C100B1
:105A1000062010B5024B0143186820F0FFF810BDB6
:105A2000782E0020062110B5034BC00001431868F2
:105A300020F0FEF810BDC046782E00200A00C100FC
:105A4000062010B5024B0143586820F0E7F810BD5E
:105A5000782E0020062110B5034BC0000143586882
:105A600020F0E6F810BDC046782E002037B50500BE
:105A70000C00062806D1080005F028FB00280DD0F0
:105A80002C483EBDCB071BD54B10042816D814F06C
:105A90001DFB03154E4E0700002BF1D02648F0E702
:105AA000C0221206934204D18020C00520F092FF4C
:105AB000E7E75B425B0001201843E2E7DB43F9E7DD
:105AC00002281AD11D4B0B40062B08D08B0714D18E
:105AD0000A681B4B92699A420FD1486802E0C808D5
