:020000040000FA
:10000000004000207D9E0100B99E0100BB9E0100C2
:1000100000000000000000000000000000000000E0
:10002000000000000000000000000000BD9E010074
:100030000000000000000000BF9E0100C19E010002
:10004000C39E01002D2E010051970100C39E0100A7
:10005000C39E010000000000B5980100C39E01008E
:10006000D15C0000F59A0100C5950100C39E010016
:10007000C39E0100C39E0100C39E0100C39E0100F8
:10008000C39E0100C39E0100C39E0100C39E0100E8
:10009000C39E0100718F01004D8F01000D5E0000B5
:1000A0001D5E0000C39E0100000000000000000073
:1000B0000000000000000000000000000000000040
:1000C00010B5064C2378002B07D1054B002B02D02E
:1000D000044800E000BF0123237010BD2001002070
:1000E0000000000028A50300044B10B5002B03D02E
:1000F0000349044800E000BF10BDC04600000000F6
:100100002401002028A50300164B002B00D1144B1E
:100110009D46402292029A1A924600218B460F4633
:100120001348144A121A29F080FE0F4B002B00D0FE
:1001300098470E4B002B00D0984700200021040068
:100140000D000D48002802D00C4800E000BF20F050
:10015000CBFD2000290029F0AEFB20F011FDC046A8
:100160000000080000400020000000000000000027
:1001700018010020E02F0020000000000000000017
:1001800000237F2803D8034B1B5C9B07DB0F180061
:100190007047C046BE12030000237F2803D8034BDC
:1001A0001B5C1B07DB0F18007047C046BE12030024
:1001B00000237F2803D8034B1B5C5B07DB0F180071
:1001C0007047C046BE12030000237F2803D8034BAC
:1001D0001B5C5B06DB0F18007047C046BE120300B5
:1001E00000227F2808D8054B0132195C0C231942E4
:1001F00002D15F384242424110007047BE120300F4
:1002000000237F2803D8034B1B5CDB06DB0F1800A1
:100210007047C046BE12030000237F2803D8034B5B
:100220001B5C9B06DB0F18007047C046BE12030024
:1002300010B50EF0BFF905491AF0BCFD032302000A
:1002400002209A43024B1043C01810BDE02E6542B5
:100250000000808010B50EF0ADF905491AF0AAFD36
:100260000323020002209A43024B1043C01810BD22
:1002700035FA8E3C0000808010B50EF09BF9011C11
:100280001BF08EF8024B002800D1024B180010BD65
:100290008CB8020084B8020010B50EF08BF944004F
:1002A00064080849201C1BF07BF8002805D105498B
:1002B000201C1AF0FFF8002801D0034810BD0348A5
:1002C000FCE7C046FFFF7F7F84B802008CB80200C5
:1002D00010B50EF06FF9034B034002201843024B98
:1002E000C01810BDFCFFFF7F0000808010B50EF02D
:1002F00061F9440064080849201C1BF051F80028EB
:1003000007D10549201C1AF0CBF8002801D1034879
:1003100010BD0348FCE7C046FFFF7F7F8CB802009A
:1003200084B802001FB5002301930EF043F901A920
:100330001DF07EF903220300022093430649034384
:100340005B180293019B934303435B1802A9039339
:1003500003F0CCF905B000BD0000808070B50D0041
:100360000EF028F9041C28000EF024F91BF02EF8DA
:100370000100201C1DF038F90323020002209A43DB
:10038000014B1043C01870BD000080801FB50023D2
:1003900001930EF00FF901A91DF0FCF803230224CC
:1003A0009843074B2043C0180290019822F09CFA12
:1003B00002A90390200003F099F904B010BDC046D3
:1003C0000000808070B50D000EF0F4F8041C2800C9
:1003D0000EF0F0F8011C201C1DF0F4FB03230200BA
:1003E00002209A43014B1043C01870BD000080806A
:1003F00070B50D000EF0DEF8041C28000EF0DAF8DF
:10040000C00FC30760004008184303230224984329
:10041000014B2043C01870BD0000808070B50D00F6
:100420000EF0C8F8041C28000EF0C4F8011C201CB3
:100430001DF050FB0323020002209A43014B10439E
:10044000C01870BD0000808010B50EF0B3F81CF02D
:10045000B7FE0323020002209A43024B1043C01848
:1004600010BDC0460000808010B50EF0A3F81DF04E
:10047000DFFA0323020002209A43024B1043C01804
:1004800010BDC0460000808010B50EF093F81DF03E
:100490007DFA0323020002209A43024B1043C01846
:1004A00010BDC0460000808010B50EF083F81DF02E
:1004B000D3F90323020002209A43024B1043C018D1
:1004C00010BDC0460000808010B50EF073F81DF01E
:1004D00085F90323020002209A43024B1043C018FF
:1004E00010BDC0460000808010B50EF063F81CF00F
:1004F000C5FF0323020002209A43024B1043C01899
:1005000010BDC0460000808010B50EF053F81DF0FD
:10051000E5FA0323020002209A43024B1043C0185D
:1005200010BDC0460000808070B50D000EF042F88E
:10053000041C28000EF03EF8011C201C1DF026FCB7
:100540000323020002209A43014B1043C01870BDE0
:100550000000808010B50EF02DF80021041C19F069
:1005600095FF002802D0074804F0EAF9201C1DF08E
:10057000CDFD0323020002209A43034B1043C01811
:1005800010BDC0464F1303000000808070B5060008
:1005900008680D000EF00EF80021041C19F080FF11
:1005A000002802D0184804F0CBF9201C1DF072FB83
:1005B000041C012E06D1032302209C432043134B2D
:1005C000C01870BD68680DF0F5FF0021051C19F01A
:1005D00067FF0028E6D1FE21281C890519F050FF8D
:1005E000002803D00A490B4821F0EDFE281C1DF01D
:1005F00051FB011C201C1AF005FA03230200022003
:100600009A431043DBE7C0464F130300000080808D
:100610003E13030034E20200F7B52D4FB4370197C3
:100620002B4A2C49FC32536C8B4200D8F7BD032572
:10063000043B53641A68264B501CAC331E680400FC
:100640008108715C2C4064002141831A29400130EB
:100650000229F4D003260199120109681B018A18A6
:100660001B499B08002BDBD00F201468044229D1C2
:1006700019480068A04225D80D00B8352D68A5425C
:1006800020D9241A200900900800AC300068A40981
:10069000009D0419207835406D0084462841304083
:1006A00001280FD13700AF403D0067463D4325701C
:1006B0000D00FC356C6C094FBC4206D2201D6864ED
:1006C00000982060013B0432CCE70C00BC34F8E712
:1006D000782E0020382F00202C2F0020B82F00204B
:1006E0000F23994370B506000D00081A412119F037
:1006F00007FD0F4C02002300B033186023002100D7
:10070000AC331E608301EB1AB4310B602300300060
:10071000B83300211D6029F088FB8023FC345B0284
:100720000122A36400235242E3642265636570BD25
:10073000782E0020A222034952008B5A01338B529B
:100740007047C046782E0020A222034952008B5ADF
:10075000013B8B527047C046782E0020A223034AEB
:100760005B00D05A431E9841C0B27047782E0020DB
:10077000F7B504000325890043180193019B9C42AF
:1007800000D1F7BD0F232168194229D1184B1A0057
:10079000B43212688A4223D81800B8300068884200
:1007A0001ED9891A1A000F093800AC32126889095B
:1007B00051180A7828404000944602412A40012AF4
:1007C0000ED12E0086403000664630430870180077
:1007D000FC30416C074EB14206D20B1D43640F60E2
:1007E000FFF71AFF0434C9E7BC331A60F8E7C046C4
:1007F000782E0020B82F0020A22210B50848520001
:10080000835A01000133835203000022FC33BC31C0
:100810000A60DA64034A27215A64FFF7A9FF10BD72
:10082000782E0020382F0020F8B503262E4C002506
:100830002200BC321368AB4213D1022219000327F5
:1008400094462200B0321268920091422AD32300CB
:100850000022FC335A654532FF32A35A013BA352B2
:10086000F8BD23001560214AFC335A642300B033DD
:100870001B689B009D42D9D22200AC321268AB08A3
:10088000D35C2A003240520013413340032B07D17E
:100890002200FC32536C191D51641D60FFF7BCFE31
:1008A0000135E3E72000AC3000688A088018027840
:1008B0000D0016003D406D002E413E40022E09D035
:1008C000032E0BD0012E07D13B00AB409A430270A0
:1008D000012301E0002BF7D10131B2E76346AB40C1
:1008E0009A4302700023F7E7782E0020382F00206B
:1008F000334BF0B51A001900B832B43109681268E8
:10090000521A1900B0331E68026003230022AC3172
:100910000F68140011009C4642608260C260026150
:1009200042618261B60065468B08FB5C0D406D003C
:100930002B4165462B404568012B33D0002B2BD033
:10094000022B32D001318E420AD065468B08FB5C07
:100950000D406D002B4165462B4001D0012BE2D1AB
:10096000012C26D10569013505618569A54200D2B2
:1009700084618E4201D0012BD5D1C368934200D24D
:10098000C2608E4206D143681B01436083681B012D
:100990008360F0BD0022C6E78468013201348460C0
:1009A0001C00CFE701354560FAE7013545600134A9
:1009B000C8E7022CD9D1456901354561D5E7C04664
:1009C000782E0020F7B50F300309019302D10024DF
:1009D0002000FEBDA223474A5B00D35A002BF6D16C
:1009E0004733FF33D35A5E425E41002B07D0414B61
:1009F000FC33DA6C1B6D9A4201D300F057FD0024E2
:100A000030213F273B4A3B4BB0321268FC339446BF
:100A1000384A5B6DAC3210689C4505D8002ED6D1A3
:100A200000F044FD0136EBE70325C25C2A4231D1D8
:100A3000019D0134A5422ED89B00191B4E1C5A1C47
:100A4000012C03D12B4C9708FC346765B4080019BE
:100A50000324270037407F00A446023CBC400778AF
:100A600002313C43234F0470AC378B4234D22149CE
:100A7000204DB431FC350C68E96C33018C46E41828
:100A8000019B921B6344120100212000EB6429F0BA
:100A9000CCF99DE700240C252A4206D1019D0134A2
:100AA000A54203D89B000133C7E700240A4206D1C0
:100AB000019D0134A54203D89B000233BDE7002409
:100AC000BA4306D1019A0134A24203D89B000333F2
:100AD000B3E7002401339FE73C6888082018644688
:100AE00002250C406400A5402C00057801312C4300
:100AF0000470BAE7782E0020A22230B5164B5200BF
:100B00009A5A002A26D1002824D01A00B43212683A
:100B1000801A1A00FC32546D01098009A04200D2EB
:100B20005065AC331800032204688B08E3180C00EE
:100B3000150014406400A5401C780131AC431C70C2
:100B400004688B08E35C0C001440640023411340EC
:100B5000022BE9D030BDC046782E00200F220300C2
:100B60000240002070B5824228D1154C10002100AF
:100B7000B4310968994221D82000B83005681000C6
:100B80009D421BD9AC345B1A246819099B09E55CAA
:100B90000800032318404000054110001D40012DAE
:100BA0000CD14D1C2E00AA08A25C1E4076003241DA
:100BB000681A1A400135022AF4D0000170BDC046FF
:100BC000782E0020F0B585B007000D0002920028B5
:100BD00007D101002800FFF7F5FE0600300005B040
:100BE000F0BD002903D1FFF787FF2E00F6E70F21A4
:100BF00000260140B142F1D153480E000300B43346
:100C00001B68BB42EAD80200B8321268BA42E5D982
:100C1000FB1A1A0900920200AC3212689B09019279
:100C2000D25C0323009C23405B001A4103231A403B
:100C3000012AD3D14233FF33C35A002BCED129002E
:100C40000F310909B0308C460168032689000391F1
:100C5000210014000131039A914212D201988A08AE
:100C6000825C08003040400002413240022A02D13A
:100C700001340131EFE7002A03D10133E218624564
:100C8000F7D3644501D13E00A8E7644521D9009B14
:100C9000032663441900009B0800E218AC239C461D
:100CA000294B9C44634605001B6884081C193300CB
:100CB00035406D00AB40257801309D432570904252
:100CC000F0D1214B8908FC335A6D9142DBD2596532
:100CD000D9E71B19634523D3032502261A49009B34
:100CE000AC31E3180191009A62449A4209D86346F4
:100CF000191B090120010A003818002129F095F874
:100D0000C1E70199180009689A088A18310028403B
:100D10004000814008001178013308431070E2E779
:100D2000029E002E00D159E700212800FFF74AFE5D
:100D3000061E00D152E72201390029F05AF8380086
:100D4000FFF7DAFE4AE7C046782E002010B58CB0D7
:100D500005A8FFF7CDFD079B0A4C03930093059A66
:100D6000069B0949200021F061F8089B099A01932C
:100D70000B9B06490393009320000A9B21F056F831
:100D80000CB010BD50A50200A0130300C313030054
:100D9000F8B5434E434F3300B4331A684249380024
:100DA00021F044F800243300B0331B689B00A342B9
:100DB00023D93F2214422CD132002500AC321068D6
:100DC0000321AA08825C294049000A4103210A4202
:100DD00002D10135AB42F3D12A1B7F2A12D99209E5
:100DE0003249380021F022F82C003F239C43330085
:100DF000B0331B689B00A34204D838002C4920F074
:100E000054FFF8BD2B4B22011A402B49380021F02A
:100E10000DF83200AC321268A308D35C03222240E2
:100E200052001341032213403A32022B31D03032A8
:100E3000032B2ED03F3A012B2BD13300B4331B6848
:100E40002201D3581D4954228B4222D01C49083A12
:100E50008B421ED01B49083A8B421AD01A490F32D6
:100E60008B4216D019498B4213D01949123A8B4242
:100E70000FD018498B420CD0174905328B4208D04D
:100E80001649043A8B4204D0154926328B4200D1D0
:100E90001B3A1449380020F0C9FF013483E7C046EB
:100EA000782E002050A50200611303007C1303007C
:100EB0007B1C0300F0FF0F009813030018A602002C
:100EC00070B20200C8E60200D0B8020060E302007F
:100ED0001CB10200E0B002008CD1020090AD020013
:100EE0007CA3020099610300014BD8607047C046A3
:100EF000782E0020034B82B0D86801ABC01A02B034
:100F00007047C046782E0020014B18617047C046DC
:100F1000782E002010B50349034825F034FB04F077
:100F2000C7FFC046FE16000090E0020007B5054A64
:100F300001ABD1681269CB1A9A4201D8FFF7EAFFD8
:100F400007BDC046782E0020194BF7B530CB0F00F7
:100F5000160001281AD94B68164A934207D0990700
:100F600011D115491C688C420DD11C001D000228AE
:100F70000CD0BB68934209D09A0704D10E4A196875
:100F80001C00914202D0002003F09EFE01A93868A7
:100F900010F0C8FA01009620019A0023800021F089
:100FA00043F92A003100230003F082FCFEBDC04655
:100FB000782E002034B00200C8E60200F0B585B0FB
:100FC00005001600080003AB02AA01A921F099FF51
:100FD0000398364FB84209D0032807D00DF086FA9F
:100FE000B060002804D1324803F0AAFC0123B360AA
:100FF0000198B84229D10024B368A34200DC6C1EDA
:101000000298B84225D1B368002B47DD2800002C98
:101010002ADA641901D5B368DC17002834DA4019DC
:1010200001D501204042B368002B00DA0130B368DB
:10103000002B2DDDA04200DA2000013B70605842F9
:101040005841C0B2346005B0F0BD0DF04FFA040055
:10105000D6E70DF04BFAB368002801DBDA0F8018F1
:10106000002CD6DB002B03DDAC42D6D92C00D4E714
:10107000002BD2D0A54200D86C1E002804DA4019FB
:10108000D4D501204042D1E7A842D0D92800CEE7EC
:10109000002BD2D0A042D0DD601CCEE7002C01DABC
:1010A0000020B6E700208342E4D1C0E734B002005C
:1010B00008140300F0B5060085B017001B2805D101
:1010C0000A9A974209D0002005B0F0BD19281AD01D
:1010D0001C281AD00A9A0A9717001A000B00110050
:1010E0000A9A0192BA4200D901971D000C00002310
:1010F0000093009B019A934209D10A9BBB4220D0E6
:10110000E1D30120E0E71A26EAE71D26E8E7029589
:10111000039401CD02CC0DF097F9002802D0009B7A
:101120000133E5E71B2ECED0039B30001A68029BEB
:10113000196803F00DFC044BC01A43425841C0B279
:10114000C2E71A2EDDD1BEE78CB80200F0B51E0052
:1011500085B0039018680D0017000DF0DFF8736874
:10116000019002930024022F0ED90123B2682900B6
:101170000DF094FA0400032F06D029000123F26831
:1011800001980DF08BFA0500A54202D8084803F03B
:10119000D7FB039AA3000299D0580DF055F9002807
:1011A00001D10134F0E701206400204305B0F0BD17
:1011B0002214030010B504004868002204300749D7
:1011C0000FF008F9064A002803D0406810F094F99F
:1011D00002000449200020F029FE10BD2612000064
:1011E000642003003914030070B5150012680C0068
:1011F0004068002A0AD1CC000621043021430FF0B8
:10120000E9F8002801D043682B6070BD03799B0783
:101210000BD50C4B9842F8D10B4EF36D002B03D13C
:10122000012025F0F7FBF065F06D06216A68E40007
:101230002143002A03D125F030FC0023E4E725F008
:1012400022FCFAE7DCBD0200782E002070B50625EE
:10125000C0000543012229000B480FF0BBF8446889
:101260000600002C0ED1082021F0AEFB074B040035
:101270000360012025F0CEFB2A006060044925F0C0
:1012800002FC7460200070BDB42E00207CA302001C
:101290002612000010B50C000621C00001430122F7
:1012A00002480FF097F8446010BDC046B42E0020ED
:1012B00073B50625C3001D430600002229000F4810
:1012C0000FF088F8041E17D1020029000C480FF017
:1012D00081F8041E11D06A460A49406802F080FE77
:1012E000009B002B08D000216A46080021F02FF84F
:1012F00061683000FFF7CEFF606876BDB42E002035
:10130000A0A202003D020000F0B50E001100002274
:1013100085B0B71C03901C0030000D4B0092BF003D
:101320000DF002FD380021F04FFB4660060005007D
:10133000039B083F03600836E719BC4202D128002E
:1013400005B0F0BD002101CC02F0C8FE01C6F4E7F3
:10135000FFFF0000C3790248002B00D1014870470D
:101360008CB8020084B8020010B500F0D5FB01482B
:1013700010BDC04634B0020010B5086800F0CCFBC8
:10138000004810BD34B0020073B50D00022836D1FC
:10139000012601A9686810F0C5F876423400019B67
:1013A000C318834212D101A9286810F0BBF8734218
:1013B000734162426241DBB2D2B2019900F0F0FCAB
:1013C000002820D11049114820F0FDFF0278722A30
:1013D00001D0772A06D1611C0ED1723A5442544191
:1013E0000130DEE7622A01D0742A05D1711C03D1D5
:1013F000743A56425641F3E7054803F0A1FA012634
:1014000076423400CFE776BD5414030018E00200A2
:1014100047140300F7B5CC1CA400070020000E0001
:10142000019221F0D1FA22000500054B4760866049
:1014300003600C3A01990C3028F0DBFC2800FEBD5B
:1014400014A5020070B506000D00002814DD002967
:1014500007DD154818F0DEFE0124B04209DB002448
:1014600007E00100C020000618F0D4FE0124A842C5
:10147000F5DDE4B2200070BD002907DDC0200006C4
:1014800018F0C8FE0124B042F3DCE8E70024A042D3
:10149000F0D00100044818F0BDFE0123A84200DC92
:1014A000231CDCB2E6E7C046FFFFFF3F00B58BB070
:1014B000FFF7A2F9684620F0E0FB054BD968091A4E
:1014C0008908FFF755F9FFF7AFF90BB000BDC0462B
:1014D000782E0020F0B587B0039205910D9A0399FC
:1014E0000500521A0CA9097820200C00844339D039
:1014F00030293BD00CA902910121802401911C408C
:1015000036D0D40FA4186410171B002C37DD26002A
:10151000019B0493B34200DD04966B68049A029920
:1015200028689847049BF61A002EF1DC039B002BD9
:1015300006D01A0005996B6828689847039BE41841
:10154000002F0CDDE419019EBE4200DD3E0032009A
:10155000029928686B689847BF1B002FF3DC2000B6
:1015600007B0F0BD074902911021C6E70649FAE726
:1015700001271F4001D11400C7E71700D6E7002458
:10158000D4E7C0467514030086140300F0B593B089
:101590001C0018AB20CB05901B780F00160007939A
:1015A000CB070BD48B0703D1854B0A689A4205D031
:1015B00038000CF09BFF01274000074381231D42A8
:1015C00009D1079B302B06D11A9B1B9A934200DA54
:1015D0001A9200231B93380021F063F90AAA130022
:1015E000002806DBAB070FD52B231370123B04AA90
:1015F0009B18E1B2EA0615D5022E0CD130221A70E2
:101600004A1C5A7002330DE013006A07F1D52022FC
:101610001A701923EBE7082E3BD130221A70AA0565
:1016200034D4013300220AA81A701B1A2C20069306
:10163000AB06DB1718400EAB0B9310230C931B9BD0
:101640000D92012B01DD40231D43402404ABDA75CC
:101650002C400390029123D03B00019200960DAAEA
:101660000CA90BA806F0F6FB037807002D2B00D081
:101670008EE004AAD3750D9B1B9A013B01370D9395
:10168000012A00DD97E00026340035E00A000E3222
:10169000B7E7102EC6D130221A700A001732B0E711
:1016A0000AAB019300963B000DAA0CA90BA806F00B
:1016B000D1FB1B9B07002600012B1DDD0D9B1B9CF6
:1016C0009C4200DA1C001A9BA3425EDD01261C1B13
:1016D0002E4001D02600002401239D432F33079381
:1016E000002C09D0103B0093002301941A003549C7
:1016F0000598FFF7EFFE04006B0621D5172104AB18
:10170000C9180B78002B0AD0002301220093019204
:101710000598FFF7DFFE1A9B2418013B1A93069BDE
:10172000002B0DD0012301930023069A00930AA9F0
:101730000598FFF7CFFE1A9B069A24189B1A1A9356
:101740001B9B012B01DC1A9B1B931B9B0D9A019386
:10175000079B3900009305982B00FFF7BBFE241868
:10176000002E09D020230093002301961A0015496A
:101770000598FFF7AFFE24180B980EAB984201D0E6
:1017800021F051F9200013B0F0BD00263400A3E78A
:101790001B9B012B00DC76E70D9B1B9C9C4200DA17
:1017A0001C00172304AA9B181B78002B00D00134BF
:1017B000069BE41887E71B9C9C42F8DA1C00F6E7BE
:1017C00038AF020064200300F0B5060014000027C3
:1017D0008DB00D002B78002B15D1A94217D30B78B3
:1017E000002B00D148E14B1C04932023002530221C
:1017F000082104200893049B1B78002B11D1069329
:10180000013B07935FE0252BE7D00135E2E76B1A38
:1018100004931A00306873689847049B2900FF18E6
:10182000DDE72D2B05D12C3B1D43049B0133049395
:10183000E1E72B2B01D1293BF6E7202B01D1054312
:10184000F3E7212B01D10D43EFE7302B2CD11033DF
:101850001D430892E9E7069A4A43D318303B0693A2
:10186000049B01330493049B1B781A00303A092A25
:10187000F1D92E2B47D1049B5B782A2B18D0049BDF
:101880000A210133049300230793049B1B781A0059
:10189000303A092A17D8079A4A43D318303B07939E
:1018A000049B01330493F0E700230A210693DAE74F
:1018B000049B02330493236804340793DB43079AA1
:1018C000DB171A400792049B1B786C3B5A4253412A
:1018D000049AD31804931B780593002B00D1CBE016
:1018E000642B00D1A1E022D8502B29D00ED8453B43
:1018F000022B00D8A9E00122049930687368984748
:101900000137099452E001235B427AE7059B622B81
:101910003CD057D8582BEED1231D0993069B019537
:101920000393089B029341230093313B7BE0059B8B
:10193000712B53D00FD8672B00D886E0702BDAD1EB
:10194000231D0993069B01950393089B0293612332
:101950000093513B67E0059B752B5AD0782BEFD055
:10196000732BC8D1231D24680993002C49D0079BF1
:10197000013303D1200028F0ACFA0790069B079AA8
:101980000193089B210000932B000BE0231D09937A
:101990002368002B0ED0069B04220193089B384934
:1019A00000932B003000FFF795FD3F180499099C28
:1019B00001310EE7069B05220193089B31490093F4
:1019C0002B00EFE7231D099323680BA90B70069BDF
:1019D00001220193089B00932B00E3E7231D0BA931
:1019E0002068099323F08DFA079B0100013301D190
:1019F0000B9B0793069B079A0193089B00932B0070
:101A0000D0E7069B06220193089B1F4900932B00F9
:101A1000C8E7231D0993069B01950393089B029336
:101A200061230093573B00220AE0231D0993069B84
:101A300001220393089B0195029361230093573B76
:101A40002168300020F040F9AFE7072307349C43BA
:101A5000230020686168083309931BF003FB079B90
:101A6000011C0293069B059A0193089B300000938A
:101A70002B0020F096F998E738000DB0F0BDC04675
:101A800063140300681403006E140300F8B5050026
:101A900010200C001F00160020F096FF054B44603C
:101AA0008460A4190760C4606B60034B2860AB605E
:101AB000F8BDC046431E0200591E020080235B058C
:101AC0001869034B1B7843438020C002C01A70473B
:101AD000C72D002080235B051869034B1B78434307
:101AE0008020C002C01A7047C82D002070B5084D74
:101AF000C4012B680021181923F074F92868054BDC
:101B000000197F3000781B788342F0D270BDC04648
:101B10003C010020C62D002010B5C3790400002B25
:101B200008D0064A037981791068DB01C0180130BA
:101B300023F058F90023237210BDC0463C01002059
:101B400010B5124B01001A684379DB01D318180055
:101B50007F300478FF2C08D10879C0011218527820
:101B6000FF2A0FD0887990420CD08A799B180132D5
:101B7000D2B258787E2A01D08A7110BD00234C71F0
:101B80008B71FAE701204042F7E7C0463C01002094
:101B900070B5F8248025A40223786D054D2B4CD117
:101BA0002B698020E41A2B69C002E41A2969001B02
:101BB00018F0A6FA2B4B2C4918702B69E218521812
:101BC0005D421540294B2A4A9B1A2A4A9B188022BB
:101BD000520511699D4234D38020C002401B18F089
:101BE0008FFA254B641B1870E411244BE4B21C706F
:101BF000A12001230025224A22491360C0004D6024
:101C00004B68002BFCD01358DBB2A342F7D21E491D
:101C100001330B7001235360FFF750FF0378050079
:101C20001A4CFD2B0FD180235B051869184BC00996
:101C3000C018C0012818206070BD80242B69E40200
:101C4000AFE76D18C5E7FFF745FF0378803DFD2B33
:101C500001D12560F0E7FFF73DFFFD2123F0C2F839
:101C6000F7E7C046C82D0020FF87FFFF14010020C2
:101C70000000002034A50300C72D0020C62D002041
:101C800000D00040FCD00040C92D00203C010020C5
:101C9000FFFFFF01F7B5254B254F1A78254B1400A0
:101CA0001B7839680133E001405CFF2829D00134FA
:101CB000E4B29C4200D101249442F4D18023002656
:101CC0005B051B69DB090193E30100933B68E201BB
:101CD0009D182B7828005A425341F61823F098F8A3
:101CE000002810D0002304E0DA01AA5C002A0AD1FF
:101CF0000133019A9342F7D13868009BC01823F052
:101D00007DF82000FEBD0B4B01341B78E4B201339B
:101D10009C4200D10124054B1B78A342D4D1072E4D
:101D200002D920F0A5F8B6E7FF24EAE7C92D002084
:101D30003C010020C62D0020F7B507000D0001244E
:101D40000E4B1B7801930E4B1E68019BA34202D2DF
:101D5000FF242000FEBDE10171180B78FE2B09D194
:101D60008B78AB4206D103312A00380028F032F8D4
:101D70000028EED00134E4B2E7E7C046C62D0020CB
:101D80003C01002010B5054A03791068DB01C0183A
:101D90008178002203300EF06DFF10BD3C01002061
:101DA000F0B585B002900D0016000393782948D84D
:101DB000FFF7C2FF0400002E3BD0FF2801D0FFF741
:101DC00095FEFFF767FF0400FF2803D11E491F4857
:101DD00020F0F9FA1E4FC0013B680190FE2118184F
:101DE00023F000F83B68019AE9B29818023022F01B
:101DF000F9FF3868019B2A00C018033002990CF0E3
:101E000063FA0C2020F0E0FD039A0300002A16D0AC
:101E1000104A1A600E4A1C7112685C71E4011419B0
:101E2000A278DE7102329A7101221A72039A5A72F2
:101E300002E03300FF28E4D1180005B0F0BD064AE7
:101E4000E7E70023F8E7C0469714030018E0020014
:101E50003C01002010A40200BCA4020007B501A9A7
:101E60000FF060FB0199FFF767FFFF2803D10449DA
:101E7000044820F0A8FAFFF739FE03480EBDC0461B
:101E80005414030018E0020034B00200F7B50192C8
:101E9000027A04000091002A02D1244802F050FD89
:101EA000C579002D06D1224A17680279D201D25D88
:101EB000002A05D1092201251A606D422800FEBDC5
:101EC00061797E22C901791808007F30A3790078F2
:101ED000D21AFF2809D12079C00138184078FF288C
:101EE00019D0C01A824200D902000198461B9642BE
:101EF00000D91600002EE1D0009A01335019C918FC
:101F0000320027F076FFA3799B19DBB27E2B04D039
:101F1000A371AD19D4E70022E7E70023A371637929
:101F2000DB01FB187F331B786371F2E7AD1403000C
:101F30003C010020F0B585B00393037A04000291C0
:101F40000192002B02D1304802F0FAFCC379002B39
:101F500008D02E4A03791268DB019B5C019A00923B
:101F6000002B25D10923039A13600A3B01930198A2
:101F700005B0F0BD7E22A379D71A009A974200D906
:101F800017006079214E0133C001C01833683A0050
:101F9000181802990CF098F9A379DB19DBB27E2BA3
:101FA0000AD0A371029BDB190293009BDB1B0093F9
:101FB000009B002BDED1DAE70023A371FFF76AFE56
:101FC0000500FF2809D12079FFF790FD0023237237
:101FD0001C23039A13601D3BC8E760793368C00176
:101FE000181829007F3022F0FDFE3368ED015819E2
:101FF000617922F0F7FE62793368D2019B187F3352
:102000001B786371CEE7C046AD1403003C0100208D
:10201000002170B5080021F037F8012405000C4BB1
:102020001B78A34201D2280070BD0A4AE301106860
:10203000C0180378FE2B08D18178002203300EF0FF
:1020400019FE0100280007F00DF90134E4B2E6E7BB
:10205000C62D00203C01002073B501A90FF062FAE3
:102060000199FFF769FEFF2803D10E490E4820F0C1
:10207000AAF900257E260D4B1C68C301E318597888
:102080009B780233DBB2C201A2187F321078FF289E
:1020900004D1C81A401920F027FC76BDF31AED18B8
:1020A0000023F0E75414030018E002003C01002074
:1020B0001FB5034A034B20F07AF805B000BDC046B7
:1020C000411B0000191B00000022104B10491A6030
:1020D00003001233FF3341185A701A7004338B42D5
:1020E000FAD101000300002209310833FF311A70D0
:1020F0009A705A70DA7004338B42F8D1C3237F226E
:102100009B00C254034B044A1A60704740010020F0
:102110001103000004000020CA140300F0B50026DB
:102120007E24320031009300C318FF335F7C7F2F81
:102130004CD09B7CF618F6B2531CDBB2EF2E2AD99A
:10214000C1267D25B60086193700AC469C4516DAB7
:102150009B00C318FF3359749974D97419757D2382
:102160000232D2B2934211DA9300C318FF335C7487
:102170009974D974197500260132D2B2D3E73D683B
:10218000043FBD6001256D42AC44DFE73568013B8B
:102190007560043EE6E77D2FEED80D4DEF5D01251D
:1021A0002F42E9D0C1227D26920082189E4208DA91
:1021B0009A008218FF3254749174D17411751A0008
:1021C000D9E71568013E5560043AEFE7F0BDC04617
:1021D000AD15030070B5002140250D4C8B00C318D0
:1021E000FF335A7C7F2A11D0A25C0131C9B22A4246
:1021F000F4D05A7D7F2AF1D0A25C7F2AEED9DA7D15
:1022000056B2002EEADD0132DA74E7E770BDC0464F
:102210005C1503000300F7B500214B4A1333FF336D
:102220008218197004339A42FBD1FC2300249C4687
:102230002200844453B2002B04DA444B444A1A600F
:10224000002008E063461F69BC4205D37F23443267
:10225000920013540120FEBDDE68355D602D01D96A
:10226000203DEDB2611CC9B28F4251D0735C602B2E
:1022700001D9203BDBB2232D4DD1303B092B02D9B4
:10228000324B344ADBE70234E1B28F4204D8FF2BF1
:10229000F6D843700C00CDE7745C2500303D092D65
:1022A000F5D80A256B430131303BE318C9B2ECE79E
:1022B0000136512E30D10023274C1F5DDEB22A2F6C
:1022C0000CD1264FFF5CAF4208D19300C318FF33F7
:1022D0005E74447801321C75D2B2DBE70133512BB6
:1022E000EBD11F4C493B08342678AE4208D0013C64
:1022F000002B02D1154B1B4AA1E7013BDBB2F3E7F0
:10230000002BF7D014004334A4000419A370C1E7D4
:10231000232DB5D000230026F7B201970F4FF75DAC
:10232000AF42C5D10C4FF75D2A2FC1D09F42BFD11C
:1023300093000199C318FF33597441780132023474
:102340001975D2B2E1B2A5E7120300000400002023
:10235000CD140300DF140300EC1603009B160300EA
:102360003D170300ED14030010B51130084A094968
:10237000FF3003787F2B00D110BD02240457002CBE
:1023800003DCCB5C43700430F3E7D35CFAE7C04670
:102390004B160300FB150300F0B50023070085B0C2
:1023A0009E00BE193100FF314A7C9C467F2A01D134
:1023B00005B0F0BD4F4B02209C5C63460133DBB29D
:1023C0000442EDD0012560462C4242D15419E0B2BE
:1023D000009049487C35801840780190C87C097D80
:1023E00002900391C1218900791808009D4226DAE4
:1023F0009B000098FB18FF3358740198941C987444
:102400000298E4B2D874039818753B486346821862
:102410003000FF309578027D023300927D22C67C29
:10242000DBB29A4210DA9B00FB18FF335C749D7498
:10243000DE74009A1A7563460333DBB2B0E70468B2
:10244000013D44600438D1E70868013A4860043926
:10245000E7E70130C0B2010044318900C95D0029BD
:10246000F7D07F2908D008242248405C204297D129
:102470002439012900D893E73000511CC9B20091DA
:102480001D49FF30891849787D250191C17C029151
:10249000017D0391C121890079180C009D421FDA4A
:1024A0009B00009CFB18FF335C74019C124D9C74D4
:1024B000029CDC74039C1C75941CAA1863469678D5
:1024C000027D023300927D22C57CDBB2E4B29A42E7
:1024D0000BDA9B00FB18FF335C749E74DD74A8E775
:1024E0002668013D6660043CD8E70868013A486008
:1024F0000439ECE75C150300FB150300F7B5002277
:102500009300C318FF335C7C002C03D10132D1B29D
:102510000A00F5E77F2C00D126E1102693490D5DD6
:10252000511CC9B2354227D0DC7CAD06ED0FA44664
:102530002C00C1251434AD001F7D019445196D3662
:102540008E4214DA8D00019C4519FF356C7400240D
:10255000AC7464462F75EC745C7C352C00D0C5E0FF
:102560005A7B834CA25C5207D2D5102285E02C689E
:10257000013E6C60043DE3E74E2C1CD118220D2473
:10258000DD7C5C741E7DC1239B00C31870348C42BB
:102590000CDA8B00C318FF335A740022DD749A746E
:1025A0001E75B5E71B22EAE71C22E8E71F68013C1D
:1025B0005F60043BEBE74F2CF4D0502CF4D06DB2AD
:1025C000002D2BDADD7C002D28D00D004435AD0028
:1025D0002D5C002D22D1961CF5B20195AD00451958
:1025E000FF356F7C7F2F19D0604EF75D7F2F15D997
:1025F000EF7C002F12D0C1237D229B00C318019CC9
:10260000944206DD1F236B740023AB74EB742B75AF
:102610007EE71C68013A5C60043BF0E7172C2ED182
:102620005C7B013AD2B2452C1DD11B3C5C7315007A
:102630004335AD004D4C2D5C655D7F2D00D867E7BF
:102640000132D2B292008218FF32557C002D00D1A7
:1026500080E0645D7F2C00D85AE7D27C002A00D04D
:1026600056E71E3209E0392C01D10D3CDEE73F4A26
:10267000125D7F2A00D84BE712225A7448E7182CC3
:1026800007D15A7B394CA25C7F2A00D840E713223D
:10269000F3E7202C05D15A7B3C2A00D038E7163AC4
:1026A000EBE7482C15D15C7D7F2C02D14B245C7468
:1026B00003E02E4D2C5DA406F8D55C7C2B4D2D5DE2
:1026C000ED0700D448E75D7B202D3CD10C3C5C74C9
:1026D0001EE73C2CF1D15A7D7F2A00D118E7234C0C
:1026E000A25C920600D513E73F22C6E72A2C16D13A
:1026F000DA7C1C7DC1237D259B00C3188D4209DA3D
:102700002B258B00C318FF335D740025DA749D748C
:102710001C75FDE61E68013D5E60043BEEE72C2C57
:1027200011D1DA7C1C7DC1237D259B00C3188D420D
:1027300004DA8B00C318FF332D25E5E71E68013D41
:102740005E60043BF3E7452C00D170E7392C00D0E4
:10275000DEE66CE7527D7F2A00D1D9E6A25C7F2AB3
:1027600000D8D5E61E2288E7F7BDC0465C150300F9
:10277000AD150300F0B50022060085B01300443308
:102780009B009B5D7F2B31D05B4CE35CDB072AD544
:102790001300511EC9B244318900584F7118013BD2
:1027A000DBB2002B23D008787F2803D0385C0439B3
:1027B0007F28F4D999007118FF31487C7F280ED00A
:1027C0002027255C3D4204D04C4D285C042528423E
:1027D00005D0887C4508AC460130604488740133DC
:1027E000DBB29342E6D10132D2B2C7E7002302271F
:1027F00012E06B0708D4EB070DD56246FF32937CDD
:10280000D9085B1A937406E0039B039A9B7B990893
:102810000133CB189373029B9A00B2181100FF3159
:1028200094464A7C7F2A64D034485D1C845CEDB2B7
:10283000029565B2002D21DA029A9200B218FF3299
:102840000392527C0192855C019C2A0041257F2CD9
:1028500000D0150040242242CBD1019C123C012C17
:10286000D9D840220233DBB244339B009B5DC35C6A
:102870001342D0D08B7C013B8B74CCE71E4DAA5CFD
:1028800008252A420ED0029B9B00F318FF335A7C86
:102890007F2AC0D0825C3A42BDD006229A740522BB
:1028A0009A73B8E73C421AD00133DBB21A004432C3
:1028B0009200925D002AF7D07F2AACD00F498A5C43
:1028C0003A42A8D09B00F318FF339A7C5208013299
:1028D0009A746246FF32937C5B08013392E71023BF
:1028E0001A4298D04B7BC35C3B4294D08B7C023B1A
:1028F000C2E705B0F0BDC046AD1503005C1503008E
:1029000070B50400FFF7E0FB2000FFF783FC230015
:102910000022FC33DA601A61904226D02500224E54
:1029200011353368FF35934203D029001F4802F068
:1029300023FD2000FFF7E2FD2000FFF74BFC200005
:10294000FFF712FD2000FFF715FF2000FFF724FD21
:10295000C4222B009200A1181A78502A06D97F2A87
:1029600007D00020124B134A1A6070BD04338B420B
:10297000F2D13368002B02D00F481EF053FA20002A
:10298000FFF7CCFB3368002B03D029000B4802F083
:10299000F3FC20001FF0D9FA054B0949186827F00D
:1029A0008EFA43425841E0E7AC01002004150300D1
:1029B0000400002013150300391503004915030016
:1029C000CA140300F7B50020214A224E127833685A
:1029D000111D4900CC5A5F1859880190A020C005EC
:1029E00084466405640D4C431B49A4120968787839
:1029F00007270500BD43F82D1DD00125C0088540DF
:102A00002800A1256746ED0001327851D2B2101D91
:102A10004000C55A1F186D0558886D0D6843801217
:102A2000001BE4D00A4C2270019A002A02D00A4A04
:102A300033601160FEBD6046084A5C68845000291E
:102A400003D001220B00002101920A000C00DEE7F6
:102A5000CA2D002044010020480100200C05000080
:102A600010B572B600220F4B18681A6062B6904219
:102A700010D10D4B0D4A1B680D48934200D0100039
:102A80001A7802705A8842805A6842600022197887
:102A90008A4200D310BD51004418591809890132E7
:102AA0002181F4E748010020440100204C0100206E
:102AB0007C010020044B054A1A600023044A13607D
:102AC000044A13707047C0464401002058A5020014
:102AD00048010020CA2D002010B5782202490220AA
:102AE00003F046F910BDC046C5290000421E084B40
:102AF000FF3A10B504009A4207D8FFF7B1FF054B23
:102B0000241144801860002010BD01204042FBE7E2
:102B100040410F0048010020044B1B68002B01D1ED
:102B2000034B1B68588800017047C04648010020CD
:102B300044010020F7B53D4A04000D000B0091420E
:102B400000D913008022D200D31A0193FFF788FF27
:102B50000122A24046680092164207D12300A0211C
:102B60000327C133FF339B00C9055F50002703785B
:102B70009F4206DB002D01D0132B0BD92C4B186084
:102B8000F7BD391D490042185278D208A24243D0FD
:102B90000137EDE7009A191D32434260019A49005E
:102BA00055050A5A6D0DD20AD2022A430A5252051D
:102BB000E400520F4118144301334C700370851C1C
:102BC000012225E0009A013BDBB296430370466088
:102BD000BB42F4DD04335B001B5A0B52EFE72F00BE
:102BE000131D5B00195A2E894905490D531E1C1DE2
:102BF0006400245A6405640D8C4204D9FC88023FA9
:102C00007C81013BF3D205335B001E520132023559
:102C100003789A42E3DBB1E7002DD3D0019B5A053C
:102C20000B5A520DDB0ADB021343D6E7FF03000009
:102C30004801002070B500210400FFF77BFF002150
:102C40000D4B18680578A94200DB70BD0B1D5B00B9
:102C5000C3185A78161CD208944201D00131F2E709
:102C60000822524232435A700123A021A340034A52
:102C7000C9058B50E9E7C046440100200C0500005F
:102C800010B53E2803D040282ED03C2813D153291C
:102C900024D013D84C2921D007D8482950D049290D
:102CA0001CD0422907D1012348E04F2903D35029E2
:102CB00014D9512947D0254801F042FE68293FD058
:102CC00006D864293FD0662908D06229F3D1EAE703
:102CD0006C2903D0712936D06929ECD10123042055
:102CE000002A00D0136010BD512926D010D84929E0
:102CF0000CD006D84229D6D0482918D00129DAD1DB
:102D0000D1E74C2902D0D6D34F29D4D30423E6E708
:102D10006629FBD006D86229C5D064290DD0532975
:102D2000F4D0C8E76929F1D003D86829C3D10223B8
:102D300004E06C29EAD07129BDD108231800CFE73F
:102D400001230220CCE701230820C9E7461703002E
:102D500010B551283DD011D849282ED007D8422887
:102D600003D0482826D0012806D18B5C10E04F28DC
:102D70004BD017D84C2820D0002309E0682816D063
:102D80000AD8642836D066282AD06228F4D18B5617
:102D900001205B00184314E06C2803D0712811D087
:102DA0006928E9D1920050581FF09EFD09E05200B9
:102DB000535EEDE75200535AEAE7920050581FF075
:102DC000AEFD10BDD2008A18106851681FF07DFD5D
:102DD000F7E7D2008A18106851681FF091FDF0E7FC
:102DE0000323920050589843030002201843084BD5
:102DF000C018E6E7D2008A18106851681AF032F954
:102E0000032302009A431300EFE792005058D8E7DB
:102E100000008080F7B51700156801AA04000E00B5
:102E2000FFF72EFF402C05D1019B043C5A1EAA1827
:102E30005D4215405A213E3C62426241B1428941A5
:102E40002B183B60D2B22B0049421FF0AAF80400B5
:102E50000D004F2E08D0532E07D127F03AF800224C
:102E6000010020000DF006FFFEBD662E06D10323F3
:102E700002249843154B2043C018F5E7642E06D171
:102E80001AF0F0F80323040002209C43F2E75A2EC4
:102E90000FD980220023D20512196B41002B04D1D7
:102EA000002A02DB1FF020FDDEE729001FF00DFDE8
:102EB000DAE7002905D1064B984202D81FF02FFD12
:102EC000D2E729001FF01CFDCEE7C046000080803D
:102ED000FFFFFF3FF0B589B0160005AA02931C68FA
:102EE00001900F00FFF7CCFE019B0500402B06D19F
:102EF000059B5A1EA2185C423C2314400193029A7F
:102F000063191360019B3E3B03935A425341DBB26A
:102F10000293642F12D0662F0BD04F2F2AD1280096
:102F2000042D00D904203300220002991FF062F81A
:102F30002CE030000BF03EFB0600F0E730000BF019
:102F400039FB1AF03DF8029B0690079108AA9B00F6
:102F5000D318083B22001B68029904201FF04AF88E
:102F6000039B04345A1E934108AA9B00D318083BC4
:102F70001E68D4E7B3070BD1104B32689A4207D1D1
:102F800023002A00029930001FF07BFC09B0F0BD3D
:102F900030000BF0ABFA0600042DC0D900215A2FE7
:102FA00002D9884200DAFF312A00200026F03DFFD6
:102FB000019B3E2BB3D12B1FE418B0E738AF0200C2
:102FC000F7B506000F0014001D0064280DD0662818
:102FD00004D04F2813D19400E35105E09400180069
:102FE0000F190BF0E7FA3860F7BD18000BF0E2FAA2
:102FF00019F0E6FFE4003F1938607960F4E7032335
:103000002B40019311D10E4B2A689A420DD1019A9F
:1030100001004020FFF734FE230043430200FB1869
:10302000019928001FF02DFCDEE728000BF05EFA66
:1030300022000300390030001EF0EFFFD4E7C04645
:1030400038AF02000021F0B5070087B081641FF09F
:103050007BF8FB693C6ABB637B6AFC63002B05DA87
:103060003A00062140321170013306E0002B07D0F0
:103070003A00052140321170013B7B6207B0F0BD80
:10308000002833D0BB6A002B30D1390004334031E3
:103090000B703A6BAE4B786BD3185B001B5A013C3C
:1030A0009C42EBD017D9F96A8A4207D3083149000C
:1030B0001FF0A8FCFB6A78630833FB623B6B5A1C69
:1030C0003A637A6B5B009C527B6ACDE7013B3B63C2
:1030D0007B6A013B7B623B6B9D4A9A185200125AF5
:1030E0009442F3D3CAD002230B70C7E73C69631C38
:1030F00003D1002240373A70C0E738001EF0CCFF01
:103100000490002800D129E13B00403305930023BF
:10311000059A13703B69752B5AD0622B07D17B69D6
:10312000722B5CD001240B230022019208E0722B49
:1031300051D17B69622B52D0049B012401930A2355
:10314000390040310A78002A4ED10B70002C07D08C
:1031500038001EF0C9FF022C02D138001EF0C4FF57
:103160003B690293222B01D02723029338001EF0E3
:10317000BBFF0123029A03933B6993420BD11300D7
:103180007A69934207D138001EF0AEFF38001EF076
:10319000ABFF0323039300263C69631C00D1CEE000
:1031A000039B012B02D10A2C00D1C8E0039B9E4255
:1031B0001DD338003100443022F05AF90121380083
:1031C0001EF0C2FF38001EF067FF0028A2D155E7AD
:1031D00001240A23A8E700240A230194B0E7049BF2
:1031E000022401930B23ABE79A42AFD046E7029B40
:1031F000A34209D138001900443001360CF0A0F880
:1032000038001EF071FFC7E75C2C00D091E0380059
:103210001EF06AFF019B3D69002B06D038005C213F
:1032200044300CF08DF82C0071E0622D51D030D874
:103230004E2D77D01AD8222D29D0272D27D0002621
:103240000A2DDDD02C00303C0326072CE6D87B6904
:10325000303B072B5BD8013E002E58D038001EF0C3
:1032600043FF3B69E400303B1C19F0E75C2D0ED0B6
:103270000724612D21D0552DE4D13B0040331B782C
:103280000B2B2ED138005C2144300CF059F82C0067
:1032900013E0742D1FD007D86E2D1ED0722D0BD0C9
:1032A000662DCFD10C2408E0762D18D0E5D3022668
:1032B000782DC7D1002428E00D243B0040331B7833
:1032C0000A2B32D13800210044300CF039F80026A6
:1032D00096E70824F1E70924EFE70A24EDE70B2439
:1032E000EBE70826752DE5D1043EE3E738001EF034
:1032F000FBFE3D692800FCF767FF002800D144E190
:1033000028001EF0FAFA24012418013EEED200260D
:10331000631C00D174E70F4B9C42CED90122059B60
:103320001A70D4E70C4801F0FDFCFF2CF6D80B2BEB
:10333000F4D13800E1B2443022F056F8C7E7039BDD
:103340009E4200D335E73B00032240331A7030E73A
:10335000FFFFFF7FFFFF1000941703002000FCF722
:103360001BFF041E386903D15F2801D07F2842D992
:103370003D0007233C0040352B704434C1B220008F
:1033800022F032F838001EF0AFFE3869431C1BD122
:10339000200022F017F8002406007E4FA300F95801
:1033A000300026F08CFD00281ED10D34E4B22C70C4
:1033B000102C00D062E6784BA8331A680D23002A3F
:1033C00000D102332B7059E6FCF7E6FE002808D145
:1033D00038695F2805D07F2803D8FCF7E9FE00286C
:1033E000D6D03B69D9B2CAE7002800DA46E60134F4
:1033F000222CD3D142E6FCF7DBFE00280FD03E00A2
:10340000396940362E2916D1092333703D004435E1
:1034100028000BF095FF38001EF066FE31E03B6996
:103420002E2B04D17869FCF7C3FE0028E7D10025D4
:103430005A4C02234AE0082333703029E6D17A69D6
:1034400018331343623B0024162BDFD8544CDC4066
:1034500001231C40DAE7002C17D1030020229343FC
:10346000452B12D13C3B3370652128000BF068FFDF
:1034700038001EF039FE396902220B002B3B9343C2
:10348000C6D03869431CE6D1F8E5FCF785FE002874
:1034900005D039692E290BD109233370B8E7386973
:1034A000FCF786FE0028F4D13B692E2BF1D0E5E530
:1034B0000B00202293434A2BAAD1EDE7633E9E43A3
:1034C000F6B272425641A419013501342678002E15
:1034D00002D03A69B242F1D138001EF005FE002E4A
:1034E00002D14037012206E6212E08D13B693D2B4F
:1034F000F7D138001EF0F8FD40374122FBE52E2EB3
:1035000012D13C003B6940342E2B02D17B692E2B1B
:1035100002D04A232370B1E538001EF0E5FD3800E3
:103520001EF0E2FD0C23F5E72A0001342678022183
:103530003300633B8B43DBB2002B0ED163783969D8
:103540000135994207D138001EF0CEFD2A00652EC4
:1035500003D00234EAE7632EFBD1124B9B5C3A00A6
:1035600040321370190004229143422901D0442BA8
:1035700003D1BB6A0133BB6280E5432902D0452BEE
:1035800000D07BE5BB6A013BF5E70122059B040007
:103590001A7092E688A50200782E002053170300C7
:1035A000012040002318030030B507240278084D9D
:1035B000A24314000222224302707F22039C416036
:1035C0002240D400028883602A402243028030BD1A
:1035D00007FCFFFF10B50B00072401782340A1432F
:1035E00019437F23017004990A4C0B40D9000388CA
:1035F000426023400B430380039B04685905064B3C
:10360000C90A23400B430360029B8360059BC36090
:1036100010BDC04607FCFFFFFF03E0FF044B8860BE
:103620000B60044B08004B600023CB607047C04622
:1036300048A80200DF22020070B50E001049040005
:1036400000251EF032FB7368AB420AD8012B03D170
:103650000C4920001EF029FB0B4920001EF025FB21
:1036600070BD002D03D0094920001EF01EFBAB00E9
:10367000F3180122996820000AF068FE0135E2E79C
:10368000A723030050180300ED6403004D18030046
:1036900070B50D0001281ED0002803D0022807D0E5
:1036A000002004E04B680E48002B00D10D4870BD8F
:1036B00000260D4C6B689E4203D30120640020431A
:1036C000F5E7B300EB189968022000F09FFB40106B
:1036D00024180136EEE74B685B001843E7E7C04665
:1036E0008CB8020084B8020010A6020070B5060073
:1036F0000D000B48002E0DD0B41CA40020001FF0BC
:1037000063F9084B46600360002D03D00023083C9A
:10371000A34200D170BDE958C21891600433F7E7A5
:1037200010A6020018A60200F0B5070085B00E0032
:1037300014001D2803D90025280005B0F0BD012381
:103740008340324D1D4044D1314A13421FD1F822EB
:1037500092051342EFD020000AF0E0FD2D4B426AA3
:103760009A4205D020002C491FF042FA041E0CD0CA
:103770002300310062680833009208317268380013
:10378000FDF798FC254D0028D6D1254DD4E7200023
:103790000AF0C4FD204904F0B5F80028CBD07368C6
:1037A000626829009818FFF7A1FF070031007368CD
:1037B00008379A0005000831380026F01AFB21006E
:1037C00070686368800038189A00083126F011FB91
:1037D000B2E703A910000AF0C7FE0025A842ABD04B
:1037E0000398104D0028A7DD736800215843FFF7A8
:1037F0007DFF05002B003000083300930830039B49
:10380000726804211EF0F8F896E7C04680001000A8
:10381000200004001D36000018A602008CB802002B
:1038200084B8020010A6020030B5040085B0042A56
:103830002DD1032540680D401FD1164B0A689A42CE
:103840001BD101AAFDF7BAFB002802D1124801F0F2
:1038500069FA019B02982900C01AFFF747FF05008B
:1038600021006B6808319A00019B08309C000919FF
:1038700026F0BFFA280005B030BD0A000023010081
:1038800020680AF00BFF023080000559F2E700259E
:10389000F0E7C04658B1020052180300F0B50C0022
:1038A0001100002285B01E000092012320000BF0C1
:1038B0003BFA184D002C1ED03568AB0703D1164BD0
:1038C0002A689A4217D010201FF07EF800210400C9
:1038D000306800F003FC002504260390039800F0F4
:1038E0005FFC071E0AD128002100FFF7FFFE05003C
:1038F00020001FF098F8280005B0F0BDAE4205D8B2
:10390000F10020001FF07EF804007600AB001F518C
:103910000135E3E710A6020018A6020010B5040066
:10392000002906D0044B8A6B0360096800230CF061
:10393000E9FF200002F0BCFA08E10200F0B5040043
:1039400087B0039202936618002A06D0023A222A10
:1039500003D9354800F0F4FF0134B44229D220786D
:10396000FCF70EFC071EF7D123782B2B1CD101345A
:10397000311B200003AA1EF024F923181C00002587
:103980000193B44217D3002F00D06D4201236D0084
:103990001D43019B9C422FD12449039A24480CF0DB
:1039A00045FF0299FFF7BAFF2D2BE1D10134012722
:1039B000DEE70027DCE723781A00303A0092092A74
:1039C00007D9202213431A00613A192ADBD8573B42
:1039D00000930399009B9942D5D92800FDF732FD49
:1039E000002816D1039B5D43009BED186B006B40D4
:1039F0000FD40134C5E70134B44205D22078FCF776
:103A0000BFFB0028F7D1C7E7B442C5D1280007B0F3
:103A1000F0BD019B3A000593F11A05A8039B1EF027
:103A200089FF059C0500B4E7BA180300DD18030000
:103A3000F8E10200F0B504008BB00893431804923B
:103A40000193019B9C4200D3F6E02078FCF798FBA1
:103A5000071E38D123782B2B37D101340590019BD9
:103A60009C4200D3EAE0202322781A43692A33D10A
:103A70000199A21C914200D8E6E062781A436E2AAE
:103A800000D0E1E0A2781A43662A00D0DCE0E21D13
:103A9000E51C914214D9E2781A43692A10D122799F
:103AA0001A436E2A0CD162791A43692A08D1A27985
:103AB0001A43742A04D1E2791343792B00D10535D6
:103AC000FF26F6051BE00134BBE705902D2BCAD17C
:103AD0002C3B01340593C2E76E2A2ED10199A21C1A
:103AE000914200D8B0E062781A43612A00D0ABE07E
:103AF000A27813436E2B00D0A6E05D4EE51C059B1B
:103B0000002B02D080231B06F618A5427BD1594911
:103B10008CE03D002B786F1C18003038092834D811
:103B2000022E15D10A23029A53431B180293019BBC
:103B3000BB42EED8002304934DE00022079202928C
:103B40004D4A250006920022002603920993E1E7E0
:103B500017F0A6FC051C012E0DD1069917F02AF9C5
:103B6000011C039816F0B4FD43490390069817F022
:103B700021F90690DBE74149039817F01BF9291C4E
:103B800016F0A6FD00260390D1E7002E03D12E2BC0
:103B900003D10126CBE7022E16D0099A1A43652AD3
:103BA00012D1019BBB4256D96B782B2B05D1AF1C90
:103BB000019B9F42ABD00226B9E702262D2BA8D14C
:103BC0002C3BAF190793F3E7049A002A04D0202274
:103BD00013436A2B13D13D00079B002B02D0029B9D
:103BE0005B420293029817F011FC011C23481AF063
:103BF000CDF8039917F0DEF8049F061C7FE7002339
:103C00000493E9E70135019B9D4205D22878FCF732
:103C1000B7FA0028F6D17AE7019B9D4200D076E7FB
:103C2000089B002B01D1002F1AD01549154822F00E
:103C3000B1FC1099FFF772FE002305930023039354
:103C4000002325000493CCE7059B002B00D15EE701
:103C50002500002656E7019BBB4200D157E769E7E4
:103C6000032302209E43084B3043C0180BB0F0BD25
:103C70000000C07FA0180300CDCCCC3D0000204147
:103C800083180300F8E102000000808070B50AF09C
:103C900043FE0F4C0F4B0025A3620F4BE56263639D
:103CA00023002563A83303210C481D60A5640EF092
:103CB00015FD0B4E012130000EF010FD3000094AB9
:103CC000094922F0E0FE26606660E56570BDC046E9
:103CD000782E0020ECDE020010A60200B02E00209C
:103CE000C42E0020161200002612000070B5062413
:103CF000134EC3001C437368002205002100181DE9
:103D00000CF068FB021E18D1F06D002807D00430BB
:103D100021000CF05FFB002801D0406870BD00223C
:103D2000210008480CF056FB021E06D12A00064965
:103D300006480CF07BFD02F0BBF85068EEE7C04689
:103D4000782E0020E0BD02001B1A0300A0DF020055
:103D50000A4B10B5040018685B6898420AD0062127
:103D6000E3001943043000220CF034FB002801D09A
:103D7000406810BD2000FFF7B9FFFAE7782E002059
:103D8000074B10B5D86D002801D1064810BD04308E
:103D9000002205490CF01EFB0028F6D04068F5E72C
:103DA000782E0020A8BC02007E1100000A00C1008D
:103DB000062010B5024B0143186822F064FE10BDC6
:103DC000782E0020062110B5034BC000014318686F
:103DD00022F063FE10BDC046782E00200A00C1000C
:103DE000062010B5024B0143586822F04CFE10BD6E
:103DF000782E0020062110B5034BC00001435868FF
:103E000022F04BFE10BDC046782E002037B50500CD
:103E10000C00062806D108000AF0A6FC00280DD0E8
:103E20002C483EBDCB071BD54B10042816D816F0E6
:103E300053F903154E4E0700002BF1D02648F0E74A
:103E4000C0221206934204D18020C0051EF04CFD12
:103E5000E7E75B425B0001201843E2E7DB43F9E759
:103E600002281AD11D4B0B40062B08D08B0714D10A
:103E70000A681B4B92699A420FD1486802E0C80851
:103E800021F030F8002806D101A920000CF02CFF09
:103E900001990AF02FFD4300DDE720000AF03EFA09
:103EA0004369002B0DD10F4BAD002000ED5820F0E1
:103EB000BAFF2A0003000C490C480CF0B7FC01F0D3
:103EC000F7FF2100280098470028AAD1EBE7080057
:103ED000A7E7C04684B802008CB80200070080FF44
:103EE000C11A010038AD0200A71A030080E10200E8
:103EF000F7B50400019116001F000AF00FFA0569DA
:103F0000002D09D1200020F08EFF0649020006484E
:103F10000CF08CFC01F0CCFF3B003200019920003A
:103F2000A847FEBDAE19030080E10200F8B50E00FF
:103F300015001C00930714D113681E4A934202D146
:103F40006B682360F8BD1C4A934207D1002802D059
:103F50000AF0E4F906006B6848C4F3E7174A934295
:103F600001D12560EEE702275968154A8A18BA433D
:103F700002D0144A9142F4D1002817D1124A934238
:103F80000BD0124A934208D0114A934205D0114AED
:103F9000934202D0104A934208D10C201EF014FD27
:103FA0000E4B4660036085602060CBE72560606053
:103FB000C8E7C04684AC020048AC0200FCAC02007A
:103FC0005AFDFFFF7B020000CCAD020008AE0200EC
:103FD00044AE020080AE0200BCAE020090A6020019
:103FE000F8B500231360536006000D0014000AF0BA
:103FF00095F9124B07009D4205D1836A002B02D030
:104000000F4B48C4F8BDFB69002B04D022002900E7
:1040100030009847F6E7B86B0028F3D00621ED0092
:10402000294304301A000CF0D5F90028EAD0426880
:10403000230039003000FFF779FFE3E74602000074
:1040400070BD020070B5160004000D00FFF7C8FF38
:104050003368002B15D10B4EA3070BD10A4B2268F6
:104060009A4207D12B006268084930000CF0DEFB51
:1040700001F01EFF200020F0D6FE2B0002000449B4
:10408000F3E770BDD0DC0200FCAC0200341A030080
:104090005B1A030073B504000D0016000AF03EF928
:1040A000C369002B09D004220196009229006A46B8
:1040B00020009847009B002B0AD0200020F0B3FE80
:1040C0002B000200034904480CF0B0FB01F0F0FEA5
:1040D00073BDC0465B1A0300D0DC020073B5040058
:1040E0000D000AF01BF9164B426A06009A4225D0D1
:1040F000002D03D110201EF067FC0500736A002B11
:1041000011D16A460F492000FFF76AFF009B002B80
:104110000FD1200020F087FE0B4902000B480CF065
:1041200085FB01F0C5FE2900200098470028E8D053
:1041300076BD2900684605F059FBF9E72000F7E74E
:10414000534E020039020000CA19030080E1020048
:1041500037B504000AF0E2F8856A002D02D020008D
:10416000A8473EBD6A460B492000FFF739FF009B78
:10417000002B05D06A46290028001EF0E8F8F0E779
:10418000200020F050FE0449020004480CF04EFBD1
:1041900001F08EFE46020000FC19030080E10200DF
:1041A00030B505008FB0FCF7C1FE28000AF0B6F864
:1041B000846A002C05D02800A047040020000FB01E
:1041C00030BD6A4613492800FFF70AFF009B002B09
:1041D00016D002A801F046FE002807D16A46010069
:1041E0001EF0B5F8040001F05BFEE7E7039B0A4907
:1041F000186803F087FB0028E0D1039801F058FE0F
:10420000280020F010FE0549020005480CF00EFBC6
:10421000F4E7C04646020000CCE00200FC190300AF
:1042200080E10200F0B513688FB00793002800D03A
:1042300073E00400131D0393FF220B00090A1340CF
:10424000114001934B000693069A019B05919B1820
:10425000039A9B00D2580492039AD3185F68381EC1
:1042600009D00020BB0706D1944B3A689A4202D18C
:10427000380022F005FC059B1818049B4600002B13
:1042800050D1019B581C8319980000931EF09CFB91
:1042900026000500002C01D001260460019BB0001F
:1042A0009A002818039925F0A4FD019B9B190293FD
:1042B000029B9800059B2818DA00019B9900039B3C
:1042C000591825F096FD029A069B94466344019383
:1042D000002F12D003243C4000D0A9E0774B3A686D
:1042E0009A4200D0A4E0380022F0E2FB032306004B
:1042F000009373689C4200D27DE0019B029A029970
:104300009A1A52082B000798FFF7F2FD04002800C4
:104310001EF089FB20000FB0F0BD1300083303939B
:10432000546889E7049B9B072FD1049B644A1B6850
:10433000934202D0634A934227D10AAA09A904985A
:104340000AF076F9099B581C019BC0188319980044
:1043500000931EF039FB26000500002C01D0012639
:104360000460019BB0009A000399281825F041FDD4
:10437000019B0A999819099B80009A00281825F03A
:1043800038FD019B099A9B1890E7019B181D831922
:10439000980000931EF018FB26000500002C01D0A9
:1043A00001260460019BB0009A000399281825F0AB
:1043B00020FD019B0AA99B1904980293FFF78EFE2A
:1043C000029B04909C000498FFF7EAFE061E00D1B1
:1043D0006EE7009B029A934207D8D90028001EF08E
:1043E00011FB0500009B5B000093029B2E510133E3
:1043F00002930434E7E7B368E700D859002815D0E2
:10440000042813D0009B184205D12F4B02689A4212
:1044100001D122F06AFA019B019A9B00E850023216
:104420000192B268EB18D7197A685A60013460E7D4
:10443000B3210AAA89003800FFF704FE00210AAA66
:1044400008001DF084FF0021FFF748FE019B039048
:104450009E000398FFF7A4FE041E00D14DE7019BC8
:10446000009A01339A420BD853000093042B01D2D7
:1044700004230093009B280099001EF0C3FA050056
:1044800003231C4207D1104B22689A4203D120001B
:1044900022F02BFA04000AAA0C493800FFF7D2FDDB
:1044A0000AAA002101200C941DF051FF019BAC5180
:1044B00002330193AB1958600836CAE7C8E6020018
:1044C00018A6020070B20200D0B802003902000043
:1044D00070B50C0086B0160083071CD10368204A13
:1044E000934202D01F4A934215D102AA01A90AF0B1
:1044F0009FF8019BA3422CD31BD80023029DA00050
:10450000A34201D106B070BD9900421A043AAA58DC
:1045100001337250F4E702A9FFF7E0FD0023050024
:104520000193019B2800A34206D3FFF739FE002820
:10453000E8D022000C490EE0FFF732FE002808D038
:10454000019A0A49A31A5B189B0001329851019203
:10455000E7E7019A064907480CF068F901F0A8FC62
:1045600018A6020070B20200E81A0300FFFFFF3F26
:10457000C51A0300F8E10200F7B5FF240E00090A8E
:10458000264015000C40830731D10368384A934216
:1045900002D0384A93422AD101AA69460AF048F863
:1045A0000098331983425BD883009C46002301990D
:1045B0009A00A3420FD1B400801B0919C01AAD188C
:1045C0001EF062FD019B28601C1900230136013397
:1045D0009E4207D1F7BD6746BF1A043FCF5901334A
:1045E000AF50E5E79A0051426158A950EFE700212A
:1045F000FFF774FD002307000093009BB34218D31C
:10460000002108001EF040FD06003800FFF7C8FD3D
:10461000011E1BD1B168A14222D3A3008A00EB186E
:104620001E60AA18091B9D4214D130001EF048FDDF
:10463000D0E73800FFF7B4FD002811D0009AB31A74
:104640001B199B00013258510092D6E7300004F04C
:1046500009FEDAE7F468D01A2058043B1860E2E754
:10466000009A054905480CF0E1F801F021FCC0462C
:1046700018A6020070B20200C51A0300F8E1020099
:10468000F0B591B01D0006000C00170009F046FEC1
:10469000334B984207D12B003A002100300009F03B
:1046A00059FD11B0F0BD826A2E4B002A08D09C4201
:1046B0002FD13000904728600028F2D00120F0E789
:1046C0009C4226D101AA28493000FFF789FC019BB2
:1046D000002B0DD1A82101AAFF313000FFF7B2FC59
:1046E000039401AA002101201DF031FE2860E5E7B6
:1046F00004A801F0B7FB002807D101AA01001DF0B2
:1047000026FE286001F0CCFBD8E7059B2B60022039
:10471000C7E7002CDED1380009F000FE134903F092
:10472000F1F801AA00280ED011493000FFF758FC1B
:10473000019B002B11D001AA210020001DF007FED3
:1047400028602000ADE7CC2130008900FFF748FC4D
:10475000019B002B01D00397C3E72F60D7E7C0462A
:1047600000C1020034B0020046020000C0DD0200B9
:104770007A02000010B504000CF09EF8002808D062
:10478000002320001A001900FFF7B2FB04002000EC
:1047900010BD200021F002FF0028F8D10249034893
:1047A00021F0F8FEF2E7C0467D1A030080E1020026
:1047B0007FB5C30006201843054B019004910520E6
:1047C00001A902930393059201F090F807B000BD90
:1047D00034B002001423F0B58DB000AFFA18050014
:1047E0000C00FFF7FDFBBB69002B06D022002C4913
:1047F0002C480CF01BF801F05BFB786900284CD1C9
:10480000280001F0CBF90028F0D014239121FA18E8
:1048100028008900FFF7E4FB10227869B9180CF032
:1048200081FEB860200020F062FB6A463E69B968EC
:10483000731C7B60C318FB600E33DB08DB00D31AEC
:104840009D466D463200280025F0D3FA2E23AB5545
:104850007B682000EB18BB6020F04EFB06002000B8
:1048600020F045FB31000200B86825F0C2FAF96873
:1048700028000AF08FF8C300062018430A4B1022C4
:104880003B627B62094BBA18BB620123FB620B33AC
:10489000F861D118052001F029F8BD460DB0F0BD32
:1048A000E6190300FCDD020034B002008CB80200FF
:1048B000F0B5174C0F00616895B0039121680600B0
:1048C00008A804916260236001F0CCFA051E06D0AE
:1048D000039B09986360049B236001F0E9FA336845
:1048E0003A00310005A8019308F012FE2B002A00BF
:1048F000019905A806F070FE1DF01AFD050001F0F3
:10490000CFFA2800039B6360049B236015B0F0BDC1
:10491000782E002010B50400FBF720FF031E054889
:1049200002D005491DF04FFD220004490BF07EFF27
:1049300001F0BEFA64DF02001D19030046190300EE
:10494000010010B501481DF03EFDC046F8E102002F
:10495000F0B58BB004900F000392202803D1914250
:104960000FD0AF4EBFE0049B1B2B01D01E2B0DD1EF
:104970000399380009F068FD049B002803D01B2B25
:10498000EFD1A84EAFE01B2BFBD1EAE7049B212B14
:104990003FD103980BF090FF002806D00399380010
:1049A00021F002FE0028ECD1DBE70324039B1C402E
:1049B00005D1039A9C4B126805929A4223D0049B1E
:1049C0009A4A9B0038009C5820F02DFA0500039865
:1049D00020F029FA2B0000902200954995480BF011
:1049E00025FF47E1039AA300D3189D6828000BF028
:1049F00063FF002800D158E12900380021F0D4FDE0
:104A00000028BED10134039B5B680593A342E9D81B
:104A1000A7E70126314200D116E1039B4D101E404D
:104A200000D1E7E05C10049B1D2BC8D8180015F0DE
:104A30005DFB1E0028002A002D0045004C004E00A2
:104A400050005D0066007B008300B4001E0028005B
:104A50002A002D0045004C004E0050005D0066000D
:104A60007B008300CC00D000C6FFD400D8002543D3
:104A70002E0070000300734000D5B6E00126064307
:104A800031E06540F4E72C402600F2E7002C02DA22
:104A90006948FFF755FF1F2C08DC684B2341AB42E8
:104AA00004DBC0231B062341AB4205DDE9172800C8
:104AB0001DF00BFF07004BE0A540D9E7002CE7DB1A
:104AC0001F2C00DD1F242541D2E72E19D1E72E1B14
:104AD000CFE721002800FCF7B5FC0028E6D101262D
:104AE00065436D002E4330000BB0F0BD002C00D1AB
:104AF000DDE0210028001DF0B1F80600B9E7002C28
:104B000000D1D4E0280016F081FC051C200016F02E
:104B10007DFC011C281C15F075FF03230226984319
:104B2000474B0643F618DEE7002C00D1BFE021001A
:104B300028001DF083F8E0E72F00002C2ADA280077
:104B400016F064FC0323022798433D4B0743FF18EC
:104B5000380009F0E3FB8369002B00D12FE7039AAB
:104B600039000498984756E001231C4206D03900CA
:104B70003000FCF767FC002898D17E43012C00D15F
:104B800077E7390038006410FCF75CFC002800D09F
:104B90008CE77F43002CE7D16BE7002C00D186E047
:104BA00000210220FEF7A2FD2100060028001DF0D2
:104BB00055F8012740003843B060210028001DF05F
:104BC0003DF8B8400743F7608DE7A54200DAD8E624
:104BD000C7E6A54200DDD4E6C3E6A54200DCD0E688
:104BE000BFE6A54200DBCCE6BBE630001DF07CFE54
:104BF000060078E70323039A1340022B24D1114BBC
:104C00001340062B20D0280016F000FC039A011C4C
:104C100004980BF0F9FA061E00D064E7CFE6C04610
:104C200084B802008CB8020018A60200B0AB0200E3
:104C30008919030080E1020074190300FFFFFF3FA0
:104C400000008080070080FF049B1F2B00D07FE7BF
:104C5000039809F063FB83690400002B0CD1636A9D
:104C6000002B11D1039820F0DEF8134902001348FD
:104C70000BF0DCFD01F01CF93A0003990498984709
:104C8000061E00D02FE7EAE706A90398FFF726FAE9
:104C900004002000FFF784FA002800D161E6390003
:104CA00009F0D2FB0028F4D06BE6039587E60449AF
:104CB00004481DF088FBC046CA19030080E10200C9
:104CC0003E13030034E20200010010B501481DF05C
:104CD0007AFBC04680E10200F8B504000D00170021
:104CE0001E00002908D0186809F018FB6368834289
:104CF00002D00548FFF7E8FF33003A002900A0681A
:104D0000FFF7F6F8F8BDC046051903000121400081
:104D1000014310B5024821F036FC01F0C9F8C04645
:104D200018E00200010010B501481DF04CFBC04620
:104D3000DCDF020010B50C001DF013FE631E1842EC
:104D400007D002002300034903480BF06FFD01F078
:104D5000AFF810BD101B0300F8E1020010B54A685F
:104D60000249D2001DF062F810BDC046381B030096
:104D700070B50B0006001400101E0FD071681800EB
:104D8000042A0ED1FFF7D6FF7368012B03D0022B44
:104D900005D0006800E000781DF0A6FD70BD008819
:104DA000FAE7FFF7C7FF0500200009F0CBFB7268A8
:104DB00003000548012A03D0022A03D02B60EDE747
:104DC0002B70EBE72B80E9E734B00200F7B50378EE
:104DD0000400002B1FD0402B20D10123019300237E
:104DE00004221E001D00190094462278002A3ED19C
:104DF0000132002910DC002D0EDC002E0CDC033B00
:104E0000934209D9013C23785C2B05D001990029F4
:104E100001D00A2B00D100221000FEBD3F491DF039
:104E2000DCFA0028D9D13E4920001DF0D6FA00282E
:104E3000D3D13C4920001DF0D0FA0028CDD13A4909
:104E400020001DF0CAFA0028C7D1384920001DF003
:104E5000C4FA0028C1D1364920001DF0BEFA00284E
:104E6000BBD1344920001DF0B8FA0190B7E767784C
:104E7000272A11D1002B4DD0032B09D1272F05D183
:104E8000A278272A04D10234243AD31A0134ACE799
:104E9000012BFBD80122F8E7222A11D11A00604623
:104EA000824309D1222F05D1A278222A02D10234CD
:104EB0006246EAE7002B01D0022BE7D10222E4E7A9
:104EC0005C2A0AD1272F03D0222F01D05C2F04D1D6
:104ED0001A00571EBA41A418D8E7002BD6D15B2A76
:104EE00012D006D8282A0DD0293A57425741C91B5B
:104EF000CCE77B2A0AD07D2A0AD05D3A5742574137
:104F0000ED1BC3E70131C1E70135BFE70136BDE75E
:104F1000013EBBE7272FBDD1B2E7C046E61703002D
:104F200017180300FD170300131803004581030041
:104F300022A503001A1E0300F0B58BB00793431897
:104F40000390049201930093009B5C1E039BA34279
:104F500001D9009310E02078FBF71EF9002801D05A
:104F60000094F1E72078FBF723F90028F8D12378A3
:104F70005F2BF5D02E2BF3D07D4B1D68009C019B41
:104F80009C4202D223782E2B21D1009BE71A019B51
:104F90009C4241D30024260002940194AB68A342B2
:104FA00056D8019B002B00D084E0009B039A9342CB
:104FB0002FD1704C3A002100180024F00BFF00287C
:104FC00027D1079BE41907301C60C01B22E0013485
:104FD000D5E70136AB68B3421BD9F3000293EB6807
:104FE000F20098580028F4D00428F2D009A90CF057
:104FF00099FA099B0100BB42EBD13A00009824F0DA
:105000006FFF0028E5D1EB68029A9B1858680028CA
:1050100004D100200BB0F0BD0026DBE703231842CB
:105020000CD10368544A934205D11CF065FD05007C
:10503000631C0093A2E7514A934201D009F06EF934
:10504000856B002DE5D04E4B2A689A42F0D0E0E700
:10505000EA68E300985800281CD004281AD009A94F
:105060000CF060FA099B06900593BB4212D3010035
:105070003A00009824F034FF00280BD1029B002B4B
:1050800012D03B009E4202D3059A9A4204D2019B61
:1050900001330193013481E7029AD15C069AD25C14
:1050A000914205D10133EDE7069B059E0293EEE7A1
:1050B0001E00ECE7019B012B01D0BE4254D9029B9C
:1050C000079ADB191360F01BA4E7029BEA68DB0078
:1050D000985800283AD0042838D009A90CF022FAB0
:1050E000099B03900593BB4230D301003A0000981E
:1050F00024F0F6FE0190002828D133000F220F3350
:10510000DC171440E41824112401A41B012C00DC3A
:105110001034059A33199B18402B0DD9039A19495D
:1051200004981CF083FE099E10E0174904981CF0B7
:10513000BCFD019B01330193019B9C42F5DC03996B
:1051400004981CF0B2FD099BF6183619029B013336
:105150000293AB68029A9342B7D80C4904981CF0AA
:10516000A4FD0120404255E7002340260293F0E7CA
:10517000782E0020481B03007CA30200FCAC020038
:10518000C8E60200501B0300CDA003007B1C0300F7
:10519000F0B589B0002807D1664B674819681CF044
:1051A00084FD664809B0F0BD0D68654B9D425BD13A
:1051B000002108001DF068FF002405000590614BE8
:1051C0005A680192944217D300255F4A05A901202D
:1051D00004F0A8F807AA06A905981DF06CFF069B25
:1051E00003339B0801939B000393019B524EAB42F8
:1051F00010D156493000D2E79B680193019AE30031
:105200009958002904D0042902D0280004F02AF873
:105210000134D4E72F00AB000293079B029A985801
:105220000CF06AF9010030001CF03FFD019BFF18F3
:10523000069B9F4212D212231C1A002C07DD013C50
:1052400007D2039A029B944663440293E5E7123423
:10525000F3E73F4930001CF028FDF0E73D493000FE
:105260001CF023FD0135C0E7280009F057F83A4B40
:1052700042689A4200D16D68280006F047FB061E7E
:1052800000D08EE72C4C354920001CF00EFD31007B
:10529000280009F075F828001FF0C5FD304902000C
:1052A00020001CF0C3FDAB0732D12B682D4A93427E
:1052B0002BD128001CF020FC21F0FAFB0025060071
:1052C000A84200D16DE773689D4200D369E7B268D8
:1052D000EB00D3181F68002F15D05B68224920000F
:1052E00001931CF0E2FC0021380009F049F81F4945
:1052F00020001CF0DAFC0021019809F041F8154962
:1053000020001CF0D2FC0135DDE7194A934203D09E
:10531000280009F003F80500A86B002800D140E739
:10532000830700D03DE7134B02689A4200D038E76C
:10533000C2E7C0461400002050A5020034B00200AD
:1053400056170000A0A20200ECDA0200541B030072
:10535000CDA003007B1C03006E020000781B03003D
:10536000801B03007CA30200CCA00300901B030061
:10537000FCAC0200C8E60200F7B50600194D0C00AF
:1053800028001BF04FFD310017481BF0D1FC1748D7
:105390001BF048FD16481BF045FDFF239B00E61857
:1053A00021787F2901D0A64206D128001BF03AFDC2
:1053B00010481BF037FDF7BD6278A37850290CD850
:1053C0000D48475C0D48405C019300923B00020091
:1053D0000B481BF0ADFC0434E2E70A481BF0A8FCC4
:1053E000F9E7C046481C0300751C03007D1C030040
:1053F000061C0300241C0300EC1603009B1603008C
:105400009E1C0300C11C0300F0B51D0087B0060000
:105410001A4817000C001BF005FD290018481BF066
:1054200087FC18481BF0FEFC17481BF0FBFCAD0086
:105430006519AC4204D111481BF0F4FC07B0F0BD73
:105440003878A2780490206823780003400E0390F7
:10545000E0789B060009029020883178C004400E55
:105460000190E0789B0E0007000F0090120907489A
:105470001BF05EFC043401360137DAE7481C0300F8
:10548000951B0300C21B0300F41B0300261C030032
:1054900010B5040008201DF097FA024B4460036029
:1054A00010BDC0462CA70200F8B5214E35686968CA
:1054B00001292DD9AA684B1ED05C0A2828D1002BBF
:1054C00001DC1C0009E0581E145C0A2CF9D0030012
:1054D000F5E7105D202802D10134A142F9D8002B54
:1054E0000BDD601C814208D1581E002805D0013810
:1054F000175C0A2F0CD0202FF7D05218023AE31A6B
:1055000014789B083A3C624254411C19002C00D18B
:10551000F8BD084F0422390028001FF0E9FE0421DD
:1055200038000EF067FF3369013C04333361EDE767
:10553000B0010020CAA0030010B5202200210248BB
:1055400024F073FC10BDC046D82E0020084B10B5C7
:10555000426818600020986018750138D86008000B
:105560005A601A61996122F023FAFFF79DFF10BD7E
:10557000B0010020F8B503780400002B1ED0104DB8
:10558000286E002804D0210024F099FC002815D0B2
:10559000200024F09EFC471C38001DF022FA061E55
:1055A0000CD03A00210024F024FC2A00054B5C3288
:1055B0001968043B99609342FAD12E66F8BDC04643
:1055C000782E0020F02E0020F0B5B84C02002068A4
:1055D000A568436885B00193002D00D0FDE0531EFF
:1055E000042B11D8636801998B4200D195E0012A00
:1055F00000D12AE1022A07D123696268934200D9C7
:105600004FE10122524288E0032A00D185E0042ABA
:1056100000D12FE1052A00D107E1062A0ED1236926
:10562000019A9342AD416D42002DEADD23682900C5
:1056300098682369C0180EF0DDFE1FE00B2A21D107
:10564000019B2269991A1FF013FF2368019A5B6876
:10565000934204D213002269981A0EF001FF2268C7
:10566000236951689068C91AC0180EF0C3FE2368F8
:1056700058682369C01A401B0EF0E0FE23695D19CB
:105680002561BEE70E2A13D1E368002BB9DB013B8D
:10569000E3606268019B991A1FF0EAFEE368002B41
:1056A00018DB1633824A9B00D318996820680FE0F4
:1056B000102A16D1E368062BA3DC5D1C7C4A173345
:1056C0009B00D318996800299BD06368E56043600C
:1056D0001FF093FE63682269D61A22685568ED1A96
:1056E0000AE0152A0CD12369626861689A1A1FF0D2
:1056F000C7FE236962689E1A0127002E2FDCA4E7EB
:105700000D2A0DD16B4822F053F920681FF05AFE84
:105710006368C018FFF72EFF0022100005B0F0BD2F
:1057200001231B2A62D0082A01D07F2A20D12169B7
:105730006268914200D864E700238668B618F75C77
:10574000202F13D101339F18B942F8D80426032B18
:1057500000DC033E891B32001FF092FE012730005F
:105760000EF06CFE23699E1B266178E00126F1E7AE
:10577000092A28D1636822698068D11AC0184E4A64
:1057800003ABFFF7D9FB061E00D13AE70027431C05
:105790000BD1A06922F00CF963682269D11A226842
:1057A0009068C0180EF026FE4FE723692068F918AC
:1057B000039B01375A1C03921A781FF047FEBE4222
:1057C000F3D1350041E71300203B5E2B00D918E7E9
:1057D00021691FF044FE012537E7012D08D104237C
:1057E0004F2A03D002235B2A00D00023A36008E7DE
:1057F000022D20D11300303B092B03D8032322753F
:10580000A360FEE60023A360412A00D152E7422AAA
:1058100000D139E7432A00D101E7442A00D1EBE661
:10582000482A12D0462A00D0EBE60027019B2269C5
:105830003E009D1A0EE00021032D29D17E2A24D19D
:10584000237D312B01D0372B0DD100252F0023696B
:1058500062689E1A0023A3609E4200DD7FE7002F4E
:1058600000D1E1E6F1E61A00FB25343A2A42DCD009
:10587000332B0AD12169019B994206D201221FF0E4
:10588000FFFD002501272E00E4E700252F00FAE7A1
:10589000042D04D1462AC8D0482AD6D0A5E7A16055
:1058A000AFE6002501262F0059E7C046B0010020D1
:1058B000782E00207A1C030050A5020010B50400C9
:1058C0001FF080FD21F06AFB01280BD00649200063
:1058D0001FF093FD20001FF075FD21F05FFB0228F3
:1058E00000D0002010BDC0461E1D0300F0B59DB0C5
:1058F00000AF0C68032835D9CB68FB60042835D08D
:105900000D6900206D102BD41C232000F9180BF01A
:1059100009FE7861002D5AD0954C964960680CF0CC
:10592000CBFE060060680022934904300AF052FD65
:105930001823FA18D118040030000BF0F3FD3B6B6C
:10594000013D0100C318002C05D1994203D2013B4F
:105950001A782E2AF9D1013D0ED299420FD18748EB
:10596000FEF7EEFF864B0025FB60CDE70025CBE779
:10597000013B1A782E2AEED09942F9D3EBE7FE6963
:105980005C1A2500002E01D0751C2D192B006A46CB
:105990000E33DB08DB00D31A9D46220018003B6162
:1059A00024F027FA002E08D02E233A69601C1355E4
:1059B00010187969320024F01CFA2900386908F0BF
:1059C000E9FF06243B69C0000443FD617B612000C0
:1059D0000BF072F9FBF76CFC061E15D02E217869CE
:1059E00024F05FFA00280BD0654BFA689A4207D181
:1059F0007B69C11A180008F0CDFFFBF759FC0600BF
:105A00003000BD461DB0F0BD182318000125FA185E
:105A1000D2183818103B4021C0181FF09EFCBE6001
:105A20003E61FB69AB4205D2554BFA689A42E7D01A
:105A3000BE68E5E7AB4204D07B695B5D2E2B00D0EE
:105A400093E02900786908F0A5FF7B6A3860002B95
:105A500017D12A00082479691833F81800191FF0A3
:105A600047FC1823FB181819FFF728FF78607B689C
:105A7000002B14D13A68434943480AF0D7FE00F09E
:105A800017FA18230824FA182F21101909F058FCC6
:105A90003B693969EA1A7B6959181823DDE73868C8
:105AA000FBF706FC041E4AD13868FBF7CFFBFB6905
:105AB0000400AB4213D1354BFA689A420FD17B6890
:105AC000012B0FD0324A2B49406820F0DCFF18220E
:105AD0000823BA18D11820001CF0A8FC2FE07B681E
