:020000040000FA
:10000000004000204D9D0100899D01008B9D010055
:1000100000000000000000000000000000000000E0
:100020000000000000000000000000008D9D0100A5
:1000300000000000000000008F9D0100919D010064
:10004000939D01005D37010021960100939D010001
:10005000939D01000000000085970100939D010021
:1000600031140100C599010095940100939D010090
:10007000939D0100939D0100939D0100939D0100BC
:10008000939D0100939D0100939D0100939D0100AC
:10009000939D0100AD8C01003D8E01006D150100A6
:1000A0007D150100939D010000000000000000008C
:1000B0000000000000000000000000000000000040
:1000C00010B5064C2378002B07D1054B002B02D02E
:1000D000044800E000BF0123237010BD2001002070
:1000E000000000002CA70300044B10B5002B03D028
:1000F0000349044800E000BF10BDC04600000000F6
:10010000240100202CA70300164B002B00D1144B18
:100110009D46402292029A1A924600218B460F4633
:100120001348144A121A29F050FE0F4B002B00D02E
:1001300098470E4B002B00D0984700200021040068
:100140000D000D48002802D00C4800E000BF20F050
:1001500033FD2000290029F07EFB20F079FCC04609
:100160000000080000400020000000000000000027
:1001700018010020E02F0020000000000000000017
:10018000004870470148E80110B50DF05FF880F3B2
:100190001088014810BDC046A8A30200F8B5124A55
:1001A0000E00124B124990421AD0C4688C4203D000
:1001B000012430602000F8BD406B002812D0046894
:1001C0009C42F0D10500002447680835BF00EF19B4
:1001D000BD42EFD2310001CDFFF7E0FF2418F7E771
:1001E0000024E7E70400E5E728C002007CBD020028
:1001F000E5020000F7B505000C00AB68002B0AD043
:10020000344AE168914206D0E358002B03D004221F
:10021000EB681A60F7BDA06B002820D06B68043033
:10022000D90006230022194304F0F8FD002816D057
:10023000297C4268EB682868002904D0010000206E
:1002400000F080FEE6E7002807D02249E5688D42ED
:1002500003D021498C4200D000692100F0E72B68CF
:10026000002B16D1646B002CD4D01C4B22681A4F83
:100270009A420BD126006368194A08369B189B00E6
:10028000F3180193019B34689E4216D3BC42B4D14B
:10029000C0E72A7C002AE5D10E4AE1689142E1D00C
:1002A0000D4A9442DED01869EA68696800F0A2FE3F
:1002B000EB681B68002BD5D0ACE7BC4201D10436FB
:1002C000E0E721002800FFF795FFEB681B68002B93
:1002D000F5D09FE7E502000028C002007CBD0200C7
:1002E000FFFFFF3FF0B58FB00E0005A9019202930A
:1002F0000700FFF753FF041DA400200025F0E4F8D9
:100300000500002180C022F0B4FD22002800103A30
:100310001030002129F059FD012E05D1029B1B68E8
:100320000393042B00D186E007AC082200212000B3
:1003300029F04BFD414A09A8002342600C223900F4
:100340008260C46003740993FFF754FF0798042880
:100350002ED10598029BC468019A3100A0472861FC
:1003600028000CF08BFEB84265D10023344A3900D6
:1003700009A8089307930B9309950A92FFF73AFF90
:10038000079B002B57D00198304336D107AA0100B4
:1003900021F09DFA04002B4B9C424CD0200024F00D
:1003A0004CFD29490200294811F0AAF90EF0A8FBDA
:1003B0000028D5D0019A324306D106AB0121069719
:1003C00000F0A2FD0500CBE7019B5D00AD190135F2
:1003D000AD00280025F078F82A1F0390029980C00C
:1003E00029F0D7FC711C039B019A206800F08CFD5A
:1003F0000500039825F097F8B2E7019B5C00A4196B
:100400000234A400200025F05FF822000700079BBB
:10041000029903600393089B083A4360083029F06F
:10042000B8FC3A000199300021F051FA040038007C
:1004300025F079F8AFE728000FB0F0BD5A020000B0
:1004400052020000A8A30200C7130300E0E5020067
:10045000F0B5146889B01700002C0ED1436803ADC5
:1004600082686960596B0392AC60EF602C7400295C
:1004700005D111492800FFF7BDFE09B0F0BD0F4BB3
:100480000A689A4210D14B6808310E000193019B13
:100490009C42EED0A300F1582800FFF7ABFE3B686A
:1004A000002BEAD10134F2E72800FFF7A3FE3B68F6
:1004B000002BE2D1DDE7C04628C002007CBD02006F
:1004C000F0B5062514001268CB0006008BB00F00B3
:1004D00004301D43002A28D1290004F09FFC002885
:1004E00002D0436823601EE005AB187407903168A2
:1004F0001800059606970894FFF77CFE2368019381
:10050000002B10D111498F420DD002AA300000F00B
:1005100071FD029B002B06D002AA019901200495CF
:1005200021F0D5F920600BB0F0BD6668002E07D130
:100530000222290004F072FC0028F4D00023D1E745
:100540000122290004F06AFC4660F7E74D02000032
:1005500010B54A68014924F041FF10BDC4140300DE
:10056000F0B58BB005000E0014000021082268468B
:1005700029F02BFC0021102206A829F026FC2023BC
:1005800007936B46059508932968002C10D1922398
:100590009B0005A80693FFF72DFE0221009F042F64
:1005A00011D12200310028690CF0D8FF0BB0F0BD4A
:1005B000042C01D10A4BECE70A4B05A80693FFF780
:1005C00019FE0321EAE7381EF0D002AB00220295A3
:1005D0000396049400F098FC042CE7D00248E5E769
:1005E0004E02000061020000A8A30200F0B51F4BFC
:1005F0008BB08200D35803AF0C0008220021060004
:100600003800019329F0E1FB019B05AD6B601423D9
:10061000AB600023280021680594EF602B74FFF77E
:10062000E9FD0398042805D12169300000F0FAFBA8
:100630000BB0F0BD00280AD0210021F040F9022EB5
:10064000F6D10CF02FFE440001202043F0E7022EEB
:1006500001D00020ECE7064B216828006B60FFF713
:10066000C9FD3B68002BF4D16400EDE768A20200ED
:100670004A020000F0B556425641032376428BB041
:100680001E40294B0C0001900021170003A80822EE
:10069000F61829F09AFB0823079303AB089300236D
:1006A00005AD216828002B7405940696FFF7A2FD7E
:1006B000039B002B08D1002F06D11B4B216828007B
:1006C0006B60AF60FFF796FD039804281AD120698C
:1006D0000CF0D4FC154BC2689A4211D1002F07D000
:1006E0002368586824F0C6FE0100019824F0B5FD87
:1006F00080223A43216901980CF0D8FC0BB0F0BD80
:100700003A00F7E7002805D0210021F0D8F80022B0
:100710000100F0E7200024F090FB230002000449D0
:10072000019824F05BFEE9E75F020000C5150100B7
:100730007613030070B504000D000B4924F08DFD05
:100740006968002220000CF0B1FC0849200024F068
:1007500084FDA968002220000CF0A8FC04492000B8
:1007600024F07BFD70BDC0467F1403008814030095
:10077000CF14030010B5C468002C06D142680449A8
:10078000044810F0BDFF0EF0BBF9A04710BDC046F5
:100790008B140300E0E50200F0B589B001AE04005F
:1007A00008220F003000002129F00FFB104B03A896
:1007B00043600025242321688360C6600574039488
:1007C000FFF718FD019B1800AB4208D0042B08D19D
:1007D00020690CF053FC3900436A2069984709B03E
:1007E000F0BD32002900280021F071F8F7E7C0467B
:1007F00053020000F0B5154B89B016008200D558A1
:100800000C000C2200210700684629F0DEFA1823AC
:1008100003A84560836000256B462168C36003948C
:100820000574FFF7E7FC009B042B06D13200216919
:10083000380001F09BF809B0F0BD181EFBD06A46E5
:1008400029000120029621F042F8F4E7E0A002001E
:10085000F0B517008DB0184A040007A84260039352
:100860001022002305AD0E0021688260C56003746C
:1008700005936B600794FFF7BDFC0598002809D12C
:10088000200024F0DAFA0D4902000D4810F038FF7C
:100890000EF036F9039B042806D13A003100206996
:1008A00000F032FB0DB0F0BD009332003B006968F0
:1008B00022F022FAF6E7C04645020000AB1303001F
:1008C000E0E5020010B50B4C88B00022049410241F
:1008D00003AB01A903900691016818001A740192F4
:1008E00002920594FFF786FC0198431E9841C0B21E
:1008F00008B010BD45020000F0B50D0085B001A99B
:1009000007001600280002AA23F038F900230199F5
:10091000029899422CD13C2024F0E8FD2A4B019A00
:1009200003602A4B04008360294B4760C360294B56
:100930000361294B4361294B8361294BC361294BD7
:100940000362294B4362294BC362002A06D0029BF3
:100950001968096B0163012A18D94563A66303A9C5
:100960002000FFF71BFC012813D9214801F0BAF938
:100970009A008258D468002C06D152681D491E483E
:1009800010F0BEFE0EF0BCF80133C2E71B684363F3
:10099000E4E7A36B0022181D184904F03FFA051E76
:1009A0000ED0032243681A400AD11968144B4968D3
:1009B000994205D1031D0121124820F0C4FE686050
:1009C000200005B0F0BDC0462CA202007506000054
:1009D000E502000051080000ED050000F5070000E9
:1009E000C10400006105000099070000EF17020034
:1009F0005114030028140300E0E50200D6120000A1
:100A0000BB020000B4A1020037B50D001C0000239A
:100A1000110000930122033328000FF0F7FD012D90
:100A200004D0032D06D0074801F05CF920680CF0D3
:100A300025FB3EBD206806F0D5FEA2686168FFF781
:100A40005BFFF6E7A81403001FB5064B0A000193ED
:100A50004B6802938B68010001A8039300F0FCFA35
:100A600005B000BDF0A10200F8B50E000327134940
:100A7000134AB0421CD003003B401BD104688C4297
:100A80001AD1406B002814D003689342F1D10500BD
:100A900044680C4B0835E418A4002C192868A542BA
:100AA000E5D23100FFF7E0FF002802D10435F5E779
:100AB0000120F8BD0020FCE71800FAE72CA2020094
:100AC0007CBD0200FFFFFF3FF0B585B0050001913E
:100AD00008008B0717D10B68134A93420BD10123EF
:100AE000029301AB03930024029E039FA6420DD103
:100AF0000E4805B0F0BD0E4A934204D103AA02A9E4
:100B000023F03CF8EFE70B4801F0ECF8A300F958AC
:100B1000094B994206D02800FFF7A6FF002801D113
:100B20000134E3E70548E4E72CA2020028BD0200F7
:100B30007CBD0200EF13030028C0020030BD02009C
:100B400010B5830703D1054B02689A4202D00448CE
:100B500001F0C8F8FFF7B8FF10BDC0462CA2020094
:100B600088130300F0B50E001100002285B0B71CF9
:100B700003901C0030000D4B0092BF000FF046FDAB
:100B8000380024F0A1FC466006000500039B083FE6
:100B900003600836E719BC4202D1280005B0F0BD59
:100BA000002101CC00F0A4FA01C6F4E7FFFF000029
:100BB000054B10B59A6C002A04D00022986C9A64F8
:100BC0000DF09EFF10BDC046802E002010B5040021
:100BD0000FF0C4FD074B02001B690749074824F0CA
:100BE000FDFB02F0B7FD012C01D102F0D5FD044858
:100BF00010BDC046802E0020D114030070C2020038
:100C0000A8A3020010B50CF021FB03F0E3FC01489F
:100C100010BDC046A8A3020010B502F099FA014821
:100C200010BDC046A8A3020010B502F087FA014823
:100C300010BDC046A8A3020010B586B0040005ABE5
:100C400004AA03A902A80EF08FFB059B029A019348
:100C5000049B064900930648039B24F0BFFB012C2C
:100C600001D10EF0BDFB034806B010BDE614030031
:100C700070C20200A8A3020010B5084C002805D1DC
:100C8000A834236801305B00184310BD08680CF0DD
:100C9000DDFAA83420600248F7E7C046802E002025
:100CA000A8A3020070B50EF0B1FA0F4C0F4B00254F
:100CB000A3620F4BE562636323002563A83303211E
:100CC0000C481D60A56405F09BFB0B4E0121300014
:100CD00005F096FB3000094A094922F0C0FA266067
:100CE0006660E56570BDC046802E00204CE30200C2
:100CF00074BD0200B82E0020CC2E0020BE120000D1
:100D0000CE12000070B50624134EC3001C43736856
:100D1000002205002100181D04F080F8021E18D1E1
:100D2000F06D002807D00430210004F077F8002887
:100D300001D0406870BD00222100084804F06EF820
:100D4000021E06D12A000649064810F0D9FC0DF013
:100D5000D7FE5068EEE7C046802E002098B1020012
:100D60003916030000E402000A4B10B504001868AD
:100D70005B6898420AD00621E30019430430002240
:100D800004F04CF8002801D0406810BD2000FFF7A7
:100D9000B9FFFAE7802E0020074B10B5D86D002868
:100DA00001D1064810BD04300022054904F036F890
:100DB0000028F6D04068F5E7802E002060B00200E1
:100DC000261200000A00C100062010B5024B0143A4
:100DD000186822F044FA10BD802E0020062110B5BC
:100DE000034BC0000143186822F043FA10BDC0460F
:100DF000802E00200A00C100062010B5024B0143DE
:100E0000586822F02CFA10BD802E0020062110B563
:100E1000034BC0000143586822F02BFA10BDC046B6
:100E2000802E002037B505000C00062806D10800EA
:100E30000CF04AFB00280DD02C483EBDCB071BD53B
:100E40004B10042816D819F0AFF803154E4E0700C2
:100E5000002BF1D02648F0E7C0221206934204D1BD
:100E60008020C00521F0E5FCE7E75B425B00012044
:100E70001843E2E7DB43F9E702281AD11D4B0B4088
:100E8000062B08D08B0714D10A681B4B92699A4233
:100E90000FD1486802E0C80824F0E2FA002806D121
:100EA00001A9200006F0B6FC01990EF09DF943005F
:100EB000DDE720000CF0E2F84369002B0DD10F4B69
:100EC000AD002000ED5823F0B8FF2A0003000C49C4
:100ED0000C4810F015FC0DF013FE21002800984777
:100EE0000028AAD1EBE70800A7E7C04628BD02000A
:100EF00030BD0200070080FFED85000068A20200FF
:100F0000C5160300E0E50200F7B5040001911600E4
:100F10001F000CF0B3F80569002D09D1200023F063
:100F20008CFF06490200064810F0EAFB0DF0E8FDD0
:100F30003B00320001992000A847FEBDAB1303001F
:100F4000E0E50200F8B50E0015001C00930714D16F
:100F500013681E4A934202D16B682360F8BD1C4A95
:100F6000934207D1002802D00CF088F806006B6885
:100F700048C4F3E7174A934201D12560EEE7022700
:100F80005968154A8A18BA4303D0A42292009142A4
:100F9000F3D1002817D1114A93420BD0104A934243
:100FA00008D0104A934205D00F4A934202D00F4A0C
:100FB000934208D10C2024F087FA0D4B4660036061
:100FC00085602060CAE725606060C7E7B4A10200C1
:100FD00078A102002CA2020045FDFFFFF4B9020037
:100FE00030BA02006CBA0200A8BA0200E4BA0200E9
:100FF0006CA30200F8B500231360536006000D00D7
:1010000014000CF03BF8124B07009D4205D1836A97
:10101000002B02D00F4B48C4F8BDFB69002B04D055
:101020002200290030009847F6E7B86B0028F3D07B
:101030000621ED00294304301A0003F0EFFE0028DA
:10104000EAD04268230039003000FFF77BFFE3E776
:101050005B02000028B1020070B5160004000D000C
:10106000FFF7C8FF3368002B15D10B4EA3070BD138
:101070000A4B22689A4207D12B0062680849300067
:1010800010F03EFB0DF03CFD200023F0D6FE2B00BF
:1010900002000449F3E770BD30E102002CA2020017
:1010A000521603007916030073B504000D001600F4
:1010B0000BF0E4FFC369002B09D0042201960092D3
:1010C00029006A4620009847009B002B0AD0200088
:1010D00023F0B3FE2B0002000349044810F010FB7C
:1010E0000DF00EFD73BDC0467916030030E102001D
:1010F00073B504000D000BF0C1FF164B426A0600E9
:101100009A4225D0002D03D1102024F0DDF90500EE
:10111000736A002B11D16A460F492000FFF76AFF5E
:10112000009B002B0FD1200023F087FE0B4902000B
:101130000B4810F0E5FA0DF0E3FC29002000984779
:101140000028E8D076BD2900684602F08DFFF9E757
:101150002000F7E7674E02004E020000E81503008A
:10116000E0E5020037B504000BF088FF856A002D2A
:1011700002D02000A8473EBD6A460B492000FFF779
:1011800039FF009B002B05D06A462900280020F07B
:101190009EFBF0E7200023F050FE044902000448C3
:1011A00010F0AEFA0DF0ACFC5B0200001A16030062
:1011B000E0E5020030B505008FB00FF0EBFA280033
:1011C0000BF05CFF846A002C05D02800A0470400C7
:1011D00020000FB030BD6A4613492800FFF70AFF10
:1011E000009B002B16D002A80DF064FC002807D14C
:1011F0006A46010020F06BFB04000DF079FCE7E784
:10120000039B0A491868FFF72FFC0028E0D10398D8
:101210000DF076FC280023F010FE05490200054879
:1012200010F06EFAF4E7C0465B0200002CE5020005
:101230001A160300E0E50200F0B513688FB00793BB
:10124000002800D073E00400131D0393FF220B005D
:10125000090A1340114001934B000693069A019B23
:1012600005919B18039A9B00D2580492039AD318B5
:101270005F68381E09D00020BB0706D1944B3A683E
:101280009A4202D1380021F0E7FF059B1818049B11
:101290004600002B50D1019B581C831998000093E5
:1012A00024F012F926000500002C01D0012604606C
:1012B000019BB0009A002818039928F06AFD019B51
:1012C0009B190293029B9800059B2818DA00019B4A
:1012D0009900039B591828F05CFD029A069B9446DE
:1012E00063440193002F12D003243C4000D0A9E0B6
:1012F000774B3A689A4200D0A4E0380021F0C4FF4E
:1013000003230600009373689C4200D27DE0019B9A
:10131000029A02999A1A52082B000798FFF7F4FDD7
:101320000400280024F0FFF820000FB0F0BD1300E7
:1013300008330393546889E7049B9B072FD1049BD0
:10134000644A1B68934202D0634A934227D10AAA97
:1013500009A904980CF01CF8099B581C019BC018A3
:1013600083199800009324F0AFF826000500002CA4
:1013700001D001260460019BB0009A00039928184F
:1013800028F007FD019B0A999819099B80009A0093
:10139000281828F0FEFC019B099A9B1890E7019BF6
:1013A000181D83199800009324F08EF8260005007C
:1013B000002C01D001260460019BB0009A00039923
:1013C000281828F0E6FC019B0AA99B1904980293AF
:1013D000FFF78EFE029B04909C000498FFF7EAFE44
:1013E000061E00D16EE7009B029A934207D8D900EF
:1013F000280024F087F80500009B5B000093029B07
:101400002E51013302930434E7E7B368E700D8595B
:10141000002815D0042813D0009B184205D12F4B6B
:1014200002689A4201D122F01EF9019B019A9B00A9
:10143000E85002320192B268EB18D7197A685A6004
:10144000013460E70AAA26493800FFF705FE0021AB
:101450000AAA080020F03BFA0021FFF749FE019B91
:1014600003909E000398FFF7A5FE041E00D14EE7EF
:10147000019B009A01339A420BD853000093042B2E
:1014800001D204230093009B2800990024F03AF82D
:10149000050003231C4207D1104B22689A4203D156
:1014A000200022F0E0F804000AAA0E493800FFF7F5
:1014B000D3FD0AAA002101200C9420F008FA019B18
:1014C000AC5102330193AB1958600836CAE7C046E5
:1014D000ECB502007CBD0200F8C1020020BB020096
:1014E000E10200004E02000070B50C0086B016004C
:1014F00083071CD10368204A934202D01F4A9342BB
:1015000015D102AA01A90BF043FF019BA3422CD3E2
:101510001BD80023029DA000A34201D106B070BDDC
:101520009900421A043AAA5801337250F4E702A90A
:10153000FFF7DEFD002305000193019B2800A34275
:1015400006D3FFF737FE0028E8D022000C490EE052
:10155000FFF730FE002808D0019A0A49A31A5B1849
:101560009B00013298510192E7E7019A064907482A
:1015700010F0C6F80DF0C4FA7CBD0200F8C10200FC
:1015800006170300FFFFFF3FE316030058E60200C3
:10159000F7B5FF240E00090A264015000C4083070A
:1015A00031D10368384A934202D0384A93422AD153
:1015B00001AA69460BF0ECFE0098331983425BD810
:1015C00083009C46002301999A00A3420FD1B400E6
:1015D000801B0919C01AAD1823F0E3FD019B286098
:1015E0001C190023013601339E4207D1F7BD67461F
:1015F000BF1A043FCF590133AF50E5E79A0051427B
:101600006158A950EFE70021FFF772FD00230700A2
:101610000093009BB34218D30021080023F0C1FDC2
:1016200006003800FFF7C6FD011E1BD1B168A142BC
:1016300022D3A3008A00EB181E60AA18091B9D4242
:1016400014D1300023F0C9FDD0E73800FFF7B2FD18
:10165000002811D0009AB31A1B199B00013258516F
:101660000092D6E730000CF08BFFDAE7F468D01A6E
:101670002058043B1860E2E7009A0549054810F03D
:101680003FF80DF03DFAC0467CBD0200F8C10200F3
:10169000E316030058E60200F0B591B01D00060005
:1016A0000C0017000BF0EAFC334B984207D12B00DB
:1016B0003A002100300001F0F9FB11B0F0BD826A60
:1016C0002E4B002A08D09C422FD130009047286032
:1016D0000028F2D00120F0E79C4226D101AA284937
:1016E0003000FFF787FC019B002B0DD1A82101AA38
:1016F000FF313000FFF7B0FC039401AA0021012064
:1017000020F0E5F82860E5E704A80DF0D3F90028FB
:1017100007D101AA010020F0DAF828600DF0E8F9FD
:10172000D8E7059B2B600220C7E7002CDED13800EC
:101730000BF0A4FC1349FFF797F901AA00280ED07B
:1017400011493000FFF756FC019B002B11D001AA74
:101750002100200020F0BBF828602000ADE7D12157
:1017600030008900FFF746FC019B002B01D0039756
:10177000C3E72F60D7E7C046ECA80200A8A3020089
:101780005B02000020E202008F02000010B504009E
:101790000FF0FCFF002808D0002320001A001900D9
:1017A000FFF7B2FB0400200010BD200025F099F8DF
:1017B0000028F8D10249034825F08FF8F2E7C04627
:1017C0009B160300E0E502007FB5C3000620184326
:1017D000054B01900491052001A902930393059202
:1017E0000DF038FE07B000BDA8A302001423F0B529
:1017F0008DB000AFFA1805000C00FFF7FBFBBB69CA
:10180000002B06D022002C492C480FF079FF0DF058
:1018100077F9786900284BD1280023F04AFE002888
:10182000F0D014232800FA182549FFF7E3FB102213
:101830007869B91806F00CFCB860200023F015FE9A
:101840006A463E69B968731C7B60C318FB600E333F
:10185000DB08DB00D31A9D466D463200280028F0D5
:1018600098FA2E23AB557B682000EB18BB6023F061
:1018700001FE0600200023F0F8FD31000200B868E8
:1018800028F087FAF96828000DF0FEFCC300062056
:1018900018430C4B10223B627B620B4BBA18BB62A5
:1018A0000123FB620B33F861D11805200DF0D2FD46
:1018B000BD460DB0F0BDC046041603005CE2020058
:1018C00059020000A8A3020030BD0200F0B5174C79
:1018D0000F00616895B003912168060008A8049183
:1018E000626023600DF0E6F8051E06D0039B0998A0
:1018F0006360049B23600DF003F933683A00310004
:1019000005A8019302F076FF2B002A00019905A893
:101910000BF012F81FF0CCFF05000DF0E9F82800DD
:10192000039B6360049B236015B0F0BD802E0020F4
:1019300010B5040001F016FC031E054802D005494D
:1019400020F001F8220004490FF0DAFE0DF0D8F87B
:10195000C4E30200461503006F150300010010B533
:1019600001481FF0F0FFC04658E60200F0B58BB00A
:1019700004900F000392202803D191420FD0AF4E64
:10198000BFE0049B1B2B01D01E2B0DD10399380007
:101990000BF00AFC049B002803D01B2BEFD1A84EB0
:1019A000AFE01B2BFBD1EAE7049B212B3FD103982F
:1019B0000FF0ECFE002806D00399380024F097FFC2
:1019C0000028ECD1DBE70324039B1C4005D1039ADC
:1019D0009C4B126805929A4223D0049B9A4A9B0022
:1019E00038009C5823F029FA0500039823F025FAC3
:1019F0002B0000902200954995480FF081FE47E1A9
:101A0000039AA300D3189D6828000FF0BFFE00289A
:101A100000D158E12900380024F069FF0028BED128
:101A20000134039B5B680593A342E9D8A7E701262D
:101A3000314200D116E1039B4D101E4000D1E7E07A
:101A40005C10049B1D2BC8D8180018F0B7FA1E00B4
:101A500028002A002D0045004C004E0050005D007B
:101A600066007B008300B4001E0028002A002D00C1
:101A700045004C004E0050005D0066007B00830076
:101A8000CC00D000C6FFD400D80025432E00700043
:101A90000300734000D5B6E00126064331E06540FF
:101AA000F4E72C402600F2E7002C02DA6948FFF741
:101AB00055FF1F2C08DC684B2341AB4204DBC023DD
:101AC0001B062341AB4205DDE917280020F0A2FEEA
:101AD00007004BE0A540D9E7002CE7DB1F2C00DD19
:101AE0001F242541D2E72E19D1E72E1BCFE7210075
:101AF000280004F0FBFC0028E6D1012665436D00B8
:101B00002E4330000BB0F0BD002C00D1DDE02100F1
:101B1000280021F0CBFB0600B9E7002C00D1D4E06F
:101B2000280019F0DBFB051C200019F0D7FB011C75
:101B3000281C18F0CFFE032302269843474B064388
:101B4000F618DEE7002C00D1BFE02100280021F0CC
:101B50009DFBE0E72F00002C2ADA280019F0BEFBDD
:101B60000323022798433D4B0743FF1838000BF02F
:101B700085FA8369002B00D12FE7039A3900049876
:101B8000984756E001231C4206D03900300004F08B
:101B9000ADFC002898D17E43012C00D177E73900B5
:101BA0003800641004F0A2FC002800D08CE77F43CA
:101BB000002CE7D16BE7002C00D186E00021022049
:101BC00008F09EFF21000600280021F06FFB01278E
:101BD00040003843B0602100280021F057FBB84096
:101BE0000743F7608DE7A54200DAD8E6C7E6A542CD
:101BF00000DDD4E6C3E6A54200DCD0E6BFE6A542A0
:101C000000DBCCE6BBE6300020F013FE060078E7F0
:101C10000323039A1340022B24D1114B1340062BAC
:101C200020D0280019F05AFB039A011C04980BF0ED
:101C30006FFD061E00D064E7CFE6C04628BD020057
:101C400030BD02007CBD0200E0A00200B21503001E
:101C5000E0E502009D150300FFFFFF3F00008080CC
:101C6000070080FF049B1F2B00D07FE703980BF039
:101C700005FA83690400002B0CD1636A002B11D193
:101C8000039823F0DAF81349020013480FF038FDE7
:101C90000CF036FF3A00039904989847061E00D0CE
:101CA0002FE7EAE706A90398FFF722FA04002000CD
:101CB000FFF780FA002800D161E639000BF074FAD2
:101CC0000028F4D06BE6039587E6044904481FF02A
:101CD0003AFEC046E8150300E0E50200D715030010
:101CE00094E60200010010B501481FF02CFEC0462A
:101CF000E0E50200F8B504000D0017001E00002901
:101D000008D018680BF0BAF96368834202D005481E
:101D1000FFF7E8FF33003A002900A068FFF7F4F866
:101D2000F8BDC0462E15030001214000014310B547
:101D3000024824F0CBFD0CF0E3FEC04678E402003C
:101D4000010010B501481FF0FEFDC0463CE4020052
:101D500010B5024923F081FA10BDC0465484030037
:101D60000379044AD35C002B00D183790248DB005D
:101D7000C0187047C62D002024A4020010B504002E
:101D8000FFF7EEFF22790368024903480FF0B8FC21
:101D90000CF0B6FE2E17030058E60200002803D010
:101DA00001210379014AD1547047C046C62D002055
:101DB00010B5FFF7D5FF034B4068C01A431E98418A
:101DC000C0B210BD7D1D000070B506000C00FFF70D
:101DD000C7FF0C4D2B002833984204D12A00103243
:101DE000002394420BD00023A04208D04368300067
:101DF0009847641B3379044AE410D4540123180033
:101E000070BDC04624A40200C62D002070B5040099
:101E10000BF034F900230C49DA0052181568A5427A
:101E200005D15168094823F018FA012070BD01332B
:101E3000612BF1D1064B9C4203D0984201D0002087
:101E4000F4E70449EEE7C04684A4020070C2020031
:101E500078F8020040170300F0B58BB0079310AB81
:101E600010CB009001911B78062A12D8012A08D9BC
:101E70003F230B700B0001330193002301990B707A
:101E800001E0002AF9D101209042804140420BB08C
:101E9000F0BD0099002929DA019B01995F1C2D23CF
:101EA0000B70802109068C46009B63440093019BC4
:101EB000FF210993009BC90518000840884222D1E0
:101EC00020234E21079AF81C1A4013001143009A50
:101ED000540212D149225A403A7046225340797036
:101EE000BB700023FB70019BC01AD0E7019F002B41
:101EF000DDD0390001370B70D9E7412463403970D8
:101F00007B70B970EDE7002C00DA06240199013AE4
:101F10007D1A551B2022079911430291672940D150
:101F2000002C00D1CEE1002B79D0A64A934200D9F3
:101F3000D4E0A549009818F02FFA431E98410023D9
:101F40000026303003932033059004939F4B039A6F
:101F50000099D05818F016FA002808D0049B039A6C
:101F6000F6189B4B0098D15818F08CFE0090049BFB
:101F70005B100493039B04330393182BE6D11533B2
:101F80000393009A8F4B93425DD38F49009818F0CA
:101F900003FA002851D0002E7CD0FE239B0500932D
:101FA00051E0002BC1D1029B662B38D1631CAB42A0
:101FB00000DBAC1E029B651C049300231E000393F0
:101FC0000593E343DB171C40049B652B00D0EEE038
:101FD000651C00230693069B9D424CDD009819F07A
:101FE0005DF97B1C0893030030333B70059A069B18
:101FF000934205D1002C03D0BB1C08932E237B7089
:1020000019F06CF9011C009818F06EFF714918F076
:1020100039FE069B009001330693089FDBE7631DA2
:10202000AB4200DBAC1F029B652B00D1AFE000256B
:102030000493039505952E00C3E70098654918F0B1
:1020400021FE01360090029B662B03D0672B39D10D
:10205000042E37DC059B3B70029B672B01D1731E5E
:10206000E418631CAB4200DBAC1E002C15D16623C8
:10207000013703940493029B662B00D0B0E0012E3D
:1020800000DDDDE05449009818F086F9002800D002
:10209000ACE0D5E02B2303937FE72E2325003022ED
:1020A0007B70BB1C013E1F00002E76D0002D05D199
:1020B000039501235B42059367334DE01A70013DA0
:1020C0000133EFE76B1FA3426CDC029A672A66D0EC
:1020D0001300AC1F00250493059572E7002300262A
:1020E0000393203304933A4B039A0099D05818F085
:1020F0003FF9002808D0049B039AF618334B009848
:10210000D15818F0BFFD0090049B5B100493039B13
:1021100004330393182BE6D12E49009818F03CF9AC
:10212000002805D000982D4918F0ACFD013600902C
:10213000029B662B12D1AE4214DAA3190133AB42D3
:1021400004DBAC1B023C631C00D1002400233519C6
:102150000393013505966633049332E7029B652BA2
:1021600000D0B1E06B1FA34200DCAC1F2B23002585
:10217000039305953A33EFE7231DAB4200DB6C1F59
:10218000029BA64200DBA3E0731CE41ADEE7029B7D
:10219000002504932B2303934CE7039689E71C0047
:1021A000029B97E70025029B059504930CE7049B8F
:1021B000672B00D00DE7251E00D00AE701252C0073
:1021C00007E7C046FFFF7F3FF8FF7F3F8CA7020075
:1021D000A4A70200000020410000A040CDCCCC3DCF
:1021E0003E49009818F0D8F8002824D030217B1EF2
:1021F0001A782E2A4FD010003038092842D90133DE
:102200000193019B1B78302B15D1019A52782E2A0D
:1022100045D10499662942D001994B70039B0A70FD
:102220002D2B3AD1013E002E3BD03B00019A9A4221
:102230003AD331231370029B672B01D1002C39D183
:10224000039B002B19D02022079B0A2113401A0060
:10225000452313433B70039B30007B7017F042FF14
:102260000A2118F025F83031B97030000A2118F031
:102270001FF83C1D3031F970270000233B70099B8B
:10228000F81A04E6392A02D001321A70B8E7019A26
:1022900019709342B5D0013BAAE70136C5E7013773
:1022A000C3E72B230393C0E75A1E1178197013005C
:1022B000BCE71F007B1E1A78302AFAD02E2ABFD125
:1022C0001F00BDE701242EE6029B672B00D153E7D8
:1022D00004932B2300250393FEE6C0460000A04094
:1022E00010B50400002906D0044B8A6B036009680E
:1022F00000230FF071FA20000CF002FC68E50200E8
:10230000F0B5040087B0039202936618002A06D045
:10231000023A222A03D93548FFF720FB0134B442A0
:1023200029D2207804F016F9071EF7D123782B2B39
:102330001CD10134311B200003AA21F06FFB2318AC
:102340001C0000250193B44217D3002F00D06D422A
:1023500001236D001D43019B9C422FD12449039A08
:1023600024480FF0CDF90299FFF7BAFF2D2BE1D1E8
:1023700001340127DEE70027DCE723781A00303A32
:102380000092092A07D9202213431A00613A192A18
:10239000DBD8573B00930399009B9942D5D928007D
:1023A00004F0A4F8002816D1039B5D43009BED18B0
:1023B0006B006B400FD40134C5E70134B44205D241
:1023C000207804F0C7F80028F7D1C7E7B442C5D198
:1023D000280007B0F0BD019B3A000593F11A05A84B
:1023E000039B20F04CFA059C0500B4E77E3D0300FA
:1023F000A13D030058E60200F0B504008BB008933D
:10240000431804920193019B9C4200D3F6E020788C
:1024100004F0A0F8071E38D123782B2B37D10134D4
:102420000590019B9C4200D3EAE0202322781A43C6
:10243000692A33D10199A21C914200D8E6E0627862
:102440001A436E2A00D0E1E0A2781A43662A00D02F
:10245000DCE0E21DE51C914214D9E2781A43692AB6
:1024600010D122791A436E2A0CD162791A43692A53
:1024700008D1A2791A43742A04D1E2791343792B43
:1024800000D10535FF26F6051BE00134BBE70590BA
:102490002D2BCAD12C3B01340593C2E76E2A2ED1D5
:1024A0000199A21C914200D8B0E062781A43612AD7
:1024B00000D0ABE0A27813436E2B00D0A6E05D4EB7
:1024C000E51C059B002B02D080231B06F618A542B5
:1024D0007BD159498CE03D002B786F1C18003038B7
:1024E000092834D8022E15D10A23029A53431B1807
:1024F0000293019BBB42EED8002304934DE00022DF
:10250000079202924D4A250006920022002603926D
:102510000993E1E718F02CFF051C012E0DD1069957
:1025200018F0B0FB011C039818F03AF843490390E7
:10253000069818F0A7FB0690DBE74149039818F0CE
:10254000A1FB291C18F02CF800260390D1E7002EDF
:1025500003D12E2B03D10126CBE7022E16D0099AE8
:102560001A43652A12D1019BBB4256D96B782B2B9B
:1025700005D1AF1C019B9F42ABD00226B9E70226D2
:102580002D2BA8D12C3BAF190793F3E7049A002A0F
:1025900004D0202213436A2B13D13D00079B002B4C
:1025A00002D0029B5B420293029818F097FE011C36
:1025B00023481BF053FB039918F064FB049F061C8F
:1025C0007FE700230493E9E70135019B9D4205D293
:1025D000287803F0BFFF0028F6D17AE7019B9D42DF
:1025E00000D076E7089B002B01D1002F1AD01549A7
:1025F000154824F072F91099FFF772FE0023059335
:1026000000230393002325000493CCE7059B002BB4
:1026100000D15EE72500002656E7019BBB4200D1B2
:1026200057E769E7032302209E43084B3043C01855
:102630000BB0F0BD0000C07F643D0300CDCCCC3DAD
:1026400000002041473D030058E602000000808062
:1026500070B5150004001FF04AFA2A000249200054
:102660001FF003FA70BDC046D11A020070B543795D
:102670000D000024032B06D9836A074C9200E41A4C
:10268000C369D358E41803211FF022FA44702412BE
:102690000570847070BDC046FD7F0000F7B5002353
:1026A0000400617183608371E260036101330F0094
:1026B00015004361032906D80121836949429A0024
:1026C000C06927F082FB0023A3622362AA8BEB8BF5
:1026D000D218002A00D10132394E200031001FF0FB
:1026E000C4F92A8C310020001FF0BFF9E3682000F4
:1026F000197D1FF0E6F9E3682000997D1FF0E1F9EC
:10270000E3682000197E1FF0DCF9E3682000997E61
:102710001FF0D7F9042F27D1636A226A31009A1A71
:1027200020001FF0A2F93100EA8920001FF09DF976
:102730003100AA8920001FF098F90026AB8CB34223
:1027400017DCFF2120001FF0D2F9042F36D1EA8ACE
:102750002B8B0237D31801930023019A9A422DD074
:10276000AA8C0021009223E0022120001FF09CF996
:10277000D9E7AA6AF300D3181A78032A03D1997803
:1027800020001FF0B4F90136D8E70126A86ACA0074
:102790008218507830420AD05088984207D1526847
:1027A000D200606B99003A430A500133D5E70131FA
:1027B000009A8A42E9DC9C229200F1E7F7BDC0460C
:1027C000A91A0200F7B5234B0500A8331B68019135
:1027D000022B0DD847698F420AD2836A0269CF1B48
:1027E0009C1A3B00234304D1AB6A2B61019B6B61B4
:1027F000F7BD062F01D90F2C18D900941F2C01D931
:102800001F230093009B00269C4203D83E00032F09
:1028100000D90326012128001FF046F9009A730110
:1028200013430370009BBF1BE41ADAE70A4B3E0018
:102830009F4200D91E00022128001FF035F97022A6
:1028400033091340F03A2243134303704670009457
:10285000E8E7C046802E0020FF07000070B50D009D
:10286000012104001FF0C1F90E2D14D00F2D17D037
:1028700010210D2D10D0172120001FF038F9032250
:10288000A36A042103339343A36220001FF020F9BD
:10289000044B036003E0112120001FF028F970BDF4
:1028A0001221F9E74CD00200F8B5174F05000C00D3
:1028B00016000F40002A1AD111001FF096F92304C8
:1028C0000FD5322128001FF012F9322128001FF005
:1028D0000EF9322128001FF00AF9322128001FF0DA
:1028E00006F93A0035212800FFF7C0FEF8BD3A008E
:1028F0004621FFF7BBFE7F23210A99433143C9B22A
:1029000028001FF0F4F8F1E7FF7FFFFFF7B5019112
:10291000114904001700002522F09FFC7B68AB42A0
:1029200004D80E49200022F098FCF7BD002D03D0FA
:102930000B49200022F091FC019BAE009A590949F5
:102940002000BE1922F04AFD0122B16820000AF0E1
:10295000ADFB0135E2E7C04644730300B0640300F9
:1029600088140300C93D0300F0B505008BB008686A
:102970000C0005F057FB049004A81FF032FD002660
:102980000127049B03900693069B197800291AD10E
:10299000300008F0B5F80122070007A960680AF0C6
:1029A0000FFE079B089A05939B180193022D1FD9D0
:1029B000A0680AF04BFC002817DA089BC01814D551
:1029C0002848FEF7CBFF080003F0DCFD002806D006
:1029D00006A81FF018FD069B1B78732B00D138004A
:1029E000069B361801330693CEE7059B1818059011
:1029F0000025B54202D338000BB0F0BD049B012482
:102A0000187803F0BFFD002803D004A81FF0FBFCDA
:102A100004000598019A03199A42D1D3049B1B78AC
:102A2000732B10D02D19AB000293049B013C14D3DF
:102A3000197805AA03980EF0E3FF029AA300D31AAF
:102A4000FB185860F1E7210004F0C2FE059B1C1939
:102A5000AB1C9B0005940135D851049B01330493B2
:102A6000C7E7C046CD3D0300F0B589B003910192A0
:102A70001E0005F0D7FA049004A81FF0B2FC002550
:102A80000290B54201D309B0F0BD049B187800282C
:102A9000F9D003F077FD0124002803D004A81FF02B
:102AA000B2FC0400039B019A1B199A4202D21B48F4
:102AB000FEF754FF049B1B78732B10D02D190E9B2F
:102AC000AF00DF19049B002C24D0A20052421978D9
:102AD000BA5803AB02980EF0F3FF013CF2E70E9BED
:102AE0006F1CAD00E858012205A90AF069FD069D9A
:102AF000A54200D925002A000599039827F049F935
:102B0000039B621B58193D00002127F05EF9039BCF
:102B10001C190394049B01330493B2E7CD3D0300D9
:102B2000F0B50E0089B0039001CE0F001FF081FCBC
:102B30004410210004A822F041FD069D220000213E
:102B4000280027F042F9039B0096013B2A1929002F
:102B50003868FFF789FF04A9024804F0EBFD09B0CB
:102B6000F0BDC04674B6020030B50C0089B0050057
:102B70000222606805A90AF023FDA0680AF066FB3E
:102B8000002806DA069B0393C01802D50848FEF712
:102B9000E5FE0599069AEB1E8A18091820000C30EC
:102BA00000902068FFF760FF024809B030BDC046C2
:102BB000CD3D0300A8A3020030B507240278084DDC
:102BC000A24314000222224302707F22039C416030
:102BD0002240D400028883602A402243028030BD14
:102BE00007FCFFFF10B50B00072401782340A14329
:102BF00019437F23017004990A4C0B40D9000388C4
:102C0000426023400B430380039B04685905064B35
:102C1000C90A23400B430360029B8360059BC3608A
:102C200010BDC04607FCFFFFFF03E0FFF0B589B011
:102C3000002807D1664B6748196822F00EFB6648EA
:102C400009B0F0BD0D68654B9D425BD100210800C5
:102C500022F0A7FA002405000590614B5A68019202
:102C6000944217D300255F4A05A901200BF0E8FC28
:102C700007AA06A9059822F0ABFA069B03339B0826
:102C800001939B000393019B524EAB4210D15649D6
:102C90003000D2E79B680193019AE300995800291C
:102CA00004D0042902D028000BF06AFC0134D4E7D8
:102CB0002F00AB000293079B029A985805F0B2F9D7
:102CC0000100300022F0C9FA019BFF18069B9F42C9
:102CD00012D212231C1A002C07DD013C07D2039AE2
:102CE000029B944663440293E5E71234F3E73F49BD
:102CF000300022F0B2FAF0E73D49300022F0ADFAA0
:102D00000135C0E728000AF0B9F93A4B42689A4207
:102D100000D16D682800FFF779F8061E00D08EE715
:102D20002C4C3549200022F098FA310028000AF096
:102D3000D7F9280022F081F830490200200022F063
:102D40004DFBAB0732D12B682D4A93422BD1280083
:102D500022F036F920F098FA00250600A84200D1AA
:102D60006DE773689D4200D369E7B268EB00D31842
:102D70001F68002F15D05B6822492000019322F0C4
:102D80006CFA002138000AF0ABF91F49200022F04C
:102D900064FA002101980AF0A3F91549200022F0F5
:102DA0005CFA0135DDE7194A934203D028000AF0A6
:102DB00065F90500A86B002800D140E7830700D023
:102DC0003DE7134B02689A4200D038E7C2E7C0469D
:102DD0000400002070C20200A8A30200FE17000039
:102DE00010BF020040B00200DE3D0300ADA30300AF
:102DF0009340030083020000023E03000A3E0300EA
:102E0000ECBF0200ACA303001A3E03002CA2020098
:102E1000ECB50200F7B545681600A8681F000191DF
:102E200022F0C2F80400A86822F0C4F822F0BCF82E
:102E300003000320584307340019800022F044FBAC
:102E4000074B040003606B68320043600023856019
:102E5000C36001993B0008300AF032FD2000FEBD3E
:102E6000ECA8020070B5050088680C0020F024FD75
:102E7000230002000249280022F0B0FA70BDC046CB
:102E80003F3E030010B5024823F01AFD0BF038FE58
:102E90002CE5020010B50400082022F015FB024BBF
:102EA0004460036010BDC04628A90200F7B5C5689C
:102EB00004001E00002D02D11D602800FEBD036924
:102EC0001830834205D1184B994203D01748FEF7BA
:102ED00009FF19602000164F11007B68083001932C
:102EE00063687B6003F0D2FC019B05007B600128D6
:102EF00007D002280CD00023E36023691B683360ED
:102F0000DBE723691B683360002BD6D1E360D4E78D
:102F1000A368986822F048F8002305308000E36039
:102F200024186368EBE7C046A8A302005D3E0300D7
:102F3000802E002013B501ABFFF7B8FF01280ED09B
:102F4000104C02280DD0019BA34219D0002B17D0A2
:102F500001AA01210C4823F0ADFC0BF0D1FD019832
:102F600016BD01980AF08AF80749FDF77DFD002893
:102F700001D10198F1E701980EF090FBA042F8D141
:102F80000020EDE7A8A302002CE5020010B50B001D
:102F9000022808D14A6805491868FFF7CBFF0028C6
:102FA00003D1FFF76FFF8A68F5E710BDA8A3020001
:102FB00010B500220149FFF7BDFF10BDA8A3020014
:102FC00013B5114C01AB114A2100FFF76FFF012827
:102FD00003D0022805D0200016BD0D490D481EF073
:102FE000B2FC01980AF04AF80B49FDF73DFD0028B4
:102FF000F1D101980AF042F80849FDF735FD0028A3
:10300000E9D101980BF07CFDA8A3020098E0020032
:103010001F3E0300F0E4020020E202002CE5020063
:10302000F7B52D4FB43701972B4A2C49FC32536C1E
:103030008B4200D8F7BD0325043B53641A68264B26
:10304000501CAC331E6804008108715C2C40640085
:103050002141831A294001300229F4D00326019925
:10306000120109681B018A181B499B08002BDBD041
:103070000F201468044229D119480068A04225D8BD
:103080000D00B8352D68A54220D9241A20090090DA
:103090000800AC300068A409009D04192078354070
:1030A0006D0084462841304001280FD13700AF40E1
:1030B0003D0067463D4325700D00FC356C6C094FA3
:1030C000BC4206D2201D686400982060013B043297
:1030D000CCE70C00BC34F8E7802E0020402F002005
:1030E000342F0020C02F00200F23994370B5060015
:1030F0000D00081A412116F06BFF0F4C020023004F
:10310000B033186023002100AC331E608301EB1A3A
:10311000B4310B6023003000B83300211D6026F06D
:1031200054FE8023FC345B020122A364002352423C
:10313000E3642265636570BD802E0020A2220349EE
:1031400052008B5A01338B527047C046802E0020AC
:10315000A222034952008B5A013B8B527047C04652
:10316000802E0020A223034A5B00D05A431E9841C0
:10317000C0B27047802E0020F7B5040003258900F7
:1031800043180193019B9C4200D1F7BD0F23216896
:10319000194229D1184B1A00B43212688A4223D836
:1031A0001800B830006888421ED9891A1A000F0921
:1031B0003800AC321268890951180A78284040005A
:1031C000944602412A40012A0ED12E00864030004A
:1031D0006646304308701800FC30416C074EB1421F
:1031E00006D20B1D43640F60FFF71AFF0434C9E7D2
:1031F000BC331A60F8E7C046802E0020C02F0020A4
:10320000A22210B508485200835A010001338352AC
:1032100003000022FC33BC310A60DA64034A272130
:103220005A64FFF7A9FF10BD802E0020402F002018
:10323000F8B503262E4C00252200BC321368AB42A1
:1032400013D102221900032794462200B0321268DB
:10325000920091422AD323000022FC335A65453262
:10326000FF32A35A013BA352F8BD23001560214A47
:10327000FC335A642300B0331B689B009D42D9D2B3
:103280002200AC321268AB08D35C2A0032405200F4
:1032900013413340032B07D12200FC32536C191D1C
:1032A00051641D60FFF7BCFE0135E3E72000AC3040
:1032B00000688A08801802780D0016003D406D00F5
:1032C0002E413E40022E09D0032E0BD0012E07D1F5
:1032D0003B00AB409A430270012301E0002BF7D181
:1032E0000131B2E76346AB409A4302700023F7E72F
:1032F000802E0020402F0020334BF0B51A0019001B
:10330000B832B43109681268521A1900B0331E6815
:10331000026003230022AC310F68140011009C46A8
:1033200042608260C260026142618261B6006546AD
:103330008B08FB5C0D406D002B4165462B404568BA
:10334000012B33D0002B2BD0022B32D001318E42F7
:103350000AD065468B08FB5C0D406D002B4165462D
:103360002B4001D0012BE2D1012C26D1056901357A
:1033700005618569A54200D284618E4201D0012B8E
:10338000D5D1C368934200D2C2608E4206D1436851
:103390001B01436083681B018360F0BD0022C6E708
:1033A00084680132013484601C00CFE70135456038
:1033B000FAE7013545600134C8E7022CD9D14569E7
:1033C00001354561D5E7C046802E0020F7B50F30A6
:1033D0000309019302D100242000FEBDA223474A25
:1033E0005B00D35A002BF6D14733FF33D35A5E42EA
:1033F0005E41002B07D0414BFC33DA6C1B6D9A42C7
:1034000001D307F0D9FA002430213F273B4A3B4B38
:10341000B0321268FC339446384A5B6DAC321068A7
:103420009C4505D8002ED6D107F0C6FA0136EBE749
:103430000325C25C2A4231D1019D0134A5422ED818
:103440009B00191B4E1C5A1C012C03D12B4C9708B6
:10345000FC346765B40800190324270037407F0057
:10346000A446023CBC40077802313C43234F047021
:10347000AC378B4234D22149204DB431FC350C6835
:10348000E96C33018C46E418019B921B63441201E2
:1034900000212000EB6426F098FC9DE700240C2519
:1034A0002A4206D1019D0134A54203D89B00013375
:1034B000C7E700240A4206D1019D0134A54203D882
:1034C0009B000233BDE70024BA4306D1019A0134C0
:1034D000A24203D89B000333B3E7002401339FE7E4
:1034E0003C6888082018644602250C406400A5400A
:1034F0002C00057801312C430470BAE7802E00209F
:10350000A22230B5164B52009A5A002A26D1002822
:1035100024D01A00B4321268801A1A00FC32546D9A
:1035200001098009A04200D25065AC331800032283
:1035300004688B08E3180C00150014406400A540D3
:103540001C780131AC431C7004688B08E35C0C00F0
:103550001440640023411340022BE9D030BDC04623
:10356000802E00200F2203000240002070B582420E
:1035700028D1154C10002100B4310968994221D896
:103580002000B830056810009D421BD9AC345B1A8E
:10359000246819099B09E55C0800032318404000D2
:1035A000054110001D40012D0CD14D1C2E00AA0814
:1035B000A25C1E4076003241681A1A400135022A88
:1035C000F4D0000170BDC046802E0020F0B585B05B
:1035D00007000D000292002807D101002800FFF724
:1035E000F5FE0600300005B0F0BD002903D1FFF75D
:1035F00087FF2E00F6E70F2100260140B142F1D1EE
:1036000053480E000300B4331B68BB42EAD80200E3
:10361000B8321268BA42E5D9FB1A1A0900920200C0
:10362000AC3212689B090192D25C0323009C2340B8
:103630005B001A4103231A40012AD3D14233FF33DE
:10364000C35A002BCED129000F310909B0308C4666
:103650000168032689000391210014000131039AB7
:10366000914212D201988A08825C080030404000E2
:1036700002413240022A02D101340131EFE7002A2F
:1036800003D10133E2186245F7D3644501D13E000E
:10369000A8E7644521D9009B032663441900009BD9
:1036A0000800E218AC239C46294B9C446346050065
:1036B0001B6884081C19330035406D00AB40257829
:1036C00001309D4325709042F0D1214B8908FC3395
:1036D0005A6D9142DBD25965D9E71B19634523D353
:1036E000032502261A49009BAC31E3180191009A88
:1036F00062449A4209D86346191B090120010A0055
:103700003818002126F061FBC1E70199180009680B
:103710009A088A183100284040008140080011783A
:10372000013308431070E2E7029E002E00D159E7F2
:1037300000212800FFF74AFE061E00D152E72201B1
:10374000390026F026FB3800FFF7DAFE4AE7C046CC
:10375000802E002010B58CB005A8FFF7CDFD079B8B
:103760000A4C03930093059A069B0949200021F017
:1037700035FE089B099A01930B9B0649039300931E
:1037800020000A9B21F02AFE0CB010BD70C202007E
:10379000D23E0300F53E0300F8B5434E434F3300DD
:1037A000B4331A684249380021F018FE002433006F
:1037B000B0331B689B00A34223D93F2214422CD173
:1037C00032002500AC3210680321AA08825C29402F
:1037D00049000A4103210A4202D10135AB42F3D12B
:1037E0002A1B7F2A12D992093249380021F0F6FDAE
:1037F0002C003F239C433300B0331B689B00A34243
:1038000004D838002C4921F028FDF8BD2B4B2201AB
:103810001A402B49380021F0E1FD3200AC32126829
:10382000A308D35C03222240520013410322134019
:103830003A32022B31D03032032B2ED03F3A012BBB
:103840002BD13300B4331B682201D3581D495422B5
:103850008B4222D01C49083A8B421ED01B49083AA1
:103860008B421AD01A490F328B4216D019498B421B
:1038700013D01949123A8B420FD018498B420CD001
:10388000174905328B4208D01649043A8B4204D0BE
:10389000154926328B4200D11B3A1449380021F0D9
:1038A0009DFD013483E7C046802E002070C20200D7
:1038B000933E0300AE3E030093400300F0FF0F0071
:1038C000CA3E03007CBD0200F8C10200ECB5020054
:1038D00020BB020074B602009CD5020060D5020035
:1038E000D4BE0200B8B90200ECBF02003B4B03009B
:1038F000F7B505002C200E001700019321F0F6FD0E
:103900000400057086608781072D01D0012D0FD13D
:10391000337872780A3B1B021343E381019B20201A
:1039200063750423638421F0CFFDA0622000FEBDF7
:10393000014B5B5DF1E7C0463A3F0300F7B5CC1C95
:10394000A400070020000E00019221F0BDFD22001E
:103950000500054B4760866003600C3A01990C3006
:1039600026F017FA2800FEBD64A9020010B50C006D
:1039700009F084FB006B00280ED0E30702D5036832
:10398000002B09D0A30702D54368002B04D063079E
:1039900006D58368002B03D1024903481DF0D3FFED
:1039A00010BDC046413F030078E40200F0B50F00AF
:1039B0008BB00400012138680392FFF7D7FF06009F
:1039C000012C22D13B68012118000393FFF7CEFFA1
:1039D00080210700490006A821F0DFFD8024002394
:1039E000089E6400029305AB2200310003983D68F5
:1039F000A847431C28D105980B2800D0ACE0029BB7
:103A0000002B34D159480BB0F0BD786809F01EFC8A
:103A1000030002900133D5D00125337B029C2B4259
:103A200000D181E00026210006A821F0B6FD039513
:103A3000002C6ED0210006A821F0EFFD011E1ED142
:103A40004B494C481DF07FFF002810D0029B1B18EB
:103A50000293844202D9241A3618C4E7802106A8AA
:103A6000490021F0C7FD802406006400BBE7029BEB
:103A7000414807933B7BDB0775D5404873E0002343
:103A80000093220005AB38681EF0FCFD059B050085
:103A9000002B0ED006A8210021F023FE05980B284C
:103AA0005AD1079B0293002B33D106A821F097FD32
:103AB000A8E7844227D8089B30009C46079C6346B1
:103AC0009B5D039A59B2002912DA19001F250222C0
:103AD000A943C0290CD01900103D0132A943E029A7
:103AE00006D004329343F03B1A00511E8A4104323F
:103AF0009619A64212D8029B3000013B0293A642BF
:103B0000DDD31C0094E7211A06A821F0EAFD002D60
:103B1000D1D11A4806A903F00DFE74E7E443029BD5
:103B2000A419E418060083E7029906A821F046FDCF
:103B3000039B029A0093089905AB38681EF0A2FD1A
:103B4000059B002B0AD006A821F049FD059B0748DC
:103B50000B2B00D157E71800FEF7E6F8337B0790F0
:103B600005482B4289D106A9D5E7C046A8A3020083
:103B7000603F0300C4E3020074B6020020BB0200F1
:103B800030B50C0087B0012105002068FFF7EEFE7C
:103B9000022203A9606809F013FD049A022D06D9D8
:103BA000A06809F053FB049A824200D90200002366
:103BB00003990093206802AB1EF064FD029B002B6A
:103BC00005D005480B2B05D01800FEF7ADF84300D3
:103BD0000120184307B030BDA8A30200F0B589B09A
:103BE0000191019B040001211868FFF7BFFE070047
:103BF000012C18D9019B5B685C10631C13D0210059
:103C000004A821F0CAFC631C03D0631E002C2FD033
:103C10001C00012104A821F000FD061E0AD11B4949
:103C20001B481DF090FE0124102104A821F0B5FCD2
:103C30006442E8E70100019803AB012200683D6897
:103C4000A847431C0ED103980B2809D1059B01936B
:103C5000012B09D104A821F0C2FC0E4809B0F0BD27
:103C6000FEF762F800280CD1012104A821F039FDEB
:103C70003B7B0948DB0700D4084804A903F05AFD40
:103C8000ECE733780A2BBED1F2E7C046603F030071
:103C9000C4E30200A8A3020020BB020074B6020025
:103CA000F0B51F0004000D00160085B00221FFF7DB
:103CB0005DFE03AB00973200290020001EF0E2FCFD
:103CC000039B002B05D005480B2B05D01800FEF7F1
:103CD0002BF843000120184305B0F0BDA8A3020053
:103CE00010B5102021F0F0FB0400034B08C021F0B8
:103CF000EDFE200010BDC04634B9020070B50C00C6
:103D0000052804D816F050F906030C04131C0024EF
:103D1000200070BD8B680E4C002BF9D10D4CF7E7DD
:103D2000081D22F03AFB012440000443F0E7FFF7AE
:103D3000D7FF211D0500043022F055F82C00E7E7DD
:103D4000FFF7CEFF211D0500043022F05CF8F5E7F7
:103D500030BD020028BD020070B5050083070CD1FC
:103D6000104B02689A4208D1FFF7BAFF291D0400E0
:103D7000043022F02DF8200070BD280009F066FA0A
:103D8000C0231B06984206D180200021C0051EF0EA
:103D900041FD0400EFE70124C317C018584040005C
:103DA0000443E8E734B9020007B5C30701D5401062
:103DB0000EBD043001A90CF00DFC002801D00198C3
:103DC000F6E7024902481DF0BEFDC0466E3F030003
:103DD000B4E40200F0B58BB0019001200D00170093
:103DE00008402BD04B10022203A904A821F0A6FE04
:103DF00004AEFB072BD57B10022203A904A821F0F7
:103E00009DFE04AD019B092B01D0162B3FD16B68A1
:103E1000002B68D0300022F01BFB041C280022F08D
:103E200017FB011C201C16F055FD032302249843A8
:103E3000704B0443E41820000BB0F0BD03240C4089
:103E400023D16D4B0A689A42F5D10E1DD1E70323A9
:103E50001F4205D1684A3968914201D13D1DD1E721
:103E60003B40022B0CD1654B3B40062B08D0300069
:103E700022F0EEFA3A00011C019809F049FC04E036
:103E80003A002900019805F061F90400D3E7019B8D
:103E9000182B00D98AE0FFF723FF0400019816F0E1
:103EA00083F8444A3E50500D13191F723365724413
:103EB0004A3E50500D13191F72336500201D2A0011
:103EC000310022F038F8B6E7201D2A00310022F038
:103ED0006CF8B0E7201D2A00310022F099F9AAE71A
:103EE0006B68002B03D1464946481DF02CFD07A8FE
:103EF00021F0ECFD2B003200201D07A90CF004FA84
:103F000007A821F0E8FD96E76B68002BEBD007A827
:103F100021F0DCFD211D2B00320007A8EEE7201D5B
:103F20002A00310022F082F885E7201D2A003100A6
:103F300022F0F8F87FE7201D2A0031000CF06EF91E
:103F400079E73800FFF730FF021E02DA2E48FDF74E
:103F500005FD019B201D3100032B01D0102B02D148
:103F60000CF0F4F867E721F085FF64E76B68002B3D
:103F700003D02B78DB0700D579E7201D2A0031001C
:103F800022F0C9F957E76B68002BACD0FFF7A8FE09
:103F90000700211D04302B0032000CF0B5F907A9F1
:103FA00002200797089406F0ABFD6EE72900300069
:103FB00021F0EBFE0300019800241938042800D9F1
:103FC00039E7124C15F0F0FF0308120B0F00002B1D
:103FD00000DB30E70E4C2EE7002BFBDC2BE7002B41
:103FE00000DD28E7F6E7002BF4DA24E7002B00D009
:103FF00021E7EFE70000808034B90200070080FF6E
:10400000D715030094E602009D15030028BD0200A9
:1040100030BD020030B58DB0050068460AF04AFD9B
:10402000011E10D12A1D01201DF051FC0122EB6858
:1040300004005B1001335B001343EB600AF058FD92
:1040400020000DB030BD0198054A0368934205D0A9
:10405000044A00249342F3D00AF052FD0024EFE713
:104060002CE50200D4E20200044B0B6003684B60B5
:10407000436808008B600123CB607047D0A9020021
:1040800010B509F047F9054916F0FCFD03230200BD
:1040900002209A43024B1043C01810BDE02E654227
:1040A0000000808010B509F035F9054916F0EAFDE9
:1040B0000323020002209A43024B1043C01810BD94
:1040C00035FA8E3C0000808010B509F023F9011C00
:1040D00017F0CEF8024B002800D1024B180010BD9B
:1040E00030BD020028BD020010B509F013F94400EC
:1040F00064080849201C17F0BBF8002805D10549C1
:10410000201C16F03FF9002801D0034810BD0348D9
:10411000FCE7C046FFFF7F7F28BD020030BD0200E4
:1041200010B509F0F7F8034B034002201843024B87
:10413000C01810BDFCFFFF7F0000808010B509F0A3
:10414000E9F8440064080849201C17F091F8002899
:1041500007D10549201C16F00BF9002801D10348AE
:1041600010BD0348FCE7C046FFFF7F7F30BD020063
:1041700028BD02001FB50023019309F0CBF801A967
:1041800019F0BEF9032203000220934306490343BA
:104190005B180293019B934303435B1802A90393AB
:1041A00006F0AEFC05B000BD0000808070B50D00CB
:1041B00009F0B0F8041C280009F0ACF817F06EF80C
:1041C0000100201C19F078F90323020002209A4311
:1041D000014B1043C01870BD000080801FB5002344
:1041E000019309F097F801A919F03CF9032302247F
:1041F0009843074B2043C018029001981EF019FB0A
:1042000002A90390200006F07BFC04B010BDC0465C
:104210000000808070B50D0009F07CF8041C2800B7
:1042200009F078F8011C201C19F034FC032302006B
:1042300002209A43014B1043C01870BD00008080DB
:1042400070B50D0009F066F8041C280009F062F84A
:10425000C00FC3076000400818430323022498439B
:10426000014B2043C01870BD0000808070B50D0068
:1042700009F050F8041C280009F04CF8011C201C1F
:1042800019F090FB0323020002209A43014B1043D4
:10429000C01870BD0000808010B509F03BF818F020
:1042A000F7FE0323020002209A43024B1043C0187A
:1042B00010BDC0460000808010B509F02BF819F041
:1042C0001FFB0323020002209A43024B1043C01835
:1042D00010BDC0460000808010B509F01BF819F031
:1042E000BDFA0323020002209A43024B1043C01878
:1042F00010BDC0460000808010B509F00BF819F021
:1043000013FA0323020002209A43024B1043C01801
:1043100010BDC0460000808010B508F0FBFF19F00A
:10432000C5F90323020002209A43024B1043C01830
:1043300010BDC0460000808010B508F0EBFF19F0FA
:1043400005F80323020002209A43024B1043C018D1
:1043500010BDC0460000808010B508F0DBFF19F0EA
:1043600025FB0323020002209A43024B1043C0188E
:1043700010BDC0460000808070B50D0008F0CAFF77
:10438000041C280008F0C6FF011C201C19F066FC64
:104390000323020002209A43014B1043C01870BD52
:1043A0000000808010B508F0B5FF0021041C15F056
:1043B000D5FF002802D00748FDF7D0FA201C19F0DD
:1043C0000DFE0323020002209A43034B1043C01842
:1043D00010BDC0469B3F03000000808070B5060002
:1043E00008680D0008F096FF0021041C15F0C0FFBE
:1043F000002802D01848FDF7B1FA201C19F0B2FBD2
:10440000041C012E06D1032302209C432043134B9E
:10441000C01870BD686808F07DFF0021051C15F00C
:10442000A7FF0028E6D1FE21281C890515F090FF82
:10443000002803D00A490B481DF085FA281C19F002
:1044400091FB011C201C16F045FA032302000220F8
:104450009A431043DBE7C0469B3F03000000808087
:10446000D715030094E60200F7B50600194D0C00BD
:1044700028001CF03FFC310017481CF0C1FB174816
:104480001CF038FC16481CF035FCFF239B00E61896
:1044900021787F2901D0A64206D128001CF02AFCF1
:1044A00010481CF027FCF7BD6278A37850290CD87F
:1044B0000D48475C0D48405C019300923B000200B0
:1044C0000B481CF09DFB0434E2E70A481CF098FB03
:1044D000F9E7C046604003008D40030095400300AB
:1044E0001E4003003C4003001C9C0300CB9B0300C8
:1044F000B6400300D9400300F0B51D0087B00600A8
:104500001A4817000C001CF0F5FB290018481CF095
:1045100077FB18481CF0EEFB17481CF0EBFBAD00D6
:104520006519AC4204D111481CF0E4FB07B0F0BDA2
:104530003878A2780490206823780003400E039016
:10454000E0789B060009029020883178C004400E74
:104550000190E0789B0E0007000F009012090748B9
:104560001CF04EFB043401360137DAE760400300EB
:10457000AD3F0300DA3F03000C4003003E40030060
:10458000F8B50E00050014000CF0F0FE3300032710
:104590002B433B420BD1BC4209D9A2083100280071
:1045A00014F0D4FB2300BB43ED18F6183C40002C5C
:1045B00004D022003100280025F011F8802204499F
:1045C000D2008B58002BFCD00CF0C0FEF8BDC046CA
:1045D00000E0014010B50400431C02D002480DF079
:1045E000EDF8024B1C6010BDA82E0020782E002094
:1045F000014B024A9A647047802E0020A82E0020AA
:10460000002313B5044A046A09050093890C8A58EB
:10461000A16B1EF013FA13BD0CAC0200F0B587B00D
:1046200000931B7804000F0002922A2B05D18268A8
:10463000525C002A01D0A62A14D11A00213A022A7B
:104640002DD8A568E8190378032B5CD104A9666806
:104650001EF0BEFAAB19984206D16760049920009B
:104660001EF01AFA07B0F0BD0378032B4BD105A951
:104670001EF0AEFA009B1B78212B04D1049B059AF7
:1046800013430493E6E7222B03D1049B059A53407E
:10469000F7E7232BDED1059B049A1340F1E71A00BC
:1046A000243A022A00D986E0A368D8190193037836
:1046B000032B28D1636804A903931EF089FA06002E
:1046C000019B039A9B189E42C7D0B378B01C7578A3
:1046D000032B18D105A91EF07BFA0600372D35D122
:1046E000059A1F2A0FDC4249049B114199420ADBBB
:1046F000C021090611418B4205DB93400493049AC3
:1047000053005340DCD500226368029DDB1B0193FC
:10471000561CED0969D1019B0135DB09FCD1023240
:1047200052193900200020F0ADFF0400009B029ACE
:104730001B7831001A33037001301EF001F9701C30
:104740002018019A29001EF0FBF88BE7392D08D1BB
:10475000059B1F2B01DD1F230593049B059A134125
:10476000CCE72F2D03D1049B059A9B18C6E7302D6B
:1047700003D1049B059A9B1AC0E7312D09D10599F5
:10478000049801F0B3FE0028BDD1059B049A534361
:10479000B4E7332DB7D00599352D06D10029B2D015
:1047A00004981EF073FD0490A9E70029ABD004988B
:1047B0001EF07CFDF7E7272BA5D1A368D8198378D5
:1047C000032BA0D1457802301EF011FA2F2D01D114
:1047D000049042E7302D06D14042430004905840F7
:1047E00000D43AE78FE7C043F2E7320090E7C046D3
:1047F000FFFFFF3FF0B597B00890C0200025602371
:104800000AAC80000F00160025706360A56020F0E0
:1048100068FE2561E0606561A561E5612762E5628A
:10482000A84218D1C449C54822F057F80023060011
:1048300013930D9820F077FE002E00D1E1E10023C4
:10484000BA6B396830000CF0C7FF380022F01EF850
:1048500030000AF055F93822002E03D00232022E21
:1048600000D02A000026B649009692005258200037
:10487000B96B33001EF0E2F8102020F025FE102165
:10488000040020F08AFE0AADAB682A78002B00D124
:1048900094E1002AC6D1EA68013BAB60DB00D31883
:1048A000DA78A7499200525802921A689D8812023B
:1048B000120A0592029ADB88527806920F22069914
:1048C0000A400492002D2DD030220393069B134002
:1048D000102B29D0202B65D0002E00D047E10123DA
:1048E000069A1A400992099A02992A405300CB1855
:1048F00080215B88490107931B0B1B038B4200D06F
:104900004DE13B00079940331B780905090D8B42A7
:1049100000D02BE1002A00D123E138000CF064FA2A
:104920000135E0E76368CFE7002D01D0002E35D0D8
:104930008022390052014031049BAB4201D801264C
:10494000A1E7029B6E009B195B88180B0003904245
:1049500013D108781B051B0D984221D121000AA80C
:104960001EF0A9F8002819D13B0040331B78052B15
:1049700000D03AE17349744856E7049A6B1C93429D
:1049800006D2039A059900920AA8029A1EF056F8D8
:10499000029B9E1971880AA8FFF732FE002672E773
:1049A0000135C9E7002E0BD0029A6B009B5A1B0BF6
:1049B000032B47D10121200020F02FFE002303709C
:1049C000049BAB4242D880200026029B049A02330B
:1049D0005100C9184001994271D1A368039A9818EF
:1049E00000230493A2686368D318984272D3029B91
:1049F0001B78052B01D00C2B00D10126029B597886
:104A000040230B405842434149B25B421E400029BB
:104A100000DA01260025039B0695D0180795049B14
:104A20009D425ED1002E02D1079B012B69D00699D1
:104A3000200020F056FE029B059A03992000FFF704
:104A4000EDFDABE7012D00D879E78DE78021029BD2
:104A50006E009E19738849011A0B12038A4225D1F0
:104A60003A0040321278DBB29A421BD1072A07D1B2
:104A7000B96CF86C0AF008FC010020001DF0D4FFAE
:104A8000002D0AD1029B5B787F2B06D90E9B20005C
:104A9000591C06930E911DF0FFFF38000CF0A4F98D
:104AA00001358DE7002D00D149E75DE7039A6B1CC6
:104AB00000920599029A0AA81DF0C0FF6AE71A88B9
:104AC000150B2D03854203D1D2B2062A00D9012647
:104AD000023380E7049B0121013304931DF053FF4F
:104AE00080E7069A037801320692002B04D0079BD8
:104AF000013307930023069301211DF044FF013584
:104B00008DE7A268039B944663441D00049B9E426C
:104B100000D143E72B78002B07D1A3680122E91AC3
:104B2000200020F0E6FD0136F0E7280001211DF00D
:104B30002AFF0500F7E7C046FA400300C4E302007D
:104B40000CAC02002241030098E20200012D00D1CA
:104B5000F5E601232A001A402ED0049A032A0DD02C
:104B600002E721000AA81DF0A6FFD9E60135049B43
:104B7000022BEBD10023012D00D1E0E6069A691E3D
:104B8000D20705D5029A9288120B012A00D1690832
:104B9000012900D04FE7002B00D1FFE64BE7039A35
:104BA000059900920AA86B1C029A1DF047FF07990D
:104BB0000AA8FFF725FD66E61300DFE7002A00D00C
:104BC00030E63B0040331E78002E00D0CCE6636810
:104BD000002B00D1C8E62B692000591C1DF05CFF9A
:104BE000A3686B62EB69AB6223E6022B01D10A4931
:104BF000C1E60A3B09480A49012B00D814E60949D5
:104C000012E6380021F042FE089A13AB13CB13C210
:104C1000089817B0F0BDC0463441030068E50200B3
:104C2000684103008F410300030010B50548002BC5
:104C300003D121F045FE09F063FF096821F046FE2B
:104C4000F9E7C046A4E5020010B50348096808F07A
:104C500051FA024810BDC04670C20200A8A302006B
:104C600070B505000C200C0020F02EFC024B4560B6
:104C70000360846070BDC0468CAF020010B50400B4
:104C800008001EF090F80300002C03D0012C06D081
:104C9000002003E00348002B00DC034810BD400067
:104CA0002043FBE730BD020028BD020043684B6093
:104CB00083688B60C3680800CB60014B0B60704752
:104CC00004B0020030B5040087B00D000020042AB3
:104CD00025D120001EF067F8AB0722D1184B2A68B7
:104CE0009A421ED103AA290006F022F8102020F0D3
:104CF000EBFB144BE2680360039B616853435B1852
:104D00004360049B6168019353435B18059983607A
:104D10004A43C260002902DAE2689B1A836007B046
:104D200030BD002301002A00206808F067FBE3681B
:104D300058436368C018012340001843EFE7C0469A
:104D400078C20200C8AF0200F0B50E00002785B09F
:104D5000110003901D0001220323300000970BF087
:104D600055FC102020F0B0FB039B040003600123DE
:104D70004760C36028689E4205D108F067FAA060CA
:104D8000200005B0F0BD08F061FA6060686808F0C6
:104D90005DFAA060032EF3D1A86808F057FAE0602E
:104DA0000028EDD10148FCF7D9FDC046AD41030014
:104DB00070B50D004A688B680849040020F00EFBAE
:104DC000EA68012A04D10649200020F046FA70BDA5
:104DD0000449200020F002FBF9E7C046B741030078
:104DE000B0640300C4410300136810B51400002B25
:104DF00005D19D2904D140681DF01BFD206010BD28
:104E00006C23FF33994201D18068F5E7024B994248
:104E1000F5D1C068F0E7C04636030000F0B587B0B2
:104E20000092027804000F00930703D5009B002B2B
:104E300000D0F5E0D307DB0F0ED07A4B3B40062BBA
:104E400043D003233B4003D177493868884203D0DD
:104E5000009B012B00D0E3E0019353075FD523684B
:104E6000A568DE08F600AE19B54230D3009B012BD1
:104E700000D0D5E02368D9086368994210D1043185
:104E80006160A068C90020F03DFB23686268DB0810
:104E9000D21ADB00A060D200C018002124F095FFD8
:104EA00007212368DD086A1CD2000B4013432360EE
:104EB000A368ED005D195B4B2F601F40062F21D0CA
:104EC00001222378934323701CE00123C4E7286860
:104ED000B8421AD1009B022B14D129002368721BFF
:104EE000D210083B013A6F6828002360D2000831D5
:104EF00024F058FF2368DD08A368ED005D19002346
:104F00006F602B60280007B0F0BD019B002B04D11F
:104F1000390008F049F90028DCD10835A4E76368B6
:104F2000002B05D1009B012B7AD1200000F07EF8E8
:104F30003C4B3B400593062B27D1F80820F090FA14
:104F400003906168039815F0C9F800260491049B4A
:104F50000293029BDD00A3685D19286800281BD11D
:104F6000009B012B5CD107212368DA080132D200B3
:104F70000B4013432360002E00D0350000236B60EC
:104F8000059B2F60062B9BD1BCE739000220FBF765
:104F900049FF43100393D4E7042803D1002E1DD109
:104FA0002E001BE0B84211D1009B022BAAD123682E
:104FB0000298083B23600130616815F08FF8A36800
:104FC000C900CB58002B25D12B609BE7019B002B00
:104FD00004D1390008F0E8F80028E5D102986168AA
:104FE000013015F07BF8049B02918B42B1D1009BFC
:104FF000012B15D1002E0FD0236835000833236014
:1050000000237360059B3760062B00D17AE7237875
:10501000009A57E70423D7E7200000F007F890E74D
:1050200000256FE7070080FF20BB0200F7B543684B
:10503000040001935A1C002317495800455AAA42FC
:1050400006D90133222BF8D15508AD18213B1D4359
:10505000E800A76820F04AFA072322686560134039
:1050600001220025236013432370A060019B9D4211
:1050700003D1380020F057FAF7BDEE00B9590029E6
:1050800008D0042906D001222000FFF7C7FEBE1970
:10509000736843600135E9E7EC120300F8B50500D9
:1050A0000023046886681449621C5800405A8242F2
:1050B00006D90133222BF8D1500882180120104361
:1050C000002328606B60800020F010FA3700A400F5
:1050D000A860A419A74203D1300020F024FAF8BD3B
:1050E0003968002905D0042903D0012228001DF0C9
:1050F000FAFE0437EEE7C046EC12030070B51378F1
:1051000004000A3BD8B20F2809D90A0010481149F7
:105110000CF0F6FA0025636A1860280070BD0025BF
:1051200052781B021A43E36AAB420AD1238C002552
:10513000042BF2D1084906480CF0E2FA636A1860C1
:10514000EBE7206BA90009589142E6D00135EBE767
:1051500068E502004D43030062430300F0B504001C
:1051600085B00D00100003A9A26A1E001DF045FDC8
:10517000002809D12A000B490B480CF0C1FA636AD8
:105180001860002005B0F0BD039808F08BF803000C
:10519000B343F7D0030000962A00044902480CF0FC
:1051A000AFFAECE70943030068E50200214303007E
:1051B000F7B51F0013780E000A3BD9B2050021484D
:1051C0000F2904D850781B02184320F053F91524F6
:1051D0000378009315231C491B1B0193A300CB1AD2
:1051E000190055310978009A91421FD119005631A2
:1051F000427809788A4219D1573381781B788B42DB
:1052000014D1002B0FD1019B9A000F4BD05CB842F8
:1052100008D93B0032000D490D480CF071FA6B6A59
:1052200018600020FEBDC378002BECD0013C002CA0
:10523000D0D13200074906480CF062FA6B6A186058
:105240002000EFE7C5450300C54303007943030091
:1052500068E5020092430300F0B5137885B00500BD
:105260000E00462B47D101A910001DF0F6FC019B52
:10527000834240D003781A000A3A0F2A0AD8020063
:105280000F2331002800FFF793FF01248440200002
:1052900005B0F0BDB32B2ED11DF0DAFC04001DF0DB
:1052A000D2FC02900378B62B25D10127A73B220020
:1052B00031002800FFF77CFF3C0003A984400298DE
:1052C0001DF0CBFC039B02909842E0D09D2102A8E8
:1052D0001DF0D2FC029A039B9A42D8D00F233100D2
:1052E0002800FFF765FF3B00834002981C431DF038
:1052F000AAFC0290EEE73200034904480CF000FAE1
:105300006B6A00241860C2E7AA43030068E5020044
:10531000F0B50E0087B0040004A930001F00019210
:1053200020F0ADF8019B0500002B0ED1C14B9E4231
:1053300005D1BF21090220001FF0BBFC19E0BE4BC4
:105340009E4200D089E0BD49F5E7019B012B00D0CA
:105350009BE00233FF339E420DD101003A682000EA
:10536000FFF7CCFE010020001FF0EDFC002800D16B
:105370001BE207B0F0BDB24B9E4209D101003A6872
:105380002000FFF7BBFE010020001FF034FDEDE719
:10539000AC4B9E420AD101000F233A682000FFF770
:1053A00007FF8E21C000C9010143C4E70378622BC7
:1053B0003BD1049B032B07D0052B36D1C3785F2B41
:1053C00033D103796E2B30D101230E265B426978ED
:1053D0009D480293B300F31AC3181A002B321278B7
:1053E0008A4209D1AA7894461A002C321278944540
:1053F00002D12A331B780293013E002EEAD1029B90
:1054000001332AD03A6829002000FFF777FE049B79
:105410000200052B03D12E79773E73425E413300A3
:10542000029920001FF0ABFCA0E7A6239B009E4240
:1054300001D186497FE7864B9E4201D185497AE7B3
:10544000854B9E4212D129003A682000FFF704FFE5
:10545000FF231B02B421184215D0019B2A007F496B
:105460007F480CF04DF9636A186082E77D4B9E42DD
:10547000F3D13A6829002000FFF7EEFEFF231B025C
:105480001842EAD1BC2109028EE7019B022B00D011
:1054900025E1C0227B6892001B780A3B0F2B48D87D
:1054A000964212D13A6801000F232000FFF780FED8
:1054B0007A68060029000F232000FFF779FE3100EB
:1054C000020020001FF028FC53E70022664B0292E6
:1054D0009E421AD18026F6013A682900072320004F
:1054E000FFF766FE7A680190290007232000FFF786
:1054F0005FFE019A0300310020001FF006FC38E730
:10550000029B013302930F2BA7D0029B03229E0024
:10551000564B2800991924F0B3FC0028F0D1EB7801
:10552000002BEDD1524BF65C80233601DB011E438C
:10553000D2E796421AD1802607233A682900200034
:10554000FFF736FEFF23019029007A682000FFF75D
:1055500005FE0100019BB6011B0231431943EAE637
:10556000A026E9E7C026E7E7E026E5E7414B9E42B3
:10557000F6D0414B9E42F5D0C9339E42F4D0583B01
:105580009E4200D184E03D4B9E4200D182E03C4BE4
:105590009E4200D180E03B4B9E4200D17EE0013331
:1055A0009E4200D17CE0384B9E4200D055E7052357
:1055B000364A9B009B5A290002933A680723200031
:1055C000FFF7F6FD7E6803903378452B6AD13000F3
:1055D0001DF07EFB002865D130001DF039FB0378FB
:1055E000A62B5FD105A91DF038FB059906001DF01B
:1055F0001EFB022856D130001DF025FB0723320088
:10560000070029002000FFF7D3FD029B0600DB0402
:1056100050D51F233A0029002000FFF79FFDF1001D
:10562000039B029E80011E433143F826F600304062
:10563000BAE6C046070300005D03000030BF00006B
:105640008102000085020000CA41030072B600001A
:105650009902000062B600001603000084420300B5
:1056600068E502001103000076020000CE4203004C
:10567000CD4203009202000073020000E502000028
:10568000E7020000370300003A0300003013030074
:1056900000238DE701238BE7019B89E7032387E73D
:1056A000042385E72A00444944480CF029F8636A3A
:1056B0001860D2E66B4608229B5E002B07DA3E2379
:1056C0003A0029002000FFF749FD4008A7E77C23A6
:1056D0003A0029002000FFF741FD80089FE7019B69
:1056E000032B00D0B9E6364B9E4222D100263A6801
:1056F000072329002000FFF75BFD7A68019007234C
:1057000029002000FFF754FD1F230290BA682900EA
:105710002000FFF723FD019F029B3743810139439E
:10572000DE00314307E680263601E0E78026760179
:10573000DDE7244B9E42F6D0733B9E42F6D0224BCF
:105740009E422BD1C02607233A6829002000FFF78C
:105750002FFD072301907A6829002000FFF728FD1C
:10576000BA687601137802900A3B0F2B0DD80723F5
:1057700029002000FFF71CFD029BD900019B194363
:1057800031430F0081013943D5E58023DB001E43FF
:10579000290007232000FFF7E1FCEDE7CF239B0062
:1057A0009E4200D059E6D026CDE708490348646AF6
:1057B00021F093F82060DCE55942030068E502001F
:1057C000EE020000EF02000073020000B942030085
:1057D000F7B50E000700110030001DF028FA002573
:1057E000040004281ED97C6A1349144821F075F876
:1057F000206000242000FEBD7378000218431FF0D3
:1058000039FE0236019024F034FB022811D1019BAD
:105810001B78722B0DD1019B5A782B0030339A42A2
:1058200007D10135A542E5D030780A38C3B20F2B35
:10583000E2D97C6A0249D8E7F441030068E5020036
:1058400027420300014B58687047C046802E002055
:10585000014B18687047C046802E0020F0B5194EE5
:1058600087B03368050000200C0001931DF0BEFCDA
:105870003060009020681CF01BF8019B070033602B
:10588000114E022D03D0A06807F0F8FB060021009E
:1058900063680831A81E039305F032F9009B049059
:1058A0000593002203AB03213000FBF72DFB074BD0
:1058B00004009F4203D0010038001FF0FEFF2000CB
:1058C00007B0F0BD802E00202CA20200A8A3020089
:1058D0001FB56946FBF70CFC04002000FBF76AFCCF
:1058E000002802D1044804B010BD07F0EDFD0028E7
:1058F000F3D10248F7E7C04630BD020028BD0200E0
:105900001FB56946FBF7F4FB04002000FBF752FCCF
:10591000002802D1044804B010BD07F0D5FD0028CE
:10592000F3D00248F7E7C04628BD020030BD0200B0
:1059300007B5044B0190002269460220009303F052
:1059400007FA0EBD2E13000010B507F01BFC034B29
:10595000002800D1024B180010BDC04630BD020027
:1059600028BD020037B507F071FC01AB7F2806D8CF
:10597000012118700122180001F012FF3EBD1E49DE
:10598000820988420BD8402149420A431A703F22BB
:10599000024080204042104358704231EAE7174CE1
:1059A000010BA0420ED820246442214319708021AB
:1059B0005F344942224020400A43014399705A70A3
:1059C0000321D7E70E4CA04212D81024850C644264
:1059D0002C431C703F258024294064422A402840E3
:1059E00021432243204359709A70D8700421C1E7A3
:1059F0000448FBF7B3FFC046FF070000FFFF0000AD
:105A0000FFFF10001944030010B5020002490A20EC
:105A1000FBF7ACFF10BDC0467E13000010B50200BE
:105A200002490A20FBF7A2FF10BDC0467613000012
:105A3000F0B589B0019204000D0000222F490198B1
:105A40000293FFF7EBF90090002801D04368009320
:105A5000012C16D0A4002B19002427000193019BD0
:105A60009D4224D0009B2E68002B04D031001800EA
:105A70001BF025FF0600002C37D137002C680435B9
:105A8000EDE7002404A92868FBF732FB2700039008
:105A90000398FBF78FFB051E0CD1002C07D12200C9
:105AA00017490198FFF7BAF900281BD04468200075
:105AB00009B0F0BD009B2E00002B04D02900180077
:105AC0001BF0FDFE0600002C09D03A0031000298C0
:105AD000FBF74CFF0B4B984201D025003E002C00F9
